:100000000C942A000C9447000C9447000C94470071
:100010000C9447000C9447000C9447000C94470044
:100020000C9447000C9447000C9447000C94470034
:100030000C9447000C9447000C9447000C94470024
:100040000C9447000C9447000C9447000C94470014
:100050000C94470011241FBECFE5D8E0DEBFCDBF12
:1000600011E0A0E6B0E0E2EFF1E302C005900D92EE
:10007000AC31B107D9F717E0ACE1B1E001C01D9296
:10008000A139B107E1F70E9402130C94F7180C9400
:1000900000008FEF8BBB1ABA88BB17BA15BA84BBA6
:1000A00082BB11BA08958C9A8D9A1EBC1DBC1CBCD3
:1000B0001BBC1ABC19BC18BC81E087BD8FE886BD8B
:1000C00082EA8FBD89E18EBD08951ABA16B880E61E
:1000D00087B987E886B980E888B9089515B8877028
:1000E000806687B9369A3699FECF85B10895AC01FE
:1000F00030E060E971E00CC0FB013197F1F7019746
:10010000D9F72F5F243019F084EC99E0F5CF3F5FE9
:10011000832F90E08417950714F420E0F5CF08951D
:10012000AF92BF92CF92DF92EF92FF920F931F9305
:10013000AA2797FDA095BA2FBC01CD010E9489176F
:100140005B016C0120E030E04AE755E40E943D1875
:100150007B018C0120E030E040E85FE30E94EA167A
:1001600088231CF461E070E024C0C801B70120E0DE
:100170003FEF4FE757E40E9439181816B4F4C60150
:10018000B50120E030E040E251E40E943D180E94B9
:100190005B1780E991E005C0FC013197F1F76150F0
:1001A000704061157105C1F707C0C801B7010E9411
:1001B0005B17CB010197F1F71F910F91FF90EF9023
:1001C000DF90CF90BF90AF900895AF92BF92CF9243
:1001D000DF92EF92FF920F931F93AA2797FDA095AE
:1001E000BA2FBC01CD010E9489175B016C012BEA7B
:1001F0003AEA4AEA50E40E943D187B018C0120E073
:1002000030E040E85FE30E94EA16882314F461E0DE
:1002100054C0C801B70120E030E04FE753E40E942A
:10022000391818160CF045C0C601B50120E030E0C1
:100230004AE754E40E94EE165B016C0120E030E0D6
:100240004AE755E40E943D187B018C0120E030E034
:1002500040E85FE30E94EA1688231CF461E070E046
:1002600024C0C801B70120E03FEF4FE757E40E94E8
:1002700039181816B4F4C601B50120E030E040E2A8
:1002800051E40E943D180E945B1780E991E005C08F
:10029000FC013197F1F76150704061157105C1F7AC
:1002A0000EC0C801B7010E945B17CB010197F1F79F
:1002B00006C0C801B7010E945B176A95F1F71F914C
:1002C0000F91FF90EF90DF90CF90BF90AF90089587
:1002D0000F931F93CF93DF9310921C01C0E0D0E0E7
:1002E00001E010E08C2F0E946E00863460F49801CB
:1002F0000C2E02C0220F331F0A94E2F780911C01DA
:10030000822B80931C012196C430D10559F7DF91CF
:10031000CF911F910F91089580E00E946E0080930D
:10032000410781E00E946E008093420782E00E94B4
:100330006E008093430783E00E946E008093440721
:10034000089580E00E946E008093850781E00E94FE
:100350006E008093860782E00E946E00809387077C
:1003600083E00E946E008093880708951F93CF93C7
:10037000DF93C0E0D0E01FEF15BB84E690E00E9461
:10038000900015BA84E690E00E9490002196C53056
:10039000D10591F7DF91CF911F9108959BBD8ABD43
:1003A000089599BD88BD089587B3807F87BBC69A9D
:1003B000C59882E08A95F1F722E035E0C79A822F4E
:1003C0008A95F1F786B38295807F922F9A95F1F7FF
:1003D000C798932F9A95F1F7C79A922F9A95F1F7AC
:1003E00096B3922F9A95F1F7C798932F9A95F1F7B4
:1003F00087FDE4CFC69887B38F6087BB0895282F09
:10040000662311F4C59801C0C59A82E08A95F1F778
:10041000C79A88B3922F92959F70807F982B98BB34
:1004200095E0892F8A95F1F7C798892F8A95F1F77A
:10043000C79A88B32F70807F822B88BB892F8A95BB
:10044000F1F7C7989A95F1F70E94D40108951F9388
:10045000182F8CE291E020E931E0F9013197F1F7B2
:100460000197D9F787B38F6087BBBF9ABD9ABE9AB1
:1004700088B3807F88BBC798C698C59881E08A9565
:10048000F1F7C79AC19A85E0982F9A95F1F7C79826
:100490008A95F1F70E94D401812F8C6060E00E9460
:1004A000FF0188E260E00E94FF011F910895CF9351
:1004B000DF93EC0104C061E00E94FF012196888176
:1004C0008823C9F7DF91CF910895EF92FF920F93A0
:1004D0001F93DF93CF9300D000D00F92CDB7DEB73C
:1004E0009C018B01FE01319685E0DF011D928A950A
:1004F000E9F7FE0135960DC0C9016AE070E00E947F
:10050000A0188083C9016AE070E00E94A0189B01D6
:1005100031972115310581F7BFEF0F3F1B0779F4A4
:1005200020E030E0AE014F5F5F4F02C02F5F3F4FD2
:10053000FA01E20FF31F80818823C1F304C025E094
:1005400030E0201B310B7E010894E11CF11CE20E0F
:10055000F31E890109C0F70181917F01805D61E08F
:100560000E94FF010F5F1F4F05301105A4F30F908C
:100570000F900F900F900F90CF91DF911F910F91DF
:10058000FF90EF900895883230F4611180648068A4
:1005900060E00E94FF0108950F931F938A010E945B
:1005A000C302C8010E9457021F910F910895EF9254
:1005B000FF920F931F938A0179010E94C302C80121
:1005C000B7010E9465021F910F91FF90EF9008956F
:1005D0001AB81BB887E080BD87E689B910BC88E9E6
:1005E0008AB908955D9BFECF8CB90895FC0104C0C3
:1005F0005D9BFECF8CB9319680818823C9F7089521
:100600005D9BFECF8AE08CB95D9BFECF8DE08CB9FF
:1006100008955F9BFECF8CB108958FEF84BB089542
:10062000AC9AAD98AE98AF980895AC98AD9AAE9844
:10063000AF980895AC98AD98AE9AAF980895AC98DD
:10064000AD98AE9AAF980895AC9AAD98AE98AF9821
:100650000895AC98AD98AE98AF9A0895AC9AAD98BD
:10066000AE9AAF980895AC98AD9AAE98AF9A0895A7
:10067000AC98AD9AAE9AAF980895AC9AAD98AE98F2
:10068000AF9A0895AC98AD98AE98AF980895AC9A8B
:10069000AD9AAE9AAF9A089582B38F6082BB81B350
:1006A000807F81BB089520B330E020953095217084
:1006B0003070C901089520B330E036952795209514
:1006C000309521703070C901089520B330E036951F
:1006D0002795369527952095309521703070C90162
:1006E000089520B330E043E0369527954A95E1F729
:1006F0002095309521703070C90108956F927F92D6
:100700008F929F92AF92BF92CF92DF92EF92FF9221
:100710000F931F93AC9AAD98AE9AAF9880911C013D
:10072000863091F1873060F48230B1F0833018F474
:100730008130C1F531C08330A9F0843099F509C00A
:10074000883039F18830A0F08C3049F08E3051F586
:100750000CC081E090E022C08FEF9FEF1FC083E0CC
:1007600090E01CC08DEF9FEF05C084E090E016C0C4
:100770008CEF9FEF90931E0180931D0180912901C2
:1007800090912A01019771F410921E0110921D019F
:1007900009C086E090E002C08AEF9FEF90931E01AF
:1007A00080931D0160911D0170911E01882777FDC6
:1007B0008095982F0E9489175B016C0160918907D1
:1007C00070918A0780918B0790918C07A601950103
:1007D0000E9485167B018C0160938D0770938E07B4
:1007E00080938F0790939007C601B50120910D016A
:1007F00030910E0140910F01509110010E943D185F
:100800003B014C01C801B701209111013091120147
:1008100040911301509114010E943D189B01AC01BD
:10082000C401B3010E9485167B018C0160933B01DA
:1008300070933C0180933D0190933E01A092890703
:10084000B0928A07C0928B07D0928C0760910B01FF
:1008500070910C0180E090E00E9487175B016C01B1
:10086000A80197010E9485160E9456177BBD6ABD9C
:10087000C601B501A80197010E9486160E9456176D
:1008800079BD68BD1F910F91FF90EF90DF90CF90E1
:10089000BF90AF909F908F907F906F9008950E942F
:1008A00049001ABA16B880E687B987E886B980E8A1
:1008B00088B98FEF84BB82E00E94270282B38F60E9
:1008C00082BB81B3807F81BB0E945300089585E77E
:1008D0008093150120EF30E082E291E008C03BBD3B
:1008E0002ABD99BD88BDAC98AD9AAE9AAF98CD9906
:1008F000F6CF09C03BBD2ABD99BD88BDAC98AD9A65
:10090000AE9AAF9804C029EB30E087ED90E0CE9B23
:1009100002C08699EFCF8FE891E09BBD8ABD99BD5B
:1009200088BDAC9AAD9AAE9AAF9A82E390E00E94ED
:1009300090000895CC9916C08091210190912201D8
:10094000892BA1F480912301909124010196909329
:1009500024018093230181E090E090932201809311
:100960002101089510922201109221010895CD9B3A
:1009700006C08091290190912A01019779F581E0C3
:1009800090E090932A0180932901CC9927C0869BFF
:1009900014C0CE9B12C008953BBD2ABD39BD28BDF1
:1009A000AC9AAD98AE9AAF9880E090E0879909C074
:1009B000AC9AAD9AAE9AAF9A04C081E090E020EF75
:1009C00030E0CC9B05C090932A01809329010895C3
:1009D0008799E2CF90932A018093290108950E947C
:1009E0006801AC9AAD98AE9AAF98CE9B0BC0869931
:1009F00009C080910B0190910C014E979BBD8ABD5F
:100A0000CC961EC0869B0BC0CE9909C080910B016D
:100A100090910C014E969BBD8ABDCC9711C0869BD0
:100A200005C0CE9B03C00E947E030CC086990AC0FD
:100A3000CE9908C080910B0190910C019BBD8ABD9D
:100A400099BD88BD8AE090E00E94E500089585E7A1
:100A50008093150124E031E088E191E008C03BBDBE
:100A60002ABD99BD88BDAC98AD9AAE9AAF98CD9B82
:100A7000F6CFCE9BFECF869BFCCFCD99FECF09C093
:100A80009BBD8ABD99BD88BDAC98AD9AAE9AAF9812
:100A900002C082ED90E0CE9B05C08699F1CF02C0E6
:100AA0000E94EF04CC9BFCCF879BFACF8FE891E0AC
:100AB0009BBD8ABD99BD88BDAC9AAD9AAE9AAF9ADE
:100AC00082E390E00E94900008958CE680931501E7
:100AD00085EF90E008C09BBD8ABD99BD88BDAC98EC
:100AE000AD9AAE9AAF98CD99F6CF09C09BBD8ABD9D
:100AF00099BD88BDAC98AD9AAE9AAF9802C080EF10
:100B000090E0CE9B05C08699F1CF02C00E94EF0411
:100B1000CC9BFCCF879BFACF8FE891E09BBD8ABD31
:100B200099BD88BDAC9AAD9AAE9AAF9A82E390E037
:100B30000E949000089582E78093150185EF90E070
:100B400008C09BBD8ABD99BD88BDAC9AAD98AE98D2
:100B5000AF9ACF99F6CF09C09BBD8ABD99BD88BD1C
:100B6000AC9AAD98AE98AF9A02C080EF90E0CE9B61
:100B700005C08699F1CF02C00E94EF04CC9BFCCF48
:100B8000879BFACF8FE891E09BBD8ABD99BD88BD58
:100B9000AC9AAD9AAE9AAF9A82E390E00E94900030
:100BA0000895809115018237D1F4809116019091BA
:100BB00017012FEF8F3F920759F12FEF8F3F9207C9
:100BC00009F02CF48E5F9F4F09F051C03DC0813079
:100BD000910509F43FC0029709F049C038C08C362E
:100BE000D1F480911601909117012FEF8F3F92075A
:100BF00089F12FEF8F3F920709F024F48E5F9F4F0A
:100C0000B1F525C08130910519F0029781F51CC01E
:100C100082E090E021C0853751F5809116019091D6
:100C200017012FEF8F3F920791F02FEF8F3F920721
:100C300009F024F48E5F9F4FD1F413C081309105E9
:100C400019F00297A1F406C08FEF9FEF05C081E075
:100C500090E002C08EEF9FEF9093170180931601F2
:100C6000089582E090E09093170180931601089513
:100C7000FC01A4E0EE0FFF1FAA95E1F7E60FF71FB6
:100C8000DF01AA0FBB1FAA0FBB1FA15CBC4F8C9139
:100C90008634C9F411968C9111978634A1F4EE0F25
:100CA000FF1FEE0FFF1FEF5BFC4F8081863459F46E
:100CB00090E013968C91863409F091E081E09827BA
:100CC000292F30E002C020E030E0C9010895CF9222
:100CD000DF92EF92FF920F931F93CF93DF93F82E43
:100CE000E62ED42EC22EC0911801D0911901009188
:100CF0001A0110911B01CE01B8010E943806892B00
:100D000009F47AC080911601909117012FEF8F3F5F
:100D1000920709F459C02FEF8F3F920709F02CF486
:100D20008E5F9F4F09F068C039C081309105E1F0B6
:100D3000029709F061C0FE01B4E0EE0FFF1FBA9503
:100D4000E1F7E00FF11FEE0FFF1FEE0FFF1FDF01B6
:100D5000A15CBC4FFC921196EC921197EF5BFC4F9B
:100D6000D0821396CC9248C0FE0164E0EE0FFF1FC4
:100D70006A95E1F7E00FF11FEE0FFF1FEE0FFF1F67
:100D8000DF01A15CBC4F1196FC921197EF5BFC4F09
:100D9000E0821396DC921397CC922EC0FE0134E0D1
:100DA000EE0FFF1F3A95E1F7E00FF11FEE0FFF1F67
:100DB000EE0FFF1FDF01AF5BBC4FFC92E15CFC4F0D
:100DC000E382D082C18218C0FE0184E0EE0FFF1FD3
:100DD0008A95E1F7E00FF11FEE0FFF1FEE0FFF1FE7
:100DE000DF01A15CBC4F1396FC921397EC92119615
:100DF000DC92EF5BFC4FC082DF91CF911F910F918E
:100E0000FF90EF90DF90CF90089580912F01909107
:100E100030018230910509F0A7C0809116019091B0
:100E200017012FEF8F3F9207A1F12FEF8F3F92070E
:100E300009F02CF48E5F9F4F09F003C171C081301F
:100E4000910521F0029709F0FCC046C0809118017D
:100E5000909119010196909319018093180184E5EE
:100E600090E066E470E044E550E026E430E00E9463
:100E700067068091180190911901019690931901CC
:100E80008093180160911A0170911B010E9438062D
:100E9000C8C0809118019091190101979093190190
:100EA0008093180184E590E066E470E044E550E04A
:100EB00026E430E00E9467068091180190911901A4
:100EC0000197909319018093180160911A01709114
:100ED0001B010E943806A5C080911A0190911B0148
:100EE000019690931B0180931A0184E590E066E4DB
:100EF00070E044E550E026E430E00E94670660912F
:100F00001A0170911B016F5F7F4F70931B016093FB
:100F10001A0180911801909119010E94380681C030
:100F200080911A0190911B01019790931B0180936E
:100F30001A0184E590E066E470E044E550E026E4C0
:100F400030E00E94670660911A0170911B016150A8
:100F5000704070931B0160931A0180911801909169
:100F600019010E9438065DC0019709F06AC080919E
:100F70001601909117012FEF8F3F920709F12FEF84
:100F80008F3F920709F02CF48E5F9F4F09F059C0F4
:100F900038C08130910521F0029709F052C020C07D
:100FA00080911801909119010196909319018093F5
:100FB000180160911A0170911B010E94380631C01E
:100FC00080911801909119010197909319018093D4
:100FD000180160911A0170911B010E94380621C00E
:100FE00060911A0170911B016F5F7F4F70931B011D
:100FF00060931A0180911801909119010E9438069E
:1010000010C060911A0170911B0161507040709383
:101010001B0160931A0180911801909119010E949F
:101020003806892B51F4809137019091380101964F
:10103000909338018093370104C0109238011092C8
:10104000370181E060E00E94FF014091180150915A
:10105000190184E090E060E070E022E030E00E945E
:10106000D70240911A0150911B0188E090E060E0A6
:1010700070E022E030E00E94D7021092300110921E
:101080002F010895CF93DF93CD992AC0C1E0D0E01E
:10109000D0932A01C093290180912B0190912C01BA
:1010A000815D97405CF081E060E00E94FF0182E09A
:1010B00090E09093300180932F0108C081E060E0C0
:1010C0000E94FF01D0933001C0932F0180912B012A
:1010D00090912C01892B21F41092300110922F0154
:1010E000CE9B02C0869919C0CC9B06C08091350169
:1010F00090913601019789F40E94050784E590E0FC
:1011000066E470E044E550E024E530E00E946706C4
:1011100010922C0110922B0132C0CC9B06C0809102
:10112000350190913601019771F5CE9B2CC0869BBD
:101130002AC00E94050710922C0110922B01AC9A34
:10114000AD9AAE9AAF9A809137019091380103978A
:10115000D4F40E94650586E490E066E470E044E51E
:1011600050E024E530E00E946706AC9AAD9AAE9A52
:10117000AF9A0E94D10510922A0110922901109273
:10118000360110923501DF91CF910895CE9B1AC0A0
:10119000869B18C080912B0190912C0120912F01EA
:1011A00030913001815D97402CF0232B59F482E07F
:1011B00090E004C0232B31F481E090E09093300163
:1011C00080932F0180911C01882341F5CC9B26C080
:1011D000CD9B24C0CE9B22C0CF9B20C0869B1EC02F
:1011E000879B1CC0AC9AAD9AAE9AAF9A0E94050735
:1011F00086E490E066E470E044E550E026E430E008
:101200000E9467060E9467040E94D10510922A017D
:101210001092290110922C0110922B0108956F92C7
:101220007F928F929F92BF92CF92DF92EF92FF9226
:101230000F931F93CF93DF9381E0E82EF12C06E408
:10124000B02E65C0C701B8010E943806892B09F489
:101250004CC081E060E00E94FF01C301B8010E9420
:101260003806892B09F041C0C401B8010E94380634
:10127000892BD9F5B80161507040C7010E9438062A
:10128000892B99F5B8016F5F7F4FC7010E9438061F
:10129000892B59F581E060E00E94FF0180E690E033
:1012A0000E94570280ED97E00E949000CD5BDF4FD7
:1012B0008881C354D040843511F4898301C0B98238
:1012C000EF978881EF96843511F48B8301C0BB8240
:1012D0008E81843511F4888301C0B882F601808143
:1012E000843511F48A8301C0BA820F5F1F4F85E0F5
:1012F00090E0C80ED91E24960F30110509F0A2CF38
:101300000894E11CF11C9FE0E916F104B1F06701BB
:1013100016E0CC0CDD1C1A95E1F7E3E4F3E0CE0E09
:10132000DF1EE60101E010E037010894611C711C2A
:10133000470108948108910885CFDF91CF911F91D3
:101340000F91FF90EF90DF90CF90BF909F908F9084
:101350007F906F9008952F923F924F925F926F927D
:101360007F928F929F92AF92BF92CF92DF92EF9235
:10137000FF920F931F93DF93CF93CDB7DEB768979C
:101380000FB6F894DEBF0FBECDBF1092320110929F
:101390003101109234011092330180901801909025
:1013A0001901A0901A01B0901B01CC24DD24C818AB
:1013B000D908DE82CD82DC82CB82DA82C98200E06B
:1013C00010E0222733272A193B093E8B2D8B90C131
:1013D000C8016F89788D0E943806892B09F055C1A4
:1013E000F7018081843509F04AC06F89788D6F5F7D
:1013F0007F4FC8010E943806892B09F440C06091D4
:101400003101709132016115710531F48091330120
:1014100090913401892B49F1681979098091330140
:10142000909134018A199B09ED85FE85EE9FA001FC
:10143000EF9F500DFE9F500D11242F853889420FCC
:10144000531FFC01EE9FC001EF9F900DFE9F900D7A
:101450001124669F9001679F300D769F300D1124F7
:10146000820F931F4817590754F4109332010093C9
:1014700031012F89388D3093340120933301F701E6
:101480008181843509F052C08B899C896F89788D60
:101490000E943806892B09F449C06091310170918E
:1014A00032016115710589F4809133019091340105
:1014B000892B59F410933201009331012F89388D13
:1014C000309334012093330131C068197909809138
:1014D0003301909134018A199B09669CA001679C95
:1014E000500D769C500D1124EB85FC854E0F5F1F2F
:1014F0009C01229FC001239F900D329F900D1124CB
:10150000669F9001679F300D769F300D1124820FEA
:10151000931F4817590754F4109332010093310177
:101520008F89988D9093340180933301F7018281E4
:10153000843509F053C06F89788D61507040C801BF
:101540000E943806892B09F449C0609131017091DD
:1015500032016115710589F4809133019091340154
:10156000892B59F410933201009331012F89388D62
:10157000309334012093330131C068197909809187
:101580003301909134018A199B09449CA001459C28
:10159000500D549C500D1124E985FA854E0F5F1FA4
:1015A0009C01229FC001239F900D329F900D11241A
:1015B000669F9001679F300D769F300D1124820F3A
:1015C000931F4817590754F41093320100933101C7
:1015D0008F89988D9093340180933301F701838133
:1015E000843509F052C089899A896F89788D0E9463
:1015F0003806892B09F449C060913101709132019C
:101600006115710589F48091330190913401892B22
:1016100059F410933201009331012F89388D3093A2
:1016200034012093330131C0681979098091330165
:10163000909134018A199B09229CA001239C500D92
:10164000329C500D1124EF81F8854E0F5F1F9C01D5
:10165000229FC001239F900D329F900D1124669F01
:101660009001679F300D769F300D1124820F931FDC
:101670004817590754F410933201009331018F89B0
:10168000988D9093340180933301EF89F88D3196D2
:10169000F88FEF8B24E030E0E20EF31E0894211C5B
:1016A000311C0894411C511C0894611C711C8D85CF
:1016B0009E8501969E878D87709709F089CE0F5F72
:1016C0001F4F0894C11CD11CED81FE813196FE8311
:1016D000ED832B813C812F5F3F4F3C832B8389819E
:1016E0009A8101969A8389830031110509F447C0D4
:1016F000CC9CF001CD9CF00DDC9CF00D1124F88BFE
:10170000EF878D819E81889F9001899F300D989FE2
:10171000300D11243C872B872B813C81229FF001C7
:10172000239FF00D329FF00D1124FA87E987E9819C
:10173000FA81EE9FC001EF9F900DFE9F900D112446
:1017400098878F83780196E0EE0CFF1C9A95E1F75D
:101750002FE333E0E20EF31E8D899E899E878D87ED
:101760001C012C013C01188E1F8AF8013197FA8B5D
:10177000E98B98012F5F3F4F3C8B2B8B29CE6896CE
:101780000FB6F894DEBF0FBECDBFCF91DF911F9192
:101790000F91FF90EF90DF90CF90BF90AF909F9010
:1017A0008F907F906F905F904F903F902F90089513
:1017B0006F927F928F929F92AF92BF92CF92DF9261
:1017C000EF92FF920F931F93CF93DF9340911A01F3
:1017D00050911B01609118017091190105E417E007
:1017E000F8011182108213821282349687E0E13868
:1017F000F807B9F710923A0110923901662477245C
:10180000D2C16B010894C11CD11C960184E0220F47
:10181000331F8A95E1F7240F351F7901EE0CFF1C69
:10182000F701E15CFE4F808091808A149B040CF0EC
:1018300059C0AA0FBB1FAA0FBB1FA15CBC4F1196BA
:101840008C91843509F04EC0E901CC0FDD1FCC0F1F
:10185000DD1FC15CDC4F8B81843509F043C06F30E4
:1018600071050CF03FC0F801D182C08253834283DE
:10187000B6016F5F7F4FDB0194E0AA0FBB1F9A9503
:10188000E1F7A40FB51FFD01EE0FFF1FE15CFE4F56
:1018900080819181881599050CF066C1AA0FBB1F44
:1018A000AA0FBB1FA15CBC4F13968C91843509F025
:1018B0005BC18881863409F057C18981843509F07C
:1018C00053C1EE0CFF1C81E493E0E80EF91EF70112
:1018D0008081863409F048C1FFE0CF16D1040CF0B6
:1018E00043C176C06B010894C108D108960194E009
:1018F000220F331F9A95E1F7240F351F7901EE0C63
:10190000FF1CF701E15CFE4F808091808A149B04EC
:101910000CF062C0FB01B4E0EE0FFF1FBA95E1F7D7
:10192000E40FF51FEE0FFF1FEE0FFF1FE15CFC4FF2
:101930008381843509F050C0E901CC0FDD1FCC0F45
:10194000DD1FC15CDC4F8981843509F045C0161666
:1019500017060CF041C0F801D182C0825383428344
:10196000B60161507040DB0124E0AA0FBB1F2A952D
:10197000E1F7A40FB51FFD01EE0FFF1FE15CFE4F65
:1019800080819181881599050CF0EEC0AA0FBB1FCC
:10199000AA0FBB1FA15CBC4F11968C91843509F036
:1019A000E3C08881863409F0DFC0EE0CFF1C81E4BF
:1019B00093E0E80EF91EF7018081863409F0D4C067
:1019C0008B81843509F0D0C01C141D040CF0CCC0F0
:1019D000F80171836083CDC0EA0121969B01F4E098
:1019E000220F331FFA95E1F76901CC0EDD1ED601F7
:1019F000AA0FBB1FFD01E15CFE4FE080F180EA14FD
:101A0000FB040CF04DC0F901E40FF51FEE0FFF1FB2
:101A1000EE0FFF1FE15CFC4F8081843509F040C070
:101A2000AA0FBB1FAF5BBC4F8C918435C9F54F30FB
:101A30005105B4F5F80171836083D383C283AE018D
:101A40004F5F5F4FD901A40FB51FAA0FBB1FFD0148
:101A5000E15CFE4F808191818E159F050CF086C060
:101A6000AA0FBB1FAF5BBC4F8C91843509F07EC0C1
:101A7000F601EE0FFF1FEE0FFF1FE15CFC4F8081B0
:101A8000843509F073C08181863409F06FC0838189
:101A9000863409F06BC0CF30D1050CF067C060C050
:101AA0007A010894E108F108DB0124E0AA0FBB1FCA
:101AB0002A95E1F7ED01CE0DDF1D9E01220F331FA8
:101AC000F901E15CFE4FC080D180CA14DB040CF048
:101AD00050C0FD01E40FF51FEE0FFF1FEE0FFF1FBB
:101AE000EF5BFC4F8081843509F043C0CC0FDD1FD4
:101AF000CC0FDD1FC15CDC4F88818435D1F5141615
:101B00001506BCF5F80171836083F382E282A701B8
:101B100041505040A40FB51FFD01EE0FFF1FE15CC7
:101B2000FE4F808191818C159D0514F5AA0FBB1F76
:101B3000AA0FBB1FA15CBC4F8C918435C9F489816D
:101B40008634B1F4220F331F2F5B3C4FF9018081A3
:101B5000843571F48B81863459F41E141F0444F4C7
:101B6000F8015383428305C0B60103C0AE0101C032
:101B7000A7010894611C711C0C5F1F4FF0E16F16E8
:101B800071048CF070923A016092390181E060E05A
:101B90000E94FF018AE690E00E94570282E090E0F6
:101BA0000E94770017C0DB0134E0AA0FBB1F3A95F3
:101BB000E1F7A40FB51FFD01EE0FFF1FE15CFE4F23
:101BC000A080B180A114B10409F01BCE70923A013B
:101BD00060923901DF91CF911F910F91FF90EF90AB
:101BE000DF90CF90BF90AF909F908F907F906F903D
:101BF00008954F925F926F927F928F929F92AF92D1
:101C0000BF92CF92DF92EF92FF920F931F93CF93E9
:101C1000DF935C014B013A01290120E030E044E60A
:101C200050E00BC041935193019680319105D1F75B
:101C30002F5F3F4F2031310559F0F90165E0EE0F7C
:101C4000FF1F6A95E1F7E15CFE4F80E090E0EACF8C
:101C5000F30154E0EE0FFF1F5A95E1F7E40DF51D77
:101C6000EE0FFF1FE15CFE4F11821082EE24FF2475
:101C7000A50134E0440F551F3A95E1F7480D591D71
:101C8000440F551F415C5E4FB4C090968D919C915E
:101C900091978E159F0509F040C08481843551F4D9
:101CA0008285843539F4888199818436910511F4CF
:101CB000198308838581843571F4E95BFF4F808146
:101CC000E754F040843539F48E8D9F8D843691052C
:101CD00011F41F8F0E8F8681843571F480818435D5
:101CE00059F45E968D919C915F978436910521F40D
:101CF0005F961C930E935E978781843571F4FB97F2
:101D00008081FB96843549F48D919C91119784369E
:101D1000910519F411961C930E93129634962296FF
:101D2000AC15BD0509F0B1CF6F5F7F4F90E2C92EB2
:101D3000D12CCA0EDB1E6031710519F1DB0185E083
:101D4000AA0FBB1F8A95E1F7A15EBE4F9B01F4E08D
:101D5000220F331FFA95E1F788279927821B930BEF
:101D60000196880F991F880F991FEE27FF27E81B00
:101D7000F90BE15CFC4FE901CC0FDD1FCF5BDE4FBF
:101D800084CF0894E11CF11C83E3E816F10489F583
:101D900081E060E00E94FF0186E790E00E94570228
:101DA00080E090E061E070E0A50122E030E00E9478
:101DB000D70283E090E061E070E0A40122E030E02F
:101DC0000E94D70288E090E061E070E0A30122E089
:101DD00030E00E94D7028BE090E061E070E0A20169
:101DE00022E030E00E94D70282E090E00E9477007B
:101DF00010C0FA01808191818436910551F49FE3EE
:101E0000C92E91E0D92E60E070E087010F5F1F4F6F
:101E100095CFDF91CF911F910F91FF90EF90DF90C1
:101E2000CF90BF90AF909F908F907F906F905F907A
:101E30004F900895CF93DF93EC018130910539F5F0
:101E400080911601909117012FEF8F3F920749F073
:101E50008230910509F457C08E5F9F4F09F0A3C0EF
:101E60007FC0E0911801F091190144E0EE0FFF1FCF
:101E70004A95E1F780911A0190911B01E80FF91F33
:101E8000EE0FFF1FEE0FFF1FE15CFC4F56C08230CC
:101E9000910539F580911601909117012FEF8F3F31
:101EA000920789F18130910509F45AC08E5F9F4FE6
:101EB00009F079C0E0911801F091190124E0EE0FCA
:101EC000FF1F2A95E1F780911A0190911B01E80FFD
:101ED000F91FEE0FFF1FEE0FFF1FE15CFC4F838128
:101EE00058C08FEFCF3FD80751F5809116019091E0
:101EF00017018130910561F08230910589F18E5F83
:101F00009F4F09F050C00E949B050E94D1054BC015
:101F1000E0911801F091190184E0EE0FFF1F8A95FE
:101F2000E1F780911A0190911B01E80FF91FEE0F64
:101F3000FF1FEE0FFF1FEF5BFC4F80812AC08FEF6A
:101F4000CE3FD80781F5809116019091170181301D
:101F50009105C9F28230910531F08F5F9F4F19F5DD
:101F60000E946505D2CFE0911801F0911901A4E01B
:101F7000EE0FFF1FAA95E1F780911A0190911B01C6
:101F8000E80FF91FEE0FFF1FEE0FFF1FE15CFC4F84
:101F90008181843511F40E949B050E949B05D0939A
:101FA0001701C0931601AC9AAD9AAE9AAF9ADF9121
:101FB000CF9108950F931F93CF93DF93EC018B0183
:101FC00080911801909119018C179D079CF481E074
:101FD00090E00E941A0F02C00E94EF04CD9B05C042
:101FE000CF99FACF02C00E94EF04CC9B4CC08799D6
:101FF000FACF49C0C817D9079CF48FEF9FEF0E9412
:102000001A0F02C00E94EF04CD9B05C0CF99FACFF2
:1020100002C00E94EF04CC9B36C08799FACF33C030
:1020200080911A0190911B01861797079CF482E01A
:1020300090E00E941A0F02C00E94EF04CD9B05C0E1
:10204000CF99FACF02C00E94EF04CC9B1CC08799A5
:10205000FACF19C06817790704F51092400710925B
:102060003F078EEF9FEF0E941A0F02C00E94EF04FD
:10207000CD9B05C0CF99FACF02C00E94EF04CC9B44
:1020800002C08799FACF8FE891E099BD88BD9BBDCA
:102090008ABDAC9AAD9AAE9AAF9AD0931901C0930B
:1020A000180110931B0100931A0181E060E00E9467
:1020B000FF01409118015091190180E090E061E02A
:1020C00070E022E030E00E94D70240911A01509166
:1020D0001B0185E090E061E070E022E030E00E94CA
:1020E000D70240912B0150912C0183E090E060E0F9
:1020F00070E025E030E00E94D702AC9AAD9AAE9A2B
:10210000AF9ADF91CF911F910F910895CF92DF92F7
:10211000EF92FF920F931F93CF93DF9381E060E0E4
:102120000E94FF0105E417E0C0E0D0E0EE24FF24A8
:10213000CC24DD2421C0F80140815181CE01B701BA
:1021400022E030E00E94D702F80142815381CE01A3
:102150000296B70122E030E00E94D7022596CE30E9
:10216000D1052CF0C0E0D0E051E0E52EF12C089430
:10217000C11CD11C0C5F1F4F8091390190913A0115
:102180008C159D05C4F6DF91CF911F910F91FF90A3
:10219000EF90DF90CF900895EF92FF920F931F93EF
:1021A000CF93DF930091180110911901C0911A018A
:1021B000D0911B0186E466E444E526E40E946706AC
:1021C00081E060E00E94FF018FE891E09BBD8ABD45
:1021D00099BD88BDAC9AAD9AAE9AAF9A0E94B601ED
:1021E0000E9427050E94D1050E940F090E94AB0999
:1021F00081E060E00E94FF0180E090E060E070E03C
:1022000042E850E00E94CC024091310150913201ED
:1022100084E090E060E070E022E030E00E94D702CD
:1022200087E090E060E070E047E850E00E94CC0278
:1022300040913301509134018BE090E060E070E018
:1022400022E030E00E94D70280E090E061E070E0A0
:102250004CE850E00E94CC024091180150911901C5
:1022600084E090E061E070E022E030E00E94D7027C
:1022700087E090E061E070E040E950E00E94CC022D
:1022800040911A0150911B018BE090E061E070E0F9
:1022900022E030E00E94D70280913101909132011A
:1022A000892B41F08091330190913401892B11F0F9
:1022B0000E94141587E090E0909319018093180113
:1022C00090931B0180931A0182E090E09093170194
:1022D0008093160184E990E00E945702829962C0BF
:1022E00087E090E067E070E0A8019E010E94F90D90
:1022F0000E94D80B65E4E62E67E0F62E8701C0E069
:10230000D0E0F80160817181CE010E94E218F801ED
:1023100062817381CE0102960E94E2180C5F1F4F0A
:102320002496CC33D10569F781E060E00E94FF017B
:1023300082EA90E00E94570281E090E00E947700DC
:102340001092400710923F070E948610AC9AAD9AF7
:10235000AE9AAF9A82992DC081E060E00E94FF01A1
:1023600081E090E00E947700F70120813181211502
:10237000310521F482819381892B79F0F701628103
:102380007381C9010E94DA0F84E090E0E80EF91E23
:1023900091E8E91697E0F90639F7AC98AD98AE9850
:1023A000AF98FBCF809B9CCF819B9ACF839B98CF8C
:1023B00095CF809BD1CF819BCFCF839BCDCFCACFF1
:1023C0008FE891E09BBD8ABD99BD88BDAC9AAD9A5E
:1023D000AE9AAF9A81E060E00E94FF0120912B014C
:1023E00030912C0187E0213D38071CF082E090E01D
:1023F00002C081E090E09093300180932F01232B65
:1024000021F41092300110922F010E940507809153
:10241000230190912401909328018093270104C007
:102420000E94EF040E949A048799FACFCE990DC0BA
:1024300086990BC0CD9909C0CF9907C00E94CC10D6
:1024400004C00E94EF040E949A04879BFACFCC9BA1
:10245000F8CF09C09BBD8ABD99BD88BDAC98AD9A27
:10246000AE98AF9A02C085EF90E0879B02C0CC99EE
:10247000F1CF8FE891E09BBD8ABD99BD88BDAC9A34
:10248000AD9AAE9AAF9A81E060E00E94FF01409160
:1024900023015091240180E090E060E070E021E0B1
:1024A00030E00E94D7028091370190913801039764
:1024B0000CF0A7C0CE9B02C0869907C081E090E0D7
:1024C000909326018093250104C01092260110925A
:1024D00025010E949B051092220110922101AC9AC5
:1024E000AD9AAE9AAF9A10922A01109229011092D9
:1024F0002C0110922B012091230130912401809115
:10250000270190912801281B390B30932E0120932D
:102510002D01809125019091260181309105A9F42A
:10252000121613060CF04BC080E090E061E070E002
:102530004FEA50E00E94CC0284E590E064E570E050
:1025400044E550E024E530E04CC0892B09F053C04D
:1025500012161306CCF480E090E061E070E04FEBDF
:1025600050E00E94CC0286E490E064E570E044E52F
:1025700050E024E530E00E94670684E090E060E0EF
:1025800070E04AEC50E035C0232BA9F580E090E0E4
:1025900061E070E04FEC50E00E94CC0286E490E0F5
:1025A00064E570E044E550E026E430E00E94670610
:1025B00084E090E060E070E04AED50E01AC0232B28
:1025C000D1F480E090E061E070E04FED50E00E94D7
:1025D000CC0284E590E064E570E044E550E026E458
:1025E00030E00E94670684E090E060E070E04AEB33
:1025F00050E00E94CC0210922E0110922D010E94F8
:10260000D1050895EF92FF920F931F93CF93DF931D
:102610000E944F0481E060E00E94FF0120E030E072
:1026200046E40EC04083418342834383019634963F
:1026300080319105B9F72F5F3F4F2031310559F0B7
:10264000F90166E0EE0FFF1F6A95E1F7E15CFC4FD0
:1026500080E090E0E7CF81E060E00E94FF018BEE38
:1026600090E00E94570280E090E061E070E04AEF65
:1026700050E00E94CC0284E566E446E426E40E9431
:1026800067068399C0C110923801109237011BC0B0
:102690000E94EF0485B3807F85BB85B390911C01B8
:1026A000892B85BBCF9902C00E94E0110E9442088D
:1026B0000E94C60880912B0190912C010196909365
:1026C0002C0180932B018091370190913801039761
:1026D000FCF2AC9AAD9AAE9AAF9A0E940F09109292
:1026E00032011092310110923401109233010E9494
:1026F000AB0960911A0170911B0140913101509119
:102700003201209133013091340180911801909170
:1027100019010E94F90D0E94D80B109240071092E7
:102720003F070E948610C5E4D7E028813981211532
:10273000310521F48A819B81892B51F06A817B814B
:10274000C9010E94DA0F249687E0C138D80769F7DB
:102750000091180110911901C0911A01D0911B012B
:10276000F80154E0EE0FFF1F5A95E1F7EC0FFD1F43
:10277000EE0FFF1FEE0FFF1FE15CFC4F80818435E1
:1027800059F4BE016F5F7F4FC8010E943806892B44
:1027900019F082E090E051C0F80134E0EE0FFF1F25
:1027A0003A95E1F7EC0FFD1FEE0FFF1FEE0FFF1F35
:1027B000E15CFC4F8181843551F4C8010196BE0172
:1027C0000E943806892B19F081E090E036C0F801AC
:1027D00094E0EE0FFF1F9A95E1F7EC0FFD1FEE0F4F
:1027E000FF1FEE0FFF1FEF5BFC4F8081843559F414
:1027F000BE0161507040C8010E943806892B19F053
:102800008EEF9FEF1AC0F801B4E0EE0FFF1FBA95EC
:10281000E1F7EC0FFD1FEE0FFF1FEE0FFF1FE15C56
:10282000FC4F8381843571F4C8010197BE010E9479
:102830003806892B39F08FEF9FEF0E941A0F02C0E4
:102840000E94EF04CC9BFCCF879BFACFAC9AAD9A49
:10285000AE9AAF9A1092300110922F0110922C0173
:1028600010922B0110923601109235010CCFCE013F
:102870000E94CF18F80191838083CE0102960E94B6
:10288000CF18F8019383828324960C5F1F4FCC33BB
:10289000D10569F781E060E00E94FF0140914507A2
:1028A0005091460780E090E060E070E021E030E089
:1028B0000E94D702409147075091480781E090E07D
:1028C00060E070E021E030E00E94D70240914907CB
:1028D00050914A0783E090E060E070E021E030E052
:1028E0000E94D70240914B0750914C0784E090E042
:1028F00060E070E021E030E00E94D70240914D0797
:1029000050914E0786E090E060E070E021E030E01A
:102910000E94D70240914F075091500787E090E006
:1029200060E070E021E030E00E94D7024091510762
:102930005091520789E090E060E070E021E030E0E3
:102940000E94D70240915307509154078AE090E0CB
:1029500060E070E021E030E00E94D702409155072E
:10296000509156078CE090E060E070E021E030E0AC
:102970000E94D70240915707509158078DE090E090
:1029800060E070E021E030E00E94D70240915907FA
:1029900050915A0780E090E061E070E021E030E083
:1029A0000E94D70240915B0750915C0781E090E064
:1029B00061E070E021E030E00E94D70282992DC0F2
:1029C00081E060E00E94FF0181E090E00E947700DA
:1029D000F701208131812115310529F4828193810C
:1029E000892B09F44ECEF70162817381C9010E94DF
:1029F000DA0F84E090E0E80EF91E91E8E91697E01E
:102A0000F90631F73ECE80993CCE75E4E72E77E0AB
:102A1000F72E8701C0E0D0E02ACF809BD1CF819BE9
:102A2000CFCF839BCDCFCACFEF92FF920F931F934F
:102A3000CF93DF935FE8E52E51E0F52EAC9AAD9A87
:102A4000AE9AAF9A60911A0170911B0140913101C9
:102A5000509132012091330130913401809118015D
:102A6000909119010E94F90D0E94D80B1092400715
:102A700010923F070E948610C5E4D7E02881398173
:102A80002115310521F48A819B81892B51F06A81BE
:102A90007B81C9010E94DA0F249687E0C138D807EC
:102AA00069F70091180110911901C0911A01D09194
:102AB0001B01F80144E0EE0FFF1F4A95E1F7EC0F10
:102AC000FD1FEE0FFF1FEE0FFF1FE15CFC4F80812B
:102AD000843559F4BE016F5F7F4FC8010E943806EC
:102AE000892B19F082E090E051C0F80124E0EE0F4C
:102AF000FF1F2A95E1F7EC0FFD1FEE0FFF1FEE0FF2
:102B0000FF1FE15CFC4F8181843551F4C8010196BF
:102B1000BE010E943806892B19F081E090E036C092
:102B2000F80184E0EE0FFF1F8A95E1F7EC0FFD1F1F
:102B3000EE0FFF1FEE0FFF1FEF5BFC4F8081843510
:102B400059F4BE0161507040C8010E943806892BBB
:102B500019F08EEF9FEF1AC0F801A4E0EE0FFF1FEF
:102B6000AA95E1F7EC0FFD1FEE0FFF1FEE0FFF1F01
:102B7000E15CFC4F8381843571F4C8010197BE018B
:102B80000E943806892B39F08FEF9FEF0E941A0FB1
:102B900002C00E94EF04CC9BFCCF879BFACFAC9A7B
:102BA000AD9AAE9AAF9A1092300110922F01109206
:102BB0002C0110922B0110923601109235011092C7
:102BC0003801109237011BC00E94EF0485B3807F4B
:102BD00085BB85B390911C01892B85BBCF9902C021
:102BE0000E94E0110E9442080E94C60880912B01B9
:102BF00090912C01019690932C0180932B01809150
:102C00003701909138010397FCF2FBBCEABCF9BC98
:102C1000E8BCAC9AAD9AAE9AAF9A0E940F09109296
:102C200032011092310110923401109233010E944E
:102C3000AB098091310190913201892B09F0FECED0
:102C40008091330190913401892B09F0F7CEDF9107
:102C5000CF911F910F91FF90EF90089580E090E049
:102C60000E94C7188093810781E090E00E94C718F6
:102C70008093820782E090E00E94C71880938307C8
:102C800083E090E00E94C718809384070895CF9353
:102C9000DF93209185078091410790E0820F911D7D
:102CA00095958795809381072091860780914207AB
:102CB00090E0820F911D95958795809382072091D2
:102CC00087078091430790E0820F911D9595879526
:102CD00080938307209188078091440790E0820FBA
:102CE000911D9595879580938407C0E0D0E0FE0103
:102CF000EF57F84FCE0160810E94D5182196C4305D
:102D0000D105A9F7DF91CF9108955058BB27AA2785
:102D10000ED075C166D130F06BD120F031F49F3FF9
:102D200011F41EF45BC10EF4E095E7FB51C1E92FED
:102D300077D180F3BA17620773078407950718F0F5
:102D400071F49EF58FC10EF4E0950B2EBA2FA02DD5
:102D50000B01B90190010C01CA01A0011124FF2748
:102D6000591B99F0593F50F4503E68F11A16F04043
:102D7000A22F232F342F4427585FF3CF4695379542
:102D80002795A795F0405395C9F77EF41F16BA0B07
:102D9000620B730B840BBAF09150A1F0FF0FBB1FB5
:102DA000661F771F881FC2F70EC0BA0F621F731FFE
:102DB000841F48F4879577956795B795F7959E3F5B
:102DC00008F0B3CF9395880F08F09927EE0F9795E9
:102DD00087950895D9D008F481E008950CD00FC1EB
:102DE00007D140F0FED030F021F45F3F19F0F0C081
:102DF000511139C1F3C014D198F39923C9F3552364
:102E0000B1F3951B550BBB27AA27621773078407DD
:102E100038F09F5F5F4F220F331F441FAA1FA9F393
:102E200033D00E2E3AF0E0E830D091505040E69585
:102E3000001CCAF729D0FE2F27D0660F771F881FE6
:102E4000BB1F261737074807AB07B0E809F0BB0BD5
:102E5000802DBF01FF2793585F4F2AF09E3F5105F9
:102E600068F0B6C000C15F3FECF3983EDCF3869596
:102E700077956795B795F7959F5FC9F7880F911D6F
:102E80009695879597F90895E1E0660F771F881F5B
:102E9000BB1F621773078407BA0720F0621B730B0E
:102EA000840BBA0BEE1F88F7E095089504D0689460
:102EB000B111D9C00895BCD088F09F5790F0B92FB8
:102EC0009927B751A0F0D1F0660F771F881F991F7F
:102ED0001AF0BA95C9F712C0B13081F0C3D0B1E091
:102EE0000895C0C0672F782F8827B85F39F0B93FA1
:102EF000CCF3869577956795B395D9F73EF4909581
:102F00008095709561957F4F8F4F9F4F0895E894FE
:102F100009C097FB3EF490958095709561957F4F21
:102F20008F4F9F4F9923A9F0F92F96E9BB279395CF
:102F3000F695879577956795B795F111F8CFFAF4DF
:102F4000BB0F11F460FF1BC06F5F7F4F8F4F9F4F10
:102F500016C0882311F096E911C0772321F09EE86E
:102F6000872F762F05C0662371F096E8862F70E0D4
:102F700060E02AF09A95660F771F881FDAF7880FAE
:102F80009695879597F90895990F0008550FAA0B04
:102F9000E0E8FEEF16161706E807F907C0F012166C
:102FA0001306E407F50798F0621B730B840B950B6F
:102FB00039F40A2661F0232B242B252B21F40895C4
:102FC0000A2609F4A140A6958FEF811D811D089561
:102FD00097F99F6780E870E060E008959FEF80ECCC
:102FE000089500240A94161617061806090608956F
:102FF00000240A9412161306140605060895092ED5
:103000000394000C11F4882352F0BB0F40F4BF2B43
:1030100011F460FF04C06F5F7F4F8F4F9F4F089583
:1030200057FD9058440F551F59F05F3F71F0479579
:10303000880F97FB991F61F09F3F79F0879508955E
:10304000121613061406551FF2CF4695F1DF08C07D
:10305000161617061806991FF1CF8695710561059A
:1030600008940895E894BB2766277727CB0197F942
:1030700008958ADF08F48FEF08950BD0C0CFB1DF39
:1030800028F0B6DF18F0952309F0A2CFA7CF1124BE
:10309000EACFC6DFA0F3959FD1F3950F50E0551FFF
:1030A000629FF001729FBB27F00DB11D639FAA279D
:1030B000F00DB11DAA1F649F6627B00DA11D661FEC
:1030C000829F2227B00DA11D621F739FB00DA11D0D
:1030D000621F839FA00D611D221F749F3327A00DC7
:1030E000611D231F849F600D211D822F762F6A2F63
:1030F00011249F5750408AF0E1F088234AF0EE0FE8
:10310000FF1FBB1F661F771F881F91505040A9F7F4
:103110009E3F510570F05CCFA6CF5F3FECF3983E29
:10312000DCF3869577956795B795F795E7959F5F5B
:10313000C1F7FE2B880F911D9695879597F90895F5
:1031400097FB092E07260AD077FD04D00CD006D0B5
:1031500000201AF4709561957F4F0895F6F79095C9
:1031600081959F4F0895AA1BBB1B51E107C0AA1F61
:10317000BB1FA617B70710F0A61BB70B881F991F18
:103180005A95A9F780959095BC01CD010895E199D4
:10319000FECF9FBB8EBBE09A99278DB30895A8E11F
:1031A000B0E042E050E00C94E918262FE199FECF00
:1031B0009FBB8EBB2DBB0FB6F894E29AE19A0FBE6F
:1031C000019608950E94D518272F0C94D618DC017B
:1031D000CB01FC01E199FECF06C0FFBBEEBBE09A3C
:1031E00031960DB20D9241505040B8F70895F894C1
:0231F000FFCF0F
:1031F20046696C6C6961626C650042726F6B652036
:1032020070617468200042726F6B65206275696C30
:1032120064006D783A20006D793A2000783A2000F7
:10322200793A2000507265737320416E79204B65A4
:10323200790053746F72656420496E204550002BEB
:1032420020446574656374656400545454460054A4
:103252002044657465637465640046545454004C9C
:103262002044657465637465640046545446007C6A
:103272002D20446574656374656400443320666F71
:1032820072206472792072756E00443020666F720B
:103292002053747374207061746800FF0000007022
:0C32A2004166664640730200070007000A
:00000001FF
