:100000000C942A000C9447000C9447000C94470071
:100010000C9447000C9447000C9447000C94470044
:100020000C9447000C9447000C9447000C94470034
:100030000C9447000C9447000C9447000C94470024
:100040000C9447000C9447000C9447000C94470014
:100050000C94470011241FBECFE5D8E0DEBFCDBF12
:1000600010E0A0E6B0E0EEE3F3E302C005900D92ED
:10007000AE3FB107D9F717E0AEEFB0E001C01D9277
:10008000A937B107E1F70E944A130C949D190C940B
:1000900000008FEF8BBB1ABA88BB17BA15BA84BBA6
:1000A00082BB11BA08958C9A8D9A1EBC1DBC1CBCD3
:1000B0001BBC1ABC19BC18BC81E087BD8FE886BD8B
:1000C00082EA8FBD89E18EBD08951ABA16B880E61E
:1000D00087B987E886B980E888B9089515B8877028
:1000E000806687B9369A3699FECF85B10895AC01FE
:1000F00030E060E971E00CC0FB013197F1F7019746
:10010000D9F72F5F243019F084EC99E0F5CF3F5FE9
:10011000832F90E08417950714F420E0F5CF08951D
:10012000AF92BF92CF92DF92EF92FF920F931F9305
:10013000AA2797FDA095BA2FBC01CD010E942F18C8
:100140005B016C0120E030E04AE755E40E94E318CF
:100150007B018C0120E030E040E85FE30E949017D3
:1001600088231CF461E070E024C0C801B70120E0DE
:100170003FEF4FE757E40E94DF181816B4F4C601AA
:10018000B50120E030E040E251E40E94E3180E9413
:10019000011880E991E005C0FC013197F1F7615049
:1001A000704061157105C1F707C0C801B7010E9411
:1001B0000118CB010197F1F71F910F91FF90EF907C
:1001C000DF90CF90BF90AF900895AF92BF92CF9243
:1001D000DF92EF92FF920F931F93AA2797FDA095AE
:1001E000BA2FBC01CD010E942F185B016C012BEAD4
:1001F0003AEA4AEA50E40E94E3187B018C0120E0CD
:1002000030E040E85FE30E949017882314F461E037
:1002100054C0C801B70120E030E04FE753E40E942A
:10022000DF1818160CF045C0C601B50120E030E01B
:100230004AE754E40E9494175B016C0120E030E02F
:100240004AE755E40E94E3187B018C0120E030E08E
:1002500040E85FE30E94901788231CF461E070E09F
:1002600024C0C801B70120E03FEF4FE757E40E94E8
:10027000DF181816B4F4C601B50120E030E040E202
:1002800051E40E94E3180E94011880E991E005C042
:10029000FC013197F1F76150704061157105C1F7AC
:1002A0000EC0C801B7010E940118CB010197F1F7F8
:1002B00006C0C801B7010E9401186A95F1F71F91A5
:1002C0000F91FF90EF90DF90CF90BF90AF90089587
:1002D0000F931F93CF93DF931092FE00C0E0D0E006
:1002E00001E010E08C2F0E946E00863460F49801CB
:1002F0000C2E02C0220F331F0A94E2F78091FE00F9
:10030000822B8093FE002196C430D10559F7DF91EE
:10031000CF911F910F91089580E00E946E0080930D
:10032000290781E00E946E0080932A0782E00E94E4
:100330006E0080932B0783E00E946E0080932C0751
:10034000089580E00E946E0080936D0781E00E9416
:100350006E0080936E0782E00E946E0080936F07AC
:1003600083E00E946E008093700708951F93CF93DF
:10037000DF93C0E0D0E01FEF15BB84E690E00E9461
:10038000900015BA84E690E00E9490002196C53056
:10039000D10591F7DF91CF911F9108959BBD8ABD43
:1003A000089599BD88BD089587B3807F87BBC69A9D
:1003B000C59882E08A95F1F722E035E0C79A822F4E
:1003C0008A95F1F786B38295807F922F9A95F1F7FF
:1003D000C798932F9A95F1F7C79A922F9A95F1F7AC
:1003E00096B3922F9A95F1F7C798932F9A95F1F7B4
:1003F00087FDE4CFC69887B38F6087BB0895282F09
:10040000662311F4C59801C0C59A82E08A95F1F778
:10041000C79A88B3922F92959F70807F982B98BB34
:1004200095E0892F8A95F1F7C798892F8A95F1F77A
:10043000C79A88B32F70807F822B88BB892F8A95BB
:10044000F1F7C7989A95F1F70E94D40108951F9388
:10045000182F8CE291E020E931E0F9013197F1F7B2
:100460000197D9F787B38F6087BBBF9ABD9ABE9AB1
:1004700088B3807F88BBC798C698C59881E08A9565
:10048000F1F7C79AC19A85E0982F9A95F1F7C79826
:100490008A95F1F70E94D401812F8C6060E00E9460
:1004A000FF0188E260E00E94FF011F910895CF9351
:1004B000DF93EC0104C061E00E94FF012196888176
:1004C0008823C9F7DF91CF910895EF92FF920F93A0
:1004D0001F93DF93CF9300D000D00F92CDB7DEB73C
:1004E0009C018B01FE01319685E0DF011D928A950A
:1004F000E9F7FE0135960DC0C9016AE070E00E947F
:1005000046198083C9016AE070E00E9446199B0188
:1005100031972115310581F7BFEF0F3F1B0779F4A4
:1005200020E030E0AE014F5F5F4F02C02F5F3F4FD2
:10053000FA01E20FF31F80818823C1F304C025E094
:1005400030E0201B310B7E010894E11CF11CE20E0F
:10055000F31E890109C0F70181917F01805D61E08F
:100560000E94FF010F5F1F4F05301105A4F30F908C
:100570000F900F900F900F90CF91DF911F910F91DF
:10058000FF90EF900895883230F4611180648068A4
:1005900060E00E94FF0108950F931F938A010E945B
:1005A000C302C8010E9457021F910F910895EF9254
:1005B000FF920F931F938A0179010E94C302C80121
:1005C000B7010E9465021F910F91FF90EF9008956F
:1005D0001AB81BB887E080BD87E689B910BC88E9E6
:1005E0008AB908955D9BFECF8CB90895FC0104C0C3
:1005F0005D9BFECF8CB9319680818823C9F7089521
:100600005D9BFECF8AE08CB95D9BFECF8DE08CB9FF
:1006100008955F9BFECF8CB108958FEF84BB089542
:10062000AC9AAD98AE98AF980895AC98AD9AAE9844
:10063000AF980895AC98AD98AE9AAF980895AC98DD
:10064000AD98AE9AAF980895AC9AAD98AE98AF9821
:100650000895AC98AD98AE98AF9A0895AC9AAD98BD
:10066000AE9AAF980895AC98AD9AAE98AF9A0895A7
:10067000AC98AD9AAE9AAF980895AC9AAD98AE98F2
:10068000AF9A0895AC98AD98AE98AF980895AC9A8B
:10069000AD9AAE9AAF9A089582B38F6082BB81B350
:1006A000807F81BB089520B330E020953095217084
:1006B0003070C901089520B330E036952795209514
:1006C000309521703070C901089520B330E036951F
:1006D0002795369527952095309521703070C90162
:1006E000089520B330E043E0369527954A95E1F729
:1006F0002095309521703070C90108956F927F92D6
:100700008F929F92AF92BF92CF92DF92EF92FF9221
:100710000F931F93AC9AAD98AE9AAF988091FE005C
:10072000863091F1873060F48230B1F0833018F474
:100730008130C1F531C08330A9F0843099F509C00A
:10074000883039F18830A0F08C3049F08E3051F586
:100750000CC081E090E022C08FEF9FEF1FC083E0CC
:1007600090E01CC08DEF9FEF05C084E090E016C0C4
:100770008CEF9FEF909300018093FF0080910B011D
:1007800090910C01019771F4109200011092FF00FA
:1007900009C086E090E002C08AEF9FEF90930001CD
:1007A0008093FF006091FF0070910001882777FD22
:1007B0008095982F0E942F185B016C016091710742
:1007C000709172078091730790917407A60195014B
:1007D0000E942B177B018C0160937507709376073D
:1007E0008093770790937807C601B5012091EF00B9
:1007F0003091F0004091F1005091F2000E94E31816
:100800003B014C01C801B7012091F3003091F40085
:100810004091F5005091F6000E94E3189B01AC0155
:10082000C401B3010E942B177B018C01609323014B
:10083000709324018093250190932601A092710763
:10084000B0927207C0927307D09274076091ED0066
:100850007091EE0080E090E00E942D185B016C0129
:10086000A80197010E942B170E94FC177BBD6ABD4F
:10087000C601B501A80197010E942C170E94FC1720
:1008800079BD68BD1F910F91FF90EF90DF90CF90E1
:10089000BF90AF909F908F907F906F9008950E942F
:1008A00049001ABA16B880E687B987E886B980E8A1
:1008B00088B98FEF84BB82E00E94270282B38F60E9
:1008C00082BB81B3807F81BB0E945300089585E77E
:1008D0008093F70020EF30E082E291E008C03BBD5A
:1008E0002ABD99BD88BDAC98AD9AAE9AAF98CD9906
:1008F000F6CF09C03BBD2ABD99BD88BDAC98AD9A65
:10090000AE9AAF9804C029EB30E087ED90E0CE9B23
:1009100002C08699EFCF8FE891E09BBD8ABD99BD5B
:1009200088BDAC9AAD9AAE9AAF9A82E390E00E94ED
:1009300090000895CC9916C0809103019091040114
:10094000892BA1F480910501909106010196909365
:1009500006018093050181E090E09093040180936B
:100960000301089510920401109203010895CD9B94
:1009700006C080910B0190910C01019779F581E0FF
:1009800090E090930C0180930B01CC9927C0869B3B
:1009900014C0CE9B12C008953BBD2ABD39BD28BDF1
:1009A000AC9AAD98AE9AAF9880E090E0879909C074
:1009B000AC9AAD9AAE9AAF9A04C081E090E020EF75
:1009C00030E0CC9B05C090930C0180930B010895FF
:1009D0008799E2CF90930C0180930B0108950E94B8
:1009E0006801AC9AAD98AE9AAF98CE9B0BC0869931
:1009F00009C08091ED009091EE004E979BBD8ABD9D
:100A0000CC961EC0869B0BC0CE9909C08091ED008C
:100A10009091EE004E969BBD8ABDCC9711C0869BEF
:100A200005C0CE9B03C00E947E030CC086990AC0FD
:100A3000CE9908C08091ED009091EE009BBD8ABDDB
:100A400099BD88BD8AE090E00E94E500089585E7A1
:100A50008093F70024E031E088E191E008C03BBDDD
:100A60002ABD99BD88BDAC98AD9AAE9AAF98CD9B82
:100A7000F6CFCE9BFECF869BFCCFCD99FECF09C093
:100A80009BBD8ABD99BD88BDAC98AD9AAE9AAF9812
:100A900002C082ED90E0CE9B05C08699F1CF02C0E6
:100AA0000E94EF04CC9BFCCF879BFACF8FE891E0AC
:100AB0009BBD8ABD99BD88BDAC9AAD9AAE9AAF9ADE
:100AC00082E390E00E94900008958CE68093F70006
:100AD00085EF90E008C09BBD8ABD99BD88BDAC98EC
:100AE000AD9AAE9AAF98CD99F6CF09C09BBD8ABD9D
:100AF00099BD88BDAC98AD9AAE9AAF9802C080EF10
:100B000090E0CE9B05C08699F1CF02C00E94EF0411
:100B1000CC9BFCCF879BFACF8FE891E09BBD8ABD31
:100B200099BD88BDAC9AAD9AAE9AAF9A82E390E037
:100B30000E9490000895CF93DF9382E78093F7009F
:100B4000C5EFD0E00AC0DBBDCABDD9BDC8BDAC9AF7
:100B5000AD98AE98AF9A0E949A04CF99F4CF0BC08B
:100B6000DBBDCABDD9BDC8BDAC9AAD98AE98AF9A31
:100B70000E949A0402C0C0EFD0E0CE9B05C08699C7
:100B8000EFCF02C00E94EF04CC9BFCCF879BFACF33
:100B90008FE891E09BBD8ABD99BD88BDAC9AAD9AA6
:100BA000AE9AAF9A82E390E00E949000DF91CF91DD
:100BB00008958091F7008237D1F48091F8009091E8
:100BC000F9002FEF8F3F920759F12FEF8F3F9207D8
:100BD00009F02CF48E5F9F4F09F051C03DC0813069
:100BE000910509F43FC0029709F049C038C08C361E
:100BF000D1F48091F8009091F9002FEF8F3F920788
:100C000089F12FEF8F3F920709F024F48E5F9F4FF9
:100C1000B1F525C08130910519F0029781F51CC00E
:100C200082E090E021C0853751F58091F8009091E5
:100C3000F9002FEF8F3F920791F02FEF8F3F920730
:100C400009F024F48E5F9F4FD1F413C081309105D9
:100C500019F00297A1F406C08FEF9FEF05C081E065
:100C600090E002C08EEF9FEF9093F9008093F80020
:100C7000089582E090E09093F9008093F800089541
:100C8000FC01A4E0EE0FFF1FAA95E1F7E60FF71FA6
:100C9000DF01AA0FBB1FAA0FBB1FA95DBC4F8C9120
:100CA0008634C9F411968C9111978634A1F4EE0F15
:100CB000FF1FEE0FFF1FE75DFC4F8081863459F464
:100CC00090E013968C91863409F091E081E09827AA
:100CD000292F30E002C020E030E0C9010895CF9212
:100CE000DF92EF92FF920F931F93CF93DF93F82E33
:100CF000E62ED42EC22EC091FA00D091FB000091B6
:100D0000FC001091FD00CE01B8010E944006892B25
:100D100009F47AC08091F8009091F9002FEF8F3F8D
:100D2000920709F459C02FEF8F3F920709F02CF476
:100D30008E5F9F4F09F068C039C081309105E1F0A6
:100D4000029709F061C0FE01B4E0EE0FFF1FBA95F3
:100D5000E1F7E00FF11FEE0FFF1FEE0FFF1FDF01A6
:100D6000A95DBC4FFC921196EC921197E75DFC4F88
:100D7000D0821396CC9248C0FE0164E0EE0FFF1FB4
:100D80006A95E1F7E00FF11FEE0FFF1FEE0FFF1F57
:100D9000DF01A95DBC4F1196FC921197E75DFC4FF6
:100DA000E0821396DC921397CC922EC0FE0134E0C1
:100DB000EE0FFF1F3A95E1F7E00FF11FEE0FFF1F57
:100DC000EE0FFF1FDF01A75DBC4FFC92E95DFC4FFA
:100DD000E382D082C18218C0FE0184E0EE0FFF1FC3
:100DE0008A95E1F7E00FF11FEE0FFF1FEE0FFF1FD7
:100DF000DF01A95DBC4F1396FC921397EC921196FC
:100E0000DC92E75DFC4FC082DF91CF911F910F9183
:100E1000FF90EF90DF90CF90089580911501909111
:100E200016018230910509F0A7C08091F8009091D9
:100E3000F9002FEF8F3F9207A1F12FEF8F3F92071D
:100E400009F02CF48E5F9F4F09F003C171C081300F
:100E5000910521F0029709F0FCC046C08091FA008C
:100E60009091FB0001969093FB008093FA0084E53B
:100E700090E066E470E044E550E026E430E00E9453
:100E80006F068091FA009091FB0001969093FB0011
:100E90008093FA006091FC007091FD000E94400672
:100EA000C8C08091FA009091FB0001979093FB00DD
:100EB0008093FA0084E590E066E470E044E550E059
:100EC00026E430E00E946F068091FA009091FB00CA
:100ED00001979093FB008093FA006091FC00709161
:100EE000FD000E944006A5C08091FC009091FD008D
:100EF00001969093FD008093FC0084E590E066E409
:100F000070E044E550E026E430E00E946F06609116
:100F1000FC007091FD006F5F7F4F7093FD00609348
:100F2000FC008091FA009091FB000E94400681C075
:100F30008091FC009091FD0001979093FD008093BB
:100F4000FC0084E590E066E470E044E550E026E4CF
:100F500030E00E946F066091FC007091FD006150CE
:100F600070407093FD006093FC008091FA009091B6
:100F7000FB000E9440065DC0019709F06AC08091A5
:100F8000F8009091F9002FEF8F3F920709F12FEFB2
:100F90008F3F920709F02CF48E5F9F4F09F059C0E4
:100FA00038C08130910521F0029709F052C020C06D
:100FB0008091FA009091FB0001969093FB00809342
:100FC000FA006091FC007091FD000E94400631C063
:100FD0008091FA009091FB0001979093FB00809321
:100FE000FA006091FC007091FD000E94400621C053
:100FF0006091FC007091FD006F5F7F4F7093FD006A
:101000006093FC008091FA009091FB000E944006E2
:1010100010C06091FC007091FD00615070407093B1
:10102000FD006093FC008091FA009091FB000E940B
:101030004006892B51F480911D0190911E0101966B
:1010400090931E0180931D0104C010921E01109206
:101050001D0181E060E00E94FF014091FA00509183
:10106000FB0084E090E060E070E022E030E00E946D
:10107000D7024091FC005091FD0088E090E060E0D4
:1010800070E022E030E00E94D70210921601109228
:1010900015010895CF93DF93CD992AC0C1E0D0E028
:1010A000D0930C01C0930B0180910D0190910E0122
:1010B000815D97405CF081E060E00E94FF0182E08A
:1010C00090E0909316018093150108C081E060E0E4
:1010D0000E94FF01D0931601C093150180910D016C
:1010E00090910E01892B21F4109216011092150196
:1010F000CE9B02C086991DC0CC9B06C080911B016F
:1011000090911C010197A9F4AC9AAD9AAE9AAF9A4E
:101110000E940D0784E590E066E470E044E550E04D
:1011200024E530E00E946F0610920E0110920D012E
:101130002EC0CC9B06C080911B0190911C01019791
:1011400051F5CE9B28C0869B26C00E940D071092A9
:101150000E0110920D0180911D0190911E010497C6
:10116000D4F40E94650586E490E066E470E044E50E
:1011700050E024E530E00E946F06AC9AAD9AAE9A3A
:10118000AF9A0E94D90510920C0110920B01109297
:101190001C0110921B010E94B704DF91CF910895AA
:1011A000CE9B35C0869B33C08091FE00833041F0DA
:1011B0008C3031F0843021F0823011F08630F9F437
:1011C00080910B0190910C01892B09F580910D0103
:1011D00090910E012091150130911601815D97408B
:1011E0002CF0232BA1F482E090E004C0232B79F4AF
:1011F00081E090E0909316018093150108C081E092
:1012000060E00E94FF0180E690E00E94570280911A
:10121000FE00882371F5CC9B2CC0CD9B2AC0CE9BB1
:1012200028C0CF9B26C0869B24C0879B22C080916C
:101230000B0190910C01892BE1F4AC9AAD9AAE9A16
:10124000AF9A0E940D0786E490E066E470E044E502
:1012500050E026E430E00E946F060E9467040E947E
:10126000D90510920C0110920B0110920E011092F0
:101270000D0108956F927F928F929F92BF92CF92AD
:10128000DF92EF92FF920F931F93CF93DF9381E052
:10129000E82EF12C06E4B02E65C0C701B8010E940B
:1012A0004006892B09F44CC081E060E00E94FF01F8
:1012B000C301B8010E944006892B09F041C0C40156
:1012C000B8010E944006892BD9F5B80161507040E1
:1012D000C7010E944006892B99F5B8016F5F7F4FC7
:1012E000C7010E944006892B59F581E060E00E9409
:1012F000FF018EE690E00E94570280ED97E00E9489
:101300009000CD5BDF4F8881C354D040843511F409
:10131000898301C0B982EF978881EF96843511F4F3
:101320008B8301C0BB828E81843511F4888301C018
:10133000B882F6018081843511F48A8301C0BA82B3
:101340000F5F1F4F85E090E0C80ED91E24960F3026
:10135000110509F0A2CF0894E11CF11C9FE0E916E9
:10136000F104B1F0670116E0CC0CDD1C1A95E1F731
:10137000EBE2F3E0CE0EDF1EE60101E010E0370104
:101380000894611C711C470108948108910885CF5D
:10139000DF91CF911F910F91FF90EF90DF90CF9051
:1013A000BF909F908F907F906F9008952F923F9263
:1013B0004F925F926F927F928F929F92AF92BF9265
:1013C000CF92DF92EF92FF920F931F93DF93CF9311
:1013D000CDB7DEB768970FB6F894DEBF0FBECDBFAE
:1013E000109218011092170110921A01109219010F
:1013F0008090FA009090FB00A090FC00B090FD005F
:10140000CC24DD24C818D908DE82CD82DC82CB82D0
:10141000DA82C98200E010E0222733272A193B092B
:101420003E8B2D8B90C1C8016F89788D0E9440063C
:10143000892B09F055C1F7018081843509F04AC034
:101440006F89788D6F5F7F4FC8010E944006892B9E
:1014500009F440C060911701709118016115710580
:1014600031F48091190190911A01892B49F1681981
:1014700079098091190190911A018A199B09ED85CA
:10148000FE85EE9FA001EF9F500DFE9F500D112491
:101490002F853889420F531FFC01EE9FC001EF9F3B
:1014A000900DFE9F900D1124669F9001679F300D57
:1014B000769F300D1124820F931F4817590754F45B
:1014C00010931801009317012F89388D30931A015A
:1014D00020931901F7018181843509F052C08B896D
:1014E0009C896F89788D0E944006892B09F449C038
:1014F00060911701709118016115710589F480914F
:10150000190190911A01892B59F410931801009335
:1015100017012F89388D30931A012093190131C09A
:10152000681979098091190190911A018A199B090A
:10153000669CA001679C500D769C500D1124EB8594
:10154000FC854E0F5F1F9C01229FC001239F900DC1
:10155000329F900D1124669F9001679F300D769FFA
:10156000300D1124820F931F4817590754F410931C
:101570001801009317018F89988D90931A01809319
:101580001901F7018281843509F053C06F89788D84
:1015900061507040C8010E944006892B09F449C07F
:1015A00060911701709118016115710589F480919E
:1015B000190190911A01892B59F410931801009385
:1015C00017012F89388D30931A012093190131C0EA
:1015D000681979098091190190911A018A199B095A
:1015E000449CA001459C500D549C500D1124E9854C
:1015F000FA854E0F5F1F9C01229FC001239F900D13
:10160000329F900D1124669F9001679F300D769F49
:10161000300D1124820F931F4817590754F410936B
:101620001801009317018F89988D90931A01809368
:101630001901F7018381843509F052C089899A899B
:101640006F89788D0E944006892B09F449C060910A
:101650001701709118016115710589F480911901C4
:1016600090911A01892B59F41093180100931701D6
:101670002F89388D30931A012093190131C06819D0
:1016800079098091190190911A018A199B09229C6C
:10169000A001239C500D329C500D1124EF81F88540
:1016A0004E0F5F1F9C01229FC001239F900D329F10
:1016B000900D1124669F9001679F300D769F300D2D
:1016C0001124820F931F4817590754F410931801DF
:1016D000009317018F89988D90931A0180931901B7
:1016E000EF89F88D3196F88FEF8B24E030E0E20E31
:1016F000F31E0894211C311C0894411C511C0894B1
:10170000611C711C8D859E8501969E878D877097C3
:1017100009F089CE0F5F1F4F0894C11CD11CED81C9
:10172000FE813196FE83ED832B813C812F5F3F4FFD
:101730003C832B8389819A8101969A838983003126
:10174000110509F447C0CC9CF001CD9CF00DDC9C48
:10175000F00D1124F88BEF878D819E81889F900179
:10176000899F300D989F300D11243C872B872B814A
:101770003C81229FF001239FF00D329FF00D112438
:10178000FA87E987E981FA81EE9FC001EF9F900D0A
:10179000FE9F900D112498878F83780196E0EE0CC0
:1017A000FF1C9A95E1F727E233E0E20EF31E8D89E4
:1017B0009E899E878D871C012C013C01188E1F8AF3
:1017C000F8013197FA8BE98B98012F5F3F4F3C8BE3
:1017D0002B8B29CE68960FB6F894DEBF0FBECDBF17
:1017E000CF91DF911F910F91FF90EF90DF90CF90FD
:1017F000BF90AF909F908F907F906F905F904F9031
:101800003F902F9008958F929F92AF92BF92CF9268
:10181000DF92EF92FF920F931F93CF93DF9340914C
:10182000FC005091FD006091FA007091FB000DE208
:1018300017E0F8011182108213821282349687E039
:10184000E936F807B9F7CBC16B010894C11CD11C6C
:10185000960184E0220F331F8A95E1F7240F351F8C
:101860007901EE0CFF1CF701E95DFE4F808091804D
:101870008A149B040CF059C0AA0FBB1FAA0FBB1FF0
:10188000A95DBC4F11968C91843509F04EC0E901D9
:10189000CC0FDD1FCC0FDD1FC95DDC4F8B81843584
:1018A00009F043C06F3071050CF03FC0F801D182E0
:1018B000C08253834283B6016F5F7F4FDB0194E0A8
:1018C000AA0FBB1F9A95E1F7A40FB51FFD01EE0FFC
:1018D000FF1FE95DFE4F80819181881599050CF00D
:1018E00066C1AA0FBB1FAA0FBB1FA95DBC4F1396F1
:1018F0008C91843509F05BC18881863409F057C129
:101900008981843509F053C1EE0CFF1C89E293E014
:10191000E80EF91EF7018081863409F048C1FFE026
:10192000CF16D1040CF043C176C06B010894C108F6
:10193000D108960194E0220F331F9A95E1F7240F06
:10194000351F7901EE0CFF1CF701E95DFE4F808029
:1019500091808A149B040CF062C0FB01B4E0EE0F8E
:10196000FF1FBA95E1F7E40FF51FEE0FFF1FEE0F13
:10197000FF1FE95DFC4F8381843509F050C0E90108
:10198000CC0FDD1FCC0FDD1FC95DDC4F8981843595
:1019900009F045C0161617060CF041C0F801D182B7
:1019A000C08253834283B60161507040DB0124E062
:1019B000AA0FBB1F2A95E1F7A40FB51FFD01EE0F7B
:1019C000FF1FE95DFE4F80819181881599050CF01C
:1019D000EEC0AA0FBB1FAA0FBB1FA95DBC4F11967B
:1019E0008C91843509F0E3C08881863409F0DFC02A
:1019F000EE0CFF1C89E293E0E80EF91EF7018081EE
:101A0000863409F0D4C08B81843509F0D0C01C1411
:101A10001D040CF0CCC0F80171836083CDC0EA01D5
:101A200021969B01F4E0220F331FFA95E1F769013B
:101A3000CC0EDD1ED601AA0FBB1FFD01E95DFE4FD6
:101A4000E080F180EA14FB040CF04DC0F901E40FD2
:101A5000F51FEE0FFF1FEE0FFF1FE95DFC4F8081AA
:101A6000843509F040C0AA0FBB1FA75DBC4F8C9105
:101A70008435C9F54F305105B4F5F80171836083A1
:101A8000D383C283AE014F5F5F4FD901A40FB51F4F
:101A9000AA0FBB1FFD01E95DFE4F808191818E156C
:101AA0009F050CF086C0AA0FBB1FA75DBC4F8C9191
:101AB000843509F07EC0F601EE0FFF1FEE0FFF1F09
:101AC000E95DFC4F8081843509F073C081818634E3
:101AD00009F06FC08381863409F06BC0CF30D10527
:101AE0000CF067C060C07A010894E108F108DB01DE
:101AF00024E0AA0FBB1F2A95E1F7ED01CE0DDF1DF3
:101B00009E01220F331FF901E95DFE4FC080D18095
:101B1000CA14DB040CF050C0FD01E40FF51FEE0FFA
:101B2000FF1FEE0FFF1FE75DFC4F8081843509F03A
:101B300043C0CC0FDD1FCC0FDD1FC95DDC4F88819A
:101B40008435D1F514161506BCF5F8017183608350
:101B5000F382E282A70141505040A40FB51FFD015E
:101B6000EE0FFF1FE95DFE4F808191818C159D0571
:101B700014F5AA0FBB1FAA0FBB1FA95DBC4F8C9108
:101B80008435C9F489818634B1F4220F331F275D6F
:101B90003C4FF9018081843571F48B81863459F48E
:101BA0001E141F0444F4F8015383428305C0B60198
:101BB00003C0AE0101C0A7010C5F1F4FF7E00D3657
:101BC0001F0769F481E060E00E94FF0188E790E070
:101BD0000E94570282E090E00E94770013C0DB0170
:101BE00034E0AA0FBB1F3A95E1F7A40FB51FFD0122
:101BF000EE0FFF1FE95DFE4FA080B180A114B1047C
:101C000009F022CEDF91CF911F910F91FF90EF90BD
:101C1000DF90CF90BF90AF909F908F900895CF921C
:101C2000DF92EF92FF920F931F93CF93DF93EC011C
:101C3000FA0180E090E004E610E00BC00D931D93E4
:101C40004F5F5F4F40315105C9F7019680319105D3
:101C500059F0DC0145E0AA0FBB1F4A95E1F7A95DE9
:101C6000BE4F40E050E0EACF54E0EE0FFF1F5A9520
:101C7000E1F7E20FF31FEE0FFF1FE95DFE4F118248
:101C80001082EE24FF24AE0134E0440F551F3A9534
:101C9000E1F7460F571F440F551F495D5E4F90C037
:101CA00090968D919C9191978E159F0509F040C05B
:101CB0008481843551F48285843539F48881998111
:101CC0008436910511F4198308838581843571F474
:101CD000E95BFF4F8081E754F040843539F48E8D05
:101CE0009F8D8436910511F41F8F0E8F8681843568
:101CF00071F48081843559F45E968D919C915F9743
:101D00008436910521F45F961C930E935E9787812C
:101D1000843571F4FB978081FB96843549F48D916D
:101D20009C9111978436910519F411961C930E938A
:101D3000129634962296AC15BD0509F0B1CF6F5FAF
:101D40007F4F90E2C92ED12CCA0EDB1E6031710587
:101D500019F1DB0185E0AA0FBB1F8A95E1F7A95FA6
:101D6000BE4F9B01F4E0220F331FFA95E1F788275D
:101D70009927821B930B0196880F991F880F991F33
:101D8000EE27FF27E81BF90BE95DFC4FE901CC0FBB
:101D9000DD1FC75DDE4F84CF0894E11CF11C83E397
:101DA000E816F10469F481E060E00E94FF0184E834
:101DB00090E00E94570282E090E00E94770010C0FD
:101DC000FA01808191818436910551F497E2C92E00
:101DD00091E0D92E60E070E087010F5F1F4FB9CF0F
:101DE000DF91CF911F910F91FF90EF90DF90CF90F7
:101DF0000895CF93DF93EC018130910539F58091FF
:101E0000F8009091F9002FEF8F3F920749F0823050
:101E1000910509F457C08E5F9F4F09F0A3C07FC0A2
:101E2000E091FA00F091FB0024E0EE0FFF1F2A95ED
:101E3000E1F78091FC009091FD00E80FF91FEE0F93
:101E4000FF1FEE0FFF1FE95DFC4F56C0823091056A
:101E500039F58091F8009091F9002FEF8F3F9207AC
:101E600089F18130910509F45AC08E5F9F4F09F0C6
:101E700079C0E091FA00F091FB0084E0EE0FFF1FC3
:101E80008A95E1F78091FC009091FD00E80FF91F21
:101E9000EE0FFF1FEE0FFF1FE95DFC4F838158C05F
:101EA0008FEFCF3FD80751F58091F8009091F9005E
:101EB0008130910561F08230910589F18E5F9F4FED
:101EC00009F050C00E949B050E94D9054BC0E091CB
:101ED000FA00F091FB00A4E0EE0FFF1FAA95E1F7D6
:101EE0008091FC009091FD00E80FF91FEE0FFF1F9D
:101EF000EE0FFF1FE75DFC4F80812AC08FEFCE3FC2
:101F0000D80781F58091F8009091F9008130910512
:101F1000C9F28230910531F08F5F9F4F19F50E9411
:101F20006505D2CFE091FA00F091FB0064E0EE0F7E
:101F3000FF1F6A95E1F78091FC009091FD00E80F8A
:101F4000F91FEE0FFF1FEE0FFF1FE95DFC4F8181B0
:101F5000843511F40E949B050E949B05D093F900E3
:101F6000C093F800AC9AAD9AAE9AAF9ADF91CF9138
:101F700008950F931F93CF93DF93EC018B01809112
:101F8000FA009091FB008C179D07BCF41092280773
:101F90001092270781E090E00E94F90E02C00E9493
:101FA000EF04CD9B05C0CF99FACF02C00E94EF0489
:101FB000CC9B54C08799FACF51C0C817D907BCF43D
:101FC00010922807109227078FEF9FEF0E94F90EBB
:101FD00002C00E94EF04CD9B05C0CF99FACF02C08A
:101FE0000E94EF04CC9B3AC08799FACF37C080910A
:101FF000FC009091FD0086179707BCF4109228070B
:102000001092270782E090E00E94F90E02C00E9421
:10201000EF04CD9B05C0CF99FACF02C00E94EF0418
:10202000CC9B1CC08799FACF19C06817790704F5B3
:1020300010922807109227078EEF9FEF0E94F90E4B
:1020400002C00E94EF04CD9B05C0CF99FACF02C019
:102050000E94EF04CC9B02C08799FACF8FE891E0F1
:1020600099BD88BD9BBD8ABDAC9AAD9AAE9AAF9A18
:10207000D093FB00C093FA001093FD000093FC0086
:1020800081E060E00E94FF014091FA005091FB0066
:1020900080E090E061E070E022E030E00E94D70252
:1020A0004091FC005091FD0085E090E061E070E01F
:1020B00022E030E00E94D70240910D0150910E01C4
:1020C00083E090E060E070E025E030E00E94D7021D
:1020D000AC9AAD9AAE9AAF9ADF91CF911F910F91C2
:1020E0000895AF92BF92CF92DF92EF92FF920F933B
:1020F0001F93CF93DF938FE891E09BBD8ABD99BD7D
:1021000088BDAC9AAD9AAE9AAF9A81E060E00E9429
:10211000FF0120910D0130910E0187E0213D38072C
:102120001CF082E090E002C081E090E09093160104
:1021300080931501232B21F41092160110921501A2
:102140000E940D0702C00E94EF048799FCCF809186
:102150001D0190911E0104970CF091C28091050120
:102160009091060190930A018093090104C00E9496
:10217000EF040E949A048799FACFCE99B0C186994C
:10218000AEC1CD99ACC1CF99AAC1C090FA00D09090
:10219000FB00A090FC00B090FD0086E490E066E4B7
:1021A00070E044E550E026E430E00E946F0681E0F4
:1021B00060E00E94FF01AC9AAD9AAE9AAF9A0E947D
:1021C000B6010E9427050E94D9050E943A090E9483
:1021D000D60981E060E00E94FF0180E090E060E0CD
:1021E00070E040E950E00E94CC024091170150910C
:1021F000180184E090E060E070E022E030E00E94AE
:10220000D70287E090E060E070E045E950E00E948E
:10221000CC024091190150911A018BE090E060E0EE
:1022200070E022E030E00E94D70280E090E061E0C0
:1022300070E04AE950E00E94CC024091FA005091CF
:10224000FB0084E090E061E070E022E030E00E947A
:10225000D70287E090E061E070E04EE950E00E9434
:10226000CC024091FC005091FD008BE090E061E0D9
:1022700070E022E030E00E94D70280911701909137
:102280001801892B41F08091190190911A01892B35
:1022900011F00E948F1587E090E09093FB008093EF
:1022A000FA009093FD008093FC0082E090E0909310
:1022B000F9008093F80082EA90E00E945702829928
:1022C000D0C187E090E067E070E0A60195010E9430
:1022D0000F0E0E94030C3DE2E32E37E0F32E870140
:1022E000C0E0D0E0F80160817181CE010E948819C0
:1022F000F80162817381CE0102960E9488190C5FF9
:102300001F4F2496CC33D10569F781E060E00E942D
:10231000FF0180EB90E00E94570281E090E00E9474
:102320007700109228071092270781E060E00E9452
:10233000FF0180E090E060E070E0A60122E030E084
:102340000E94D70285E090E060E070E0A50122E005
:1023500030E00E94D70285E090E00E94770081E0A3
:1023600060E00E94FF0140912D0750912E0780E010
:1023700090E060E070E021E030E00E94D702409100
:102380002F075091300781E090E060E070E021E09D
:1023900030E00E94D702409131075091320783E02C
:1023A00090E060E070E021E030E00E94D7024091D0
:1023B00033075091340784E090E060E070E021E062
:1023C00030E00E94D702409135075091360786E0F1
:1023D00090E060E070E021E030E00E94D7024091A0
:1023E00037075091380787E090E060E070E021E027
:1023F00030E00E94D7024091390750913A0789E0B6
:1024000090E060E070E021E030E00E94D70240916F
:102410003B0750913C078AE090E060E070E021E0EB
:1024200030E00E94D70240913D0750913E078CE07A
:1024300090E060E070E021E030E00E94D70240913F
:102440003F07509140078DE090E060E070E021E0B0
:1024500030E00E94D702409141075091420780E04E
:1024600090E061E070E021E030E00E94D70240910E
:1024700043075091440781E090E061E070E021E083
:1024800030E00E94D702AC9AAD9AAE9AAF9A829988
:10249000EFC081E060E00E94FF0181E090E00E94D7
:1024A0007700F701208131812115310521F48281E6
:1024B0009381892B79F0F70162817381C9010E94B0
:1024C000B90F84E090E0E80EF91E99E6E91697E06E
:1024D000F90639F7AC98AD98AE98AF98FBCFCE9B84
:1024E00002C0869907C081E090E090930801809334
:1024F000070104C010920801109207010E949B0579
:102500001092040110920301AC9AAD9AAE9AAF9A60
:1025100010920C0110920B0110920E0110920D01FD
:1025200020910501309106018091090190910A01E5
:10253000281B390B30931201209311018091070160
:102540009091080181309105A9F42130310509F0FD
:1025500054C084E590E064E570E044E550E026E492
:1025600030E00E946F0680E090E061E070E04DEBAB
:1025700050E02AC0892B09F06DC02130310589F463
:1025800086E490E064E570E044E550E024E530E066
:102590000E946F0680E090E061E070E04FEB50E059
:1025A0003FC0232B09F056C086E490E064E570E05C
:1025B00044E550E026E430E00E946F0680E090E0C1
:1025C00061E070E04FEB50E00E94CC0282E090E0CE
:1025D00061E070E04DEB50E00E94CC0284E090E0BE
:1025E00061E070E04DEB50E00E94CC0286E090E0AC
:1025F00061E070E04FEB50E02BC02230310551F527
:1026000084E590E064E570E044E550E024E530E0E6
:102610000E946F0680E090E061E070E04DEB50E0DA
:102620000E94CC0282E090E061E070E04DEB50E06F
:102630000E94CC0284E090E061E070E04DEB50E05D
:102640000E94CC0286E090E061E070E04DEB50E04B
:102650000E94CC0210921201109211010E94D90521
:102660000EC0809B2ECE819B2CCE839B2ACE27CE64
:10267000809B0FCF819B0DCF839B0BCF08CFDF912A
:10268000CF911F910F91FF90EF90DF90CF90BF906F
:10269000AF900895EF92FF920F931F93CF93DF9324
:1026A0000E944F0481E060E00E94FF0181EC90E015
:1026B0000E94570220E030E046E40EC04083418390
:1026C000428343830196349680319105B9F72F5F99
:1026D0003F4F2031310559F0F90156E0EE0FFF1F51
:1026E0005A95E1F7E95DFC4F80E090E0E7CF81E0AB
:1026F00060E00E94FF018DEC90E00E94570280E0B4
:1027000090E061E070E04DED50E00E94CC0284E585
:1027100066E446E426E40E946F068399EFC11092B6
:102720001E0110921D011BC00E94EF0485B3807F23
:1027300085BB85B39091FE00892B85BBCF9902C0E4
:102740000E9471100E944A080E94D00880910D01D9
:1027500090910E01019690930E0180930D0180914E
:102760001D0190911E010397FCF2AC9AAD9AAE9AAE
:10277000AF9A0E943A091092180110921701109214
:102780001A01109219010E94D6096091FC00709103
:10279000FD004091170150911801209119013091CD
:1027A0001A018091FA009091FB000E940F0E0E9486
:1027B000030C109228071092270781E060E00E9426
:1027C000FF0140912D0750912E0780E090E060E0DE
:1027D00070E022E030E00E94D70240912F07509134
:1027E000300783E090E060E070E022E030E00E949B
:1027F000D702409131075091320786E090E060E0C7
:1028000070E022E030E00E94D702409133075091FF
:10281000340789E090E060E070E022E030E00E9460
:10282000D70284E090E00E947700CDE2D7E02881D3
:1028300039812115310521F48A819B81892B51F041
:102840006A817B81C9010E94B90F249687E0C9364D
:10285000D80769F70091FA001091FB00C091FC00C5
:10286000D091FD00F80124E0EE0FFF1F2A95E1F75B
:10287000EC0FFD1FEE0FFF1FEE0FFF1FE95DFC4F7A
:102880008081843559F4BE016F5F7F4FC8010E947B
:102890004006892B19F082E090E051C0F80184E0F5
:1028A000EE0FFF1F8A95E1F7EC0FFD1FEE0FFF1FE4
:1028B000EE0FFF1FE95DFC4F8181843551F4C801A3
:1028C0000196BE010E944006892B19F081E090E03C
:1028D00036C0F801A4E0EE0FFF1FAA95E1F7EC0F58
:1028E000FD1FEE0FFF1FEE0FFF1FE75DFC4F808106
:1028F000843559F4BE0161507040C8010E94400601
:10290000892B19F08EEF9FEF1AC0F80164E0EE0FEB
:10291000FF1F6A95E1F7EC0FFD1FEE0FFF1FEE0F93
:10292000FF1FE95DFC4F8381843559F4C80101978D
:10293000BE010E944006892B21F08FEF9FEF0E947D
:10294000F90EAC9AAD9AAE9AAF9A10921601109207
:10295000150110920E0110920D0110921C0110929F
:102960001B01DDCECE010E947519F8019183808391
:10297000CE0102960E947519F801938382832496F2
:102980000C5F1F4FCC33D10569F781E060E00E94F6
:10299000FF0140912D0750912E0780E090E060E00C
:1029A00070E021E030E00E94D70240912F07509163
:1029B000300781E090E060E070E021E030E00E94CC
:1029C000D702409131075091320783E090E060E0F8
:1029D00070E021E030E00E94D7024091330750912F
:1029E000340784E090E060E070E021E030E00E9495
:1029F000D702409135075091360786E090E060E0BD
:102A000070E021E030E00E94D702409137075091FA
:102A1000380787E090E060E070E021E030E00E945D
:102A2000D7024091390750913A0789E090E060E081
:102A300070E021E030E00E94D70240913B075091C6
:102A40003C078AE090E060E070E021E030E00E9426
:102A5000D70240913D0750913E078CE090E060E046
:102A600070E021E030E00E94D70240913F07509192
:102A700040078DE090E060E070E021E030E00E94EF
:102A8000D702409141075091420780E090E061E019
:102A900070E021E030E00E94D7024091430750915E
:102AA000440781E090E061E070E021E030E00E94C6
:102AB000D70282992DC081E060E00E94FF0181E091
:102AC00090E00E947700F7012081318121153105C6
:102AD00029F482819381892B09F41FCEF701628149
:102AE0007381C9010E94B90F84E090E0E80EF91EDD
:102AF00099E6E91697E0F90631F70FCE80990DCEE9
:102B00004DE2E42E47E0F42E8701C0E0D0E02ACF6A
:102B1000809BD1CF819BCFCF839BCDCFCACFEF926C
:102B2000FF920F931F93CF93DF934FE8E42E41E082
:102B3000F42EAC9AAD9AAE9AAF9A6091FC00709167
:102B4000FD00409117015091180120911901309119
:102B50001A018091FA009091FB000E940F0E0E94D2
:102B6000030C109228071092270781E060E00E9472
:102B7000FF0140912D0750912E0780E090E060E02A
:102B800070E022E030E00E94D70240912F07509180
:102B9000300783E090E060E070E022E030E00E94E7
:102BA000D702409131075091320786E090E060E013
:102BB00070E022E030E00E94D7024091330750914C
:102BC000340789E090E060E070E022E030E00E94AD
:102BD000D702CDE2D7E0288139812115310521F4D2
:102BE0008A819B81892B51F06A817B81C9010E9476
:102BF000B90F249687E0C936D80769F70091FA0023
:102C00001091FB00C091FC00D091FD00F80134E070
:102C1000EE0FFF1F3A95E1F7EC0FFD1FEE0FFF1FC0
:102C2000EE0FFF1FE95DFC4F8081843559F4BE0132
:102C30006F5F7F4FC8010E944006892B19F082E028
:102C400090E051C0F80194E0EE0FFF1F9A95E1F774
:102C5000EC0FFD1FEE0FFF1FEE0FFF1FE95DFC4F96
:102C60008181843551F4C8010196BE010E9440065D
:102C7000892B19F081E090E036C0F801B4E0EE0F46
:102C8000FF1FBA95E1F7EC0FFD1FEE0FFF1FEE0FD0
:102C9000FF1FE75DFC4F8081843559F4BE01615010
:102CA0007040C8010E944006892B19F08EEF9FEFFB
:102CB0001AC0F80174E0EE0FFF1F7A95E1F7EC0FF0
:102CC000FD1FEE0FFF1FEE0FFF1FE95DFC4F83811D
:102CD000843559F4C8010197BE010E944006892B32
:102CE00021F08FEF9FEF0E94F90EAC9AAD9AAE9A49
:102CF000AF9A109216011092150110920E011092C7
:102D00000D0110921C0110921B0110921E011092D5
:102D10001D011BC00E94EF0485B3807F85BB85B376
:102D20009091FE00892B85BBCF9902C00E94711043
:102D30000E944A080E94D00880910D0190910E01D6
:102D4000019690930E0180930D0180911D01909149
:102D50001E01892BF9F2FBBCEABCF9BCE8BCAC9AB9
:102D6000AD9AAE9AAF9A0E943A0910921801109249
:102D7000170110921A01109219010E94D609809130
:102D8000170190911801892B09F0D3CE8091190178
:102D900090911A01892B09F0CCCEDF91CF911F9130
:102DA0000F91FF90EF90089580E090E00E946D19E0
:102DB0008093690781E090E00E946D1980936A0713
:102DC00082E090E00E946D1980936B0783E090E0B1
:102DD0000E946D1980936C070895CF93DF93209123
:102DE0006D078091290790E0820F911D9595879539
:102DF0008093690720916E0780912A0790E0820FE7
:102E0000911D9595879580936A0720916F07809112
:102E10002B0790E0820F911D9595879580936B0706
:102E20002091700780912C0790E0820F911D95955D
:102E3000879580936C07C0E0D0E0FE01E759F84F1A
:102E4000CE0160810E947B192196C430D105A9F77B
:102E5000DF91CF9108955058BB27AA270ED075C196
:102E600066D130F06BD120F031F49F3F11F41EF4A5
:102E70005BC10EF4E095E7FB51C1E92F77D180F3F8
:102E8000BA17620773078407950718F071F49EF567
:102E90008FC10EF4E0950B2EBA2FA02D0B01B901B6
:102EA00090010C01CA01A0011124FF27591B99F0C0
:102EB000593F50F4503E68F11A16F040A22F232FCC
:102EC000342F4427585FF3CF469537952795A7951C
:102ED000F0405395C9F77EF41F16BA0B620B730BC3
:102EE000840BBAF09150A1F0FF0FBB1F661F771F34
:102EF000881FC2F70EC0BA0F621F731F841F48F4E9
:102F0000879577956795B795F7959E3F08F0B3CF6E
:102F10009395880F08F09927EE0F97958795089558
:102F2000D9D008F481E008950CD00FC107D140F04A
:102F3000FED030F021F45F3F19F0F0C0511139C1DB
:102F4000F3C014D198F39923C9F35523B1F3951B1A
:102F5000550BBB27AA2762177307840738F09F5FBA
:102F60005F4F220F331F441FAA1FA9F333D00E2E29
:102F70003AF0E0E830D091505040E695001CCAF796
:102F800029D0FE2F27D0660F771F881FBB1F26175B
:102F900037074807AB07B0E809F0BB0B802DBF012E
:102FA000FF2793585F4F2AF09E3F510568F0B6C047
:102FB00000C15F3FECF3983EDCF38695779567950B
:102FC000B795F7959F5FC9F7880F911D96958795DF
:102FD00097F90895E1E0660F771F881FBB1F6217FE
:102FE00073078407BA0720F0621B730B840BBA0BBC
:102FF000EE1F88F7E095089504D06894B111D9C008
:103000000895BCD088F09F5790F0B92F9927B751F9
:10301000A0F0D1F0660F771F881F991F1AF0BA959C
:10302000C9F712C0B13081F0C3D0B1E00895C0C07B
:10303000672F782F8827B85F39F0B93FCCF3869592
:1030400077956795B395D9F73EF4909580957095EF
:1030500061957F4F8F4F9F4F0895E89409C097FB6C
:103060003EF490958095709561957F4F8F4F9F4F5F
:103070009923A9F0F92F96E9BB279395F6958795A3
:1030800077956795B795F111F8CFFAF4BB0F11F466
:1030900060FF1BC06F5F7F4F8F4F9F4F16C088230D
:1030A00011F096E911C0772321F09EE8872F762F43
:1030B00005C0662371F096E8862F70E060E02AF084
:1030C0009A95660F771F881FDAF7880F9695879570
:1030D00097F90895990F0008550FAA0BE0E8FEEF45
:1030E00016161706E807F907C0F012161306E407CC
:1030F000F50798F0621B730B840B950B39F40A26C5
:1031000061F0232B242B252B21F408950A2609F4A2
:10311000A140A6958FEF811D811D089597F99F67A6
:1031200080E870E060E008959FEF80EC089500244F
:103130000A941616170618060906089500240A941C
:1031400012161306140605060895092E0394000CA2
:1031500011F4882352F0BB0F40F4BF2B11F460FF31
:1031600004C06F5F7F4F8F4F9F4F089557FD90585A
:10317000440F551F59F05F3F71F04795880F97FB3B
:10318000991F61F09F3F79F08795089512161306F5
:103190001406551FF2CF4695F1DF08C01616170624
:1031A0001806991FF1CF8695710561050894089559
:1031B000E894BB2766277727CB0197F908958ADF24
:1031C00008F48FEF08950BD0C0CFB1DF28F0B6DF41
:1031D00018F0952309F0A2CFA7CF1124EACFC6DFBC
:1031E000A0F3959FD1F3950F50E0551F629FF0011A
:1031F000729FBB27F00DB11D639FAA27F00DB11D73
:10320000AA1F649F6627B00DA11D661F829F2227FB
:10321000B00DA11D621F739FB00DA11D621F839F82
:10322000A00D611D221F749F3327A00D611D231F58
:10323000849F600D211D822F762F6A2F11249F57A6
:1032400050408AF0E1F088234AF0EE0FFF1FBB1FC9
:10325000661F771F881F91505040A9F79E3F510568
:1032600070F05CCFA6CF5F3FECF3983EDCF3869521
:1032700077956795B795F795E7959F5FC1F7FE2B13
:10328000880F911D9695879597F9089597FB092EBC
:1032900007260AD077FD04D00CD006D000201AF4FF
:1032A000709561957F4F0895F6F7909581959F4FA2
:1032B0000895AA1BBB1B51E107C0AA1FBB1FA6177D
:1032C000B70710F0A61BB70B881F991F5A95A9F7CF
:1032D00080959095BC01CD010895E199FECF9FBBEB
:1032E0008EBBE09A99278DB30895A8E1B0E042E043
:1032F00050E00C948F19262FE199FECF9FBB8EBB17
:103300002DBB0FB6F894E29AE19A0FBE019608958C
:103310000E947B19272F0C947C19DC01CB01FC0146
:10332000E199FECF06C0FFBBEEBBE09A31960DB22D
:0E3330000D9241505040B8F70895F894FFCF29
:10333E004552524F5220467220536E7372004669A8
:10334E006C6C6961626C650042726F6B65207061B6
:10335E007468200042726F6B65206275696C640040
:10336E006D783A20006D793A2000783A2000793A4B
:10337E002000507265737320416E79204B65790081
:10338E0053746F72656420496E20455000310030D1
:10339E00004C434420576F726B696E670050726524
:1033AE0073734433206472792072756E00507265A7
:1033BE0073733020537473742072756E00FF0000A7
:0E33CE0000704166664640730200070007006B
:00000001FF
