:100000000C942A000C9447000C9447000C94470071
:100010000C9447000C9447000C9447000C94470044
:100020000C9447000C9447000C9447000C94470034
:100030000C9447000C9447000C9447000C94470024
:100040000C9447000C9447000C9447000C94470014
:100050000C94470011241FBECFE5D8E0DEBFCDBF12
:1000600010E0A0E6B0E0ECEBF0E302C005900D92EA
:10007000A23DB107D9F715E0A2EDB0E001C01D9295
:10008000A133B107E1F70E944A150C945C180C9457
:1000900000008FEF8BBB1ABA88BB17BA15BA84BBA6
:1000A00082BB11BA08958C9A8D9A1EBC1DBC1CBCD3
:1000B0001BBC1ABC19BC18BC81E087BD8FE886BD8B
:1000C00082EA8FBD89E18EBD08951ABA16B880E61E
:1000D00087B987E886B980E888B9089515B8877028
:1000E000806687B9369A3699FECF85B10895AC01FE
:1000F00030E060E971E00CC0FB013197F1F7019746
:10010000D9F72F5F243019F084EC99E0F5CF3F5FE9
:10011000832F90E08417950714F420E0F5CF08951D
:10012000AF92BF92CF92DF92EF92FF920F931F9305
:10013000AA2797FDA095BA2FBC01CD010E940917EF
:100140005B016C0120E030E04AE755E40E94BD17F6
:100150007B018C0120E030E040E85FE30E946A16FA
:1001600088231CF461E070E024C0C801B70120E0DE
:100170003FEF4FE757E40E94B9171816B4F4C601D1
:10018000B50120E030E040E251E40E94BD170E943A
:10019000DB1680E991E005C0FC013197F1F7615071
:1001A000704061157105C1F707C0C801B7010E9411
:1001B000DB16CB010197F1F71F910F91FF90EF90A4
:1001C000DF90CF90BF90AF900895AF92BF92CF9243
:1001D000DF92EF92FF920F931F93AA2797FDA095AE
:1001E000BA2FBC01CD010E9409175B016C012BEAFB
:1001F0003AEA4AEA50E40E94BD177B018C0120E0F4
:1002000030E040E85FE30E946A16882314F461E05E
:1002100054C0C801B70120E030E04FE753E40E942A
:10022000B91718160CF045C0C601B50120E030E042
:100230004AE754E40E946E165B016C0120E030E056
:100240004AE755E40E94BD177B018C0120E030E0B5
:1002500040E85FE30E946A1688231CF461E070E0C6
:1002600024C0C801B70120E03FEF4FE757E40E94E8
:10027000B9171816B4F4C601B50120E030E040E229
:1002800051E40E94BD170E94DB1680E991E005C091
:10029000FC013197F1F76150704061157105C1F7AC
:1002A0000EC0C801B7010E94DB16CB010197F1F720
:1002B00006C0C801B7010E94DB166A95F1F71F91CD
:1002C0000F91FF90EF90DF90CF90BF90AF90089587
:1002D0000F931F93CF93DF931092D200C0E0D0E032
:1002E00001E010E08C2F0E946E00863460F49801CB
:1002F0000C2E02C0220F331F0A94E2F78091D20025
:10030000822B8093D2002196C430D10559F7DF911A
:10031000CF911F910F91089580E00E946E0080930D
:10032000E10481E00E946E008093E20482E00E947A
:100330006E008093E30483E00E946E008093E404E7
:10034000089580E00E946E008093250581E00E9460
:100350006E008093260582E00E946E008093270540
:1003600083E00E946E008093280508951F93CF9329
:10037000DF93C0E0D0E01FEF15BB84E690E00E9461
:10038000900015BA84E690E00E9490002196C53056
:10039000D10591F7DF91CF911F9108959BBD8ABD43
:1003A000089599BD88BD089587B3807F87BBC69A9D
:1003B000C59882E08A95F1F722E035E0C79A822F4E
:1003C0008A95F1F786B38295807F922F9A95F1F7FF
:1003D000C798932F9A95F1F7C79A922F9A95F1F7AC
:1003E00096B3922F9A95F1F7C798932F9A95F1F7B4
:1003F00087FDE4CFC69887B38F6087BB0895282F09
:10040000662311F4C59801C0C59A82E08A95F1F778
:10041000C79A88B3922F92959F70807F982B98BB34
:1004200095E0892F8A95F1F7C798892F8A95F1F77A
:10043000C79A88B32F70807F822B88BB892F8A95BB
:10044000F1F7C7989A95F1F70E94D40108951F9388
:10045000182F8CE291E020E931E0F9013197F1F7B2
:100460000197D9F787B38F6087BBBF9ABD9ABE9AB1
:1004700088B3807F88BBC798C698C59881E08A9565
:10048000F1F7C79AC19A85E0982F9A95F1F7C79826
:100490008A95F1F70E94D401812F8C6060E00E9460
:1004A000FF0188E260E00E94FF011F910895CF9351
:1004B000DF93EC0104C061E00E94FF012196888176
:1004C0008823C9F7DF91CF910895EF92FF920F93A0
:1004D0001F93DF93CF9300D000D00F92CDB7DEB73C
:1004E0009C018B01FE01319685E0DF011D928A950A
:1004F000E9F7FE0135960DC0C9016AE070E00E947F
:1005000020188083C9016AE070E00E9420189B01D6
:1005100031972115310581F7BFEF0F3F1B0779F4A4
:1005200020E030E0AE014F5F5F4F02C02F5F3F4FD2
:10053000FA01E20FF31F80818823C1F304C025E094
:1005400030E0201B310B7E010894E11CF11CE20E0F
:10055000F31E890109C0F70181917F01805D61E08F
:100560000E94FF010F5F1F4F05301105A4F30F908C
:100570000F900F900F900F90CF91DF911F910F91DF
:10058000FF90EF900895883230F4611180648068A4
:1005900060E00E94FF0108950F931F938A010E945B
:1005A000C302C8010E9457021F910F910895EF9254
:1005B000FF920F931F938A0179010E94C302C80121
:1005C000B7010E9465021F910F91FF90EF9008956F
:1005D0001AB81BB887E080BD87E689B910BC88E9E6
:1005E0008AB908955D9BFECF8CB90895FC0104C0C3
:1005F0005D9BFECF8CB9319680818823C9F7089521
:100600005D9BFECF8AE08CB95D9BFECF8DE08CB9FF
:1006100008955F9BFECF8CB108958FEF84BB089542
:10062000AC9AAD98AE98AF980895AC98AD9AAE9844
:10063000AF980895AC98AD98AE9AAF980895AC98DD
:10064000AD98AE9AAF980895AC9AAD98AE98AF9821
:100650000895AC98AD98AE98AF9A0895AC9AAD98BD
:10066000AE9AAF980895AC98AD9AAE98AF9A0895A7
:10067000AC98AD9AAE9AAF980895AC9AAD98AE98F2
:10068000AF9A0895AC98AD98AE98AF980895AC9A8B
:10069000AD9AAE9AAF9A089582B38F6082BB81B350
:1006A000807F81BB089520B330E020953095217084
:1006B0003070C901089520B330E036952795209514
:1006C000309521703070C901089520B330E036951F
:1006D0002795369527952095309521703070C90162
:1006E000089520B330E043E0369527954A95E1F729
:1006F0002095309521703070C90108956F927F92D6
:100700008F929F92AF92BF92CF92DF92EF92FF9221
:100710000F931F93AC9AAD98AE9AAF988091D20088
:10072000863091F1873060F48230B1F0833018F474
:100730008130C1F531C08330A9F0843099F509C00A
:10074000883039F18830A0F08C3049F08E3051F586
:100750000CC081E090E022C08FEF9FEF1FC083E0CC
:1007600090E01CC08DEF9FEF05C084E090E016C0C4
:100770008CEF9FEF9093D4008093D3008091DF00A3
:100780009091E000019771F41092D4001092D30080
:1007900009C086E090E002C08AEF9FEF9093D400FA
:1007A0008093D3006091D3007091D400882777FDA7
:1007B0008095982F0E9409175B016C0160912905B3
:1007C00070912A0580912B0590912C05A601950129
:1007D0000E9405167B018C0160932D0570932E05F8
:1007E00080932F0590933005C601B5012091C2007A
:1007F0003091C3004091C4005091C5000E94BD17C4
:100800003B014C01C801B7012091C6003091C700DF
:100810004091C8005091C9000E94BD179B01AC01D6
:10082000C401B3010E9405167B018C016093F300A3
:100830007093F4008093F5009093F600A092290540
:10084000B0922A05C0922B05D0922C056091C00071
:100850007091C10080E090E00E9407175B016C017D
:10086000A80197010E9405160E94D6167BBD6ABD9D
:10087000C601B501A80197010E9406160E94D6166E
:1008800079BD68BD1F910F91FF90EF90DF90CF90E1
:10089000BF90AF909F908F907F906F9008950E942F
:1008A00049001ABA16B880E687B987E886B980E8A1
:1008B00088B98FEF84BB82E00E94270282B38F60E9
:1008C00082BB81B3807F81BB0E945300089585E77E
:1008D0008093CA0020EF30E082E291E008C03BBD87
:1008E0002ABD99BD88BDAC98AD9AAE9AAF98CD9906
:1008F000F6CF09C03BBD2ABD99BD88BDAC98AD9A65
:10090000AE9AAF9804C029EB30E087ED90E0CE9B23
:1009100002C08699EFCF8FE891E09BBD8ABD99BD5B
:1009200088BDAC9AAD9AAE9AAF9A0895CC9916C08C
:100930008091D7009091D800892BA1F48091D900A3
:100940009091DA0001969093DA008093D90081E0CB
:1009500090E09093D8008093D70008951092D8002B
:100960001092D7000895CD9B06C08091DF00909132
:10097000E000019779F581E090E09093E0008093AA
:10098000DF00CC9927C0869B14C0CE9B12C008956F
:100990003BBD2ABD39BD28BDAC9AAD98AE9AAF9883
:1009A00080E090E0879909C0AC9AAD9AAE9AAF9A70
:1009B00004C081E090E020EF30E0CC9B05C0909334
:1009C000E0008093DF0008958799E2CF9093E000E4
:1009D0008093DF0008950E946801AC9AAD98AE9AAA
:1009E000AF98CE9B0BC0869909C08091C0009091B2
:1009F000C1004E979BBD8ABDCC961EC0869B0BC086
:100A0000CE9909C08091C0009091C1004E969BBDC7
:100A10008ABDCC9711C0869B05C0CE9B03C00E94A7
:100A20007E030CC086990AC0CE9908C08091C00090
:100A30009091C1009BBD8ABD99BD88BD8AE090E0C0
:100A40000E94E500089585E78093CA0024E031E024
:100A500088E191E008C03BBD2ABD99BD88BDAC9836
:100A6000AD9AAE9AAF98CD9BF6CFCE9BFECF869B2C
:100A7000FCCFCD99FECF09C09BBD8ABD99BD88BD75
:100A8000AC98AD9AAE9AAF9802C082ED90E0CE9B42
:100A900005C08699F1CF02C00E94EB04CC9BFCCF2D
:100AA000879BFACF8FE891E09BBD8ABD99BD88BD39
:100AB000AC9AAD9AAE9AAF9A82E090E00E9477002D
:100AC00008958CE68093CA0085EF90E008C09BBD36
:100AD0008ABD99BD88BDAC98AD9AAE9AAF98CD99B4
:100AE000F6CF09C09BBD8ABD99BD88BDAC98AD9AB3
:100AF000AE9AAF9802C080EF90E0CE9B05C0869979
:100B0000F1CF02C00E94EB04CC9BFCCF879BFACFB5
:100B10008FE891E09BBD8ABD99BD88BDAC9AAD9A26
:100B2000AE9AAF9A82E390E00E9490000895CF932E
:100B3000DF9382E78093CA00C5EFD0E00AC0DBBD37
:100B4000CABDD9BDC8BDAC9AAD98AE98AF9A0E9447
:100B50009604CF99F4CF0BC0DBBDCABDD9BDC8BDCB
:100B6000AC9AAD98AE98AF9A0E94960402C0C0EFBE
:100B7000D0E0CE9B05C08699EFCF02C00E94EB0467
:100B8000CC9BFCCF879BFACF8FE891E09BBD8ABDC1
:100B900099BD88BDAC9AAD9AAE9AAF9A82E390E0C7
:100BA0000E949000DF91CF9108958091CA00823712
:100BB000D1F48091CB009091CC002FEF8F3F920722
:100BC00059F12FEF8F3F920709F02CF48E5F9F4F62
:100BD00009F051C03DC08130910509F43FC0029732
:100BE00009F049C038C08C36D1F48091CB00909187
:100BF000CC002FEF8F3F920789F12FEF8F3F9207A5
:100C000009F024F48E5F9F4FB1F525C08130910526
:100C100019F0029781F51CC082E090E021C0853771
:100C200051F58091CB009091CC002FEF8F3F920730
:100C300091F02FEF8F3F920709F024F48E5F9F4FC2
:100C4000D1F413C08130910519F00297A1F406C0C8
:100C50008FEF9FEF05C081E090E002C08EEF9FEF25
:100C60009093CC008093CB00089582E090E0909325
:100C7000CC008093CB000895382F492FFC01B3E0BE
:100C8000EE0FFF1FBA95E1F7880F991FE80FF91FC4
:100C9000E60FF71F53E0EE0FFF1F5A95E1F7E154FF
:100CA000FE4F80819181892B09F051C0832F942FB1
:100CB000FC0123E0EE0FFF1F2A95E1F7880F991F33
:100CC000E80FF91FE60FF71FA3E0EE0FFF1FAA952D
:100CD000E1F7EF53FE4F80819181892BC1F5832F7E
:100CE000942FFC0153E0EE0FFF1F5A95E1F7880F98
:100CF000991FE80FF91FE60FF71F83E0EE0FFF1FA4
:100D00008A95E1F7ED53FE4F80819181892BF9F4AB
:100D100020E0832F942FFC01B3E0EE0FFF1FBA9564
:100D2000E1F7880F991FE80FF91FE60FF71F53E04F
:100D3000EE0FFF1F5A95E1F7E154FE4F8681978130
:100D4000892B09F021E081E0282730E002C020E073
:100D500030E0C90108958F929F92AF92BF92CF92D7
:100D6000DF92EF92FF920F931F93CF93DF937C015B
:100D70006B015A0149011091CD000091CE00C09144
:100D8000CF00D091D000812F902FBE010E943C0651
:100D9000892B09F48EC11092F2001092F10080911B
:100DA000CB009091CC002FEF8F3F920709F424C124
:100DB0002FEF8F3F920709F02CF48E5F9F4F09F0C1
:100DC0007EC1BFC08130910509F460C0029709F06F
:100DD00076C1812F902FFC0133E0EE0FFF1F3A9573
:100DE000E1F7880F991FE80FF91FEC0FFD1FB3E023
:100DF000EE0FFF1FBA95E1F7E154FE4FF182E0825A
:100E0000812F902FFC01A3E0EE0FFF1FAA95E1F7C1
:100E1000880F991FE80FF91FEC0FFD1F63E0EE0F1D
:100E2000FF1F6A95E1F7EF53FE4FD182C082812FF9
:100E3000902FFC0153E0EE0FFF1F5A95E1F7880F4A
:100E4000991FE80FF91FEC0FFD1F33E0EE0FFF1F96
:100E50003A95E1F7ED53FE4FB182A082812F902F9A
:100E6000FC0123E0EE0FFF1F2A95E1F7880F991F81
:100E7000E80FF91FEC0FFD1F13E0EE0FFF1F1A958F
:100E8000E1F7E154FE4F9782868219C1812F902F9E
:100E9000FC01B3E0EE0FFF1FBA95E1F7880F991F31
:100EA000E80FF91FEC0FFD1F73E0EE0FFF1F7A959F
:100EB000E1F7EF53FE4FF182E082812F902FFC018A
:100EC00063E0EE0FFF1F6A95E1F7880F991FE80FA7
:100ED000F91FEC0FFD1F43E0EE0FFF1F4A95E1F7EE
:100EE000ED53FE4FD182C082812F902FFC0133E061
:100EF000EE0FFF1F3A95E1F7880F991FE80FF91FD2
:100F0000EC0FFD1F83E0EE0FFF1F8A95E1F7E15420
:100F1000FE4FB782A682812F902FFC01B3E0EE0F27
:100F2000FF1FBA95E1F7880F991FE80FF91FEC0F23
:100F3000FD1F73E0EE0FFF1F7A95E1F7E154FE4FBE
:100F4000B5C0812F902FFC0163E0EE0FFF1F6A9563
:100F5000E1F7880F991FE80FF91FEC0FFD1F43E021
:100F6000EE0FFF1F4A95E1F7ED53FE4FF182E0824D
:100F7000812F902FFC0133E0EE0FFF1F3A95E1F730
:100F8000880F991FE80FF91FEC0FFD1F83E0EE0F8C
:100F9000FF1F8A95E1F7E154FE4FD782C682812F69
:100FA000902FFC01B3E0EE0FFF1FBA95E1F7880F19
:100FB000991FE80FF91FEC0FFD1F73E0EE0FFF1FE5
:100FC0007A95E1F7E154FE4FB182A082812F902FF4
:100FD000FC0163E0EE0FFF1F6A95E1F7880F991F90
:100FE000E80FF91FEC0FFD1F43E0EE0FFF1F4A95BE
:100FF000E1F7EF53FE4F5AC0812F902FFC0133E0F1
:10100000EE0FFF1F3A95E1F7880F991FE80FF91FC0
:10101000EC0FFD1FB3E0EE0FFF1FBA95E1F7E154AF
:10102000FE4FF782E682812F902FFC01A3E0EE0FA6
:10103000FF1FAA95E1F7880F991FE80FF91FEC0F22
:10104000FD1F63E0EE0FFF1F6A95E1F7E154FE4FCD
:10105000D182C082812F902FFC0153E0EE0FFF1F41
:101060005A95E1F7880F991FE80FF91FEC0FFD1F44
:1010700033E0EE0FFF1F3A95E1F7EF53FE4FB182D9
:10108000A082812F902FFC0123E0EE0FFF1F2A95F5
:10109000E1F7880F991FE80FF91FEC0FFD1F13E010
:1010A000EE0FFF1F1A95E1F7ED53FE4F91828082FC
:1010B00006C081E090E09093F2008093F100DF9110
:1010C000CF911F910F91FF90EF90DF90CF90BF9045
:1010D000AF909F908F9008952091E9003091EA00A1
:1010E0008091CB009091CC002230310509F079C07D
:1010F0002FEF8F3F920751F14FEF8F3F940709F089
:101100002CF48E5F9F4F09F0A2C052C08130910530
:1011100021F0029709F09BC032C08091CD009091E0
:10112000CE0001969093CE008093CD0081E090E0B8
:1011300060E070E041E050E020E030E00E94AB066B
:101140008091CD009091CE0001966BC08091CD0032
:101150009091CE0001979093CE008093CD0081E0D6
:1011600090E060E070E041E050E020E030E00E947C
:10117000AB068091CD009091CE00019752C0809136
:10118000CF009091D00001969093D0008093CF0033
:1011900081E090E060E070E041E050E020E030E08D
:1011A0000E94AB068091CF009091D00001964BC079
:1011B0008091CF009091D00001979093D0008093C0
:1011C000CF0081E090E060E070E041E050E020E09E
:1011D00030E00E94AB068091CF009091D000019743
:1011E00032C04FEF8F3F9407B1F04FEF8F3F94071E
:1011F00009F024F48E5F9F4F51F51FC08130910597
:1012000019F0029721F512C08091CD009091CE0087
:10121000820F931F06C08091CD009091CE00821B5B
:10122000930B9093CE008093CD0011C08091CF009E
:101230009091D000820F931F06C08091CF009091B3
:10124000D000821B930B9093D0008093CF0081E05D
:1012500060E00E94FF014091CD005091CE0084E0FB
:1012600090E060E070E022E030E00E94D702409120
:10127000CF005091D00088E090E060E070E022E084
:1012800030E00E94D7021092EA001092E90008951F
:10129000CF93DF93CD992AC0C1E0D0E0D093E00096
:1012A000C093DF008091E1009091E200815D974062
:1012B0005CF081E060E00E94FF0182E090E09093AA
:1012C000EA008093E90008C081E060E00E94FF012D
:1012D000D093EA00C093E9008091E1009091E20090
:1012E000892B21F41092EA001092E900CE9B02C0F3
:1012F00086991DC0CC9B06C08091EF009091F000B4
:101300000197A9F4AC9AAD9AAE9AAF9A0E946C0874
:1013100081E090E060E070E041E050E021E030E00A
:101320000E94AB061092E2001092E10028C0CC9B14
:1013300006C08091EF009091F000019721F5CE9BBF
:1013400022C0869B20C00E946C081092E20010927E
:10135000E1000E94610580E090E060E070E041E023
:1013600050E021E030E00E94AB06AC9AAD9AAE9A14
:10137000AF9A0E94D5051092E0001092DF00109203
:10138000F0001092EF000E94B304DF91CF91089516
:10139000CE9B35C0869B33C08091D200833041F014
:1013A0008C3031F0843021F0823011F08630F9F445
:1013B0008091DF009091E000892B09F58091E10098
:1013C0009091E2002091E9003091EA00815D974020
:1013D0002CF0232BA1F482E090E004C0232B79F4BD
:1013E00081E090E09093EA008093E90008C081E0FA
:1013F00060E00E94FF0180E690E00E945702809129
:10140000D200882371F5CC9B2CC0CD9B2AC0CE9BEB
:1014100028C0CF9B26C0869B24C0879B22C080917A
:10142000DF009091E000892BE1F4AC9AAD9AAE9A7E
:10143000AF9A0E946C0880E090E060E070E041E0CC
:1014400050E020E030E00E94AB060E9467040E945A
:10145000D5051092E0001092DF001092E200109289
:10146000E10008958F929F92AF92BF92CF92DF9248
:10147000EF92FF920F931F93CF93DF93E1E0EE2E55
:10148000F12C79C0C701B6010E943C06892B09F4F2
:1014900060C081E060E00E94FF01C401B6010E94CB
:1014A0003C06892B09F055C0C501B6010E943C06D7
:1014B000892B09F04EC0B60161507040C7010E94EF
:1014C0003C06892B09F045C0B6016F5F7F4FC7010D
:1014D0000E943C06892BE9F581E060E00E94FF0153
:1014E0008EE690E00E94570280ED97E00E94900007
:1014F000CA5ADF4F88819981C655D0408130910505
:1015000019F49B838A8302C01B821A82CE54D04076
:1015100088819981C25BDF4F8130910519F49F83E7
:101520008E8302C01F821E828C859D85813091052D
:1015300019F49983888302C019821882F801808186
:1015400091818130910519F49D838C8302C01D82A5
:101550001C820894C11CD11C065F1F4F2896F9E01D
:10156000CF16D10409F08ECF0894E11CF11C89E05C
:10157000E816F104F9F08701000F111FC70163E0BD
:10158000880F991F6A95E1F7080F191F53E0000FA4
:10159000111F5A95E1F709531E4FE80141E0C42E8F
:1015A000D12C47010894811C911C57010894A10873
:1015B000B10868CFDF91CF911F910F91FF90EF900D
:1015C000DF90CF90BF90AF909F908F9008952F9213
:1015D0003F924F925F926F927F928F929F92AF92C3
:1015E000BF92CF92DF92EF92FF920F931F93DF9300
:1015F000CF93CDB7DEB768970FB6F894DEBF0FBEB6
:10160000CDBF1092EC001092EB001092EE00109201
:10161000ED008090CD009090CE00A090CF00B090D3
:10162000D000CC24DD24C818D908DE82CD82DC822B
:10163000CB82DA82C98200E010E0222733272A1900
:101640003B093E8B2D8B94C1C8016F89788D0E9418
:101650003C06892B09F059C1F701808191810197DE
:1016600009F04AC06F89788D6F5F7F4FC8010E9473
:101670003C06892B09F440C06091EB007091EC00AE
:101680006115710531F48091ED009091EE00892B88
:1016900049F1681979098091ED009091EE008A195D
:1016A0009B09ED85FE85EE9FA001EF9F500DFE9FEB
:1016B000500D11242F853889420F531FFC01EE9FD6
:1016C000C001EF9F900DFE9F900D1124669F900129
:1016D000679F300D769F300D1124820F931F48179E
:1016E000590754F41093EC000093EB002F89388DC8
:1016F0003093EE002093ED00F701828193810197F2
:1017000009F052C08B899C896F89788D0E943C06B4
:10171000892B09F449C06091EB007091EC006115D0
:10172000710589F48091ED009091EE00892B59F4B8
:101730001093EC000093EB002F89388D3093EE006E
:101740002093ED0031C0681979098091ED009091E6
:10175000EE008A199B09669CA001679C500D769C3F
:10176000500D1124EB85FC854E0F5F1F9C01229FBD
:10177000C001239F900D329F900D1124669F900110
:10178000679F300D769F300D1124820F931F4817ED
:10179000590754F41093EC000093EB008F89988D57
:1017A0009093EE008093ED00F7018481958101977D
:1017B00009F053C06F89788D61507040C8010E9454
:1017C0003C06892B09F449C06091EB007091EC0054
:1017D0006115710589F48091ED009091EE00892BDF
:1017E00059F41093EC000093EB002F89388D30935F
:1017F000EE002093ED0031C0681979098091ED0069
:101800009091EE008A199B09449CA001459C500DC3
:10181000549C500D1124E985FA854E0F5F1F9C01E1
:10182000229FC001239F900D329F900D1124669F2F
:101830009001679F300D769F300D1124820F931F0A
:101840004817590754F41093EC000093EB008F896C
:10185000988D9093EE008093ED00F701868197813B
:10186000019709F052C089899A896F89788D0E9401
:101870003C06892B09F449C06091EB007091EC00A3
:101880006115710589F48091ED009091EE00892B2E
:1018900059F41093EC000093EB002F89388D3093AE
:1018A000EE002093ED0031C0681979098091ED00B8
:1018B0009091EE008A199B09229CA001239C500D57
:1018C000329C500D1124EF81F8854E0F5F1F9C0153
:1018D000229FC001239F900D329F900D1124669F7F
:1018E0009001679F300D769F300D1124820F931F5A
:1018F0004817590754F41093EC000093EB008F89BC
:10190000988D9093EE008093ED00EF89F88D3196DD
:10191000F88FEF8B28E030E0E20EF31E0894211CD4
:10192000311C0894411C511C0894611C711C8D854C
:101930009E8501969E878D873A9709F085CE0F5F29
:101940001F4F0894C11CD11CED81FE813196FE838E
:10195000ED832B813C812F5F3F4F3C832B8389811B
:101960009A8101969A8389830A30110509F44AC045
:10197000CC9CF001CD9CF00DDC9CF00D1124F88B7B
:10198000EF878D819E81889F9001899F300D989F60
:10199000300D11243C872B872B813C81229FF00145
:1019A000239FF00D329FF00D1124FA87E987E9811A
:1019B000FA81EE9FC001EF9F900DFE9F900D1124C4
:1019C00098878F8320E530E0029F7001039FF00C21
:1019D000129FF00C11248FEB91E0E80EF91EED89B7
:1019E000FE89FE87ED871F012F013F01188E1F8A98
:1019F0009801215030403A8B298BC80101969C8B6D
:101A00008B8B22CE68960FB6F894DEBF0FBECDBF8B
:101A1000CF91DF911F910F91FF90EF90DF90CF90CA
:101A2000BF90AF909F908F907F906F905F904F90FE
:101A30003F902F9008956F927F928F929F92AF92D6
:101A4000BF92CF92DF92EF92FF920F931F93CF93AB
:101A5000DF936091CF007091D0004091CD00509104
:101A6000CE0005EE14E0F80111821082138212827A
:101A7000349685E0E132F807B9F747C26A01089465
:101A8000C11CD11CE601CC0FDD1FC60123E0880F6D
:101A9000991F2A95E1F7C80FD91FC60FD71F7E01DE
:101AA000EE0CFF1CF701E950FF4FA080B180A81495
:101AB000B9040CF072C083E0AA0FBB1F8A95E1F74E
:101AC000AF53BE4F8D919C91019709F066C09E0166
:101AD000A3E0220F331FAA95E1F721543E4FF901ED
:101AE00086819781019709F058C0493051050CF063
:101AF00054C0F801D182C08273836283A6014F5F14
:101B00005F4FDA01AA0FBB1FCA01E3E0880F991FDC
:101B1000EA95E1F7A80FB91FA60FB71FFD01EE0F59
:101B2000FF1FE950FF4F808191818A159B050CF0C2
:101B3000D2C183E0AA0FBB1F8A95E1F7A154BE4F23
:101B400016968D919C911797019709F0C4C1F901E0
:101B500080819181892B09F0BEC1B3E0CC0FDD1FDC
:101B6000BA95E1F7CF53DE4F88819981019709F04B
:101B7000B2C1EE0CFF1CEE0CFF1C83EC91E0E80EF2
:101B8000F91EF70180819181892B09F0A4C1F9E048
:101B9000CF16D1040CF09FC194C07A010894E108DB
:101BA000F1089701220F331FC701E3E0880F991F47
:101BB000EA95E1F7280F391F260F371FE901CC0FEF
:101BC000DD1FFE01E950FF4FC080D180C814D90449
:101BD0000CF07BC0FA01EE0FFF1FCA01A3E0880FD3
:101BE000991FAA95E1F7E80FF91FE60FF71FB3E079
:101BF000EE0FFF1FBA95E1F7E154FE4F8681978102
:101C0000019709F062C0F901A3E0EE0FFF1FAA954A
:101C1000E1F7EF53FE4F80819181019709F055C0A4
:101C2000141615060CF051C0F801F182E08273839E
:101C30006283A70141505040DA01AA0FBB1FCA01BD
:101C4000E3E0880F991FEA95E1F7A80FB91FA60FE7
:101C5000B71FFD01EE0FFF1FE950FF4F80819181FB
:101C60008C159D050CF039C183E0AA0FBB1F8A9526
:101C7000E1F7AF53BE4F8D919C91019709F02DC1B3
:101C8000F901B3E0EE0FFF1FBA95E1F7E154FE4F03
:101C900080819181892B09F020C1CC0FDD1FCC0FF1
:101CA000DD1FCD53DE4F88819981892B09F015C145
:101CB00086819781019709F010C11E141F040CF052
:101CC0000CC1F801518340830DC17B010894E11CD4
:101CD000F11C9A01220F331FCA01E3E0880F991FFC
:101CE000EA95E1F7280F391FE901CE0DDF1DDE016E
:101CF000AA0FBB1FFD01E950FF4FC080D180C8145F
:101D0000D9040CF063C0F901E60FF71F83E0EE0F72
:101D1000FF1F8A95E1F7E154FE4F80819181019781
:101D200009F054C0AA0FBB1FAA0FBB1FAD53BE4F73
:101D30008D919C91019709F049C0693071050CF0B3
:101D400045C0F80151834083F382E282B7016F5F9F
:101D50007F4FD901A60FB71FAA0FBB1FFD01E95086
:101D6000FF4F808191818C159D050CF0B8C0AA0FA2
:101D7000BB1FAA0FBB1FAD53BE4F8D919C91019706
:101D800009F0ADC0FE01B3E0EE0FFF1FBA95E1F719
:101D9000E154FE4F80819181019709F0A0C0A3E03A
:101DA000CC0FDD1FAA95E1F7CF53DE4F88819981D3
:101DB000892B09F094C086819781892B09F08FC007
:101DC000F9E0EF16F1040CF08AC081C05B010894C1
:101DD000A108B1089A01220F331FCA01E3E0880F5E
:101DE000991FEA95E1F7280F391FE901CA0DDB1D9C
:101DF0007E01EE0CFF1CF701E950FF4F60807180FF
:101E0000681479040CF06EC0F901E60FF71FA3E027
:101E1000EE0FFF1FAA95E1F7ED53FE4F80819181F0
:101E2000019709F05FC06E01E3E0CC0CDD1CEA9580
:101E3000E1F78FEB91E0C80ED91EF6018081918108
:101E4000019709F04FC0161617060CF04BC0F801A9
:101E500051834083B382A282B50161507040D901A1
:101E6000A60FB71FFD01EE0FFF1FE950FF4F808146
:101E7000918186159705ACF583E0AA0FBB1F8A9563
:101E8000E1F7A154BE4F8D919C91019751F5F3E07C
:101E9000CC0FDD1FFA95E1F7CF53DE4F8881998192
:101EA000892BF9F4EE0CFF1CEE0CFF1C83EC91E087
:101EB000E80EF91EF70180819181019791F4F601F6
:101EC00086819781892B69F41A141B0454F4F80154
:101ED0007383628307C0A60105C0A70103C0B701D1
:101EE00001C0B5010C5F1F4FF5E005321F0769F413
:101EF00081E060E00E94FF0188E790E00E945702C5
:101F000082E090E00E94770018C0DA01AA0FBB1FA0
:101F1000CA0123E0880F991F2A95E1F7A80FB91F7E
:101F2000A60FB71FFD01EE0FFF1FE950FF4F808086
:101F300091808114910409F0A1CDDF91CF911F917F
:101F40000F91FF90EF90DF90CF90BF90AF909F9058
:101F50008F907F906F9008956F927F928F929F9253
:101F6000AF92BF92CF92DF92EF92FF920F931F93A7
:101F7000CF93DF933C016B01A0E0B0E004E110E0FF
:101F8000C4E6D0E00AC0C193D19301968A3091058E
:101F9000D1F71196AA30B10561F0A09FF001A19F81
:101FA000F00DB09FF00D1124E950FF4F80E090E05C
:101FB000EACFCA01FA0143E0EE0FFF1F4A95E1F7AD
:101FC000880F991FE80FF91FE20FF31FEE0FFF1F95
:101FD000E950FF4F1182108200E010E0B4E18B2E37
:101FE000912CA6EFAA2EAFEFBA2E9BC054968D91DE
:101FF0009C9155978017910709F04AC0808591857B
:10200000019779F484899589019759F456968D91B1
:102010009C9157978436910521F457967C936E9343
:10202000569782859385019779F4E25AFF4F808114
:102030009181EE55F040019739F48E899F8984365D
:10204000910511F47F8B6E8B84859585019759F4EA
:1020500080819181019739F4888199818436910535
:1020600011F47983688386859785019789F4E6540E
:10207000F04080819181EA5BFF4F019749F48D9197
:102080009C9111978436910519F411967C936E9367
:10209000129638962296AE15BF0509F0A7CF4F5F6E
:1020A0005F4FF4E1EF2EF12CEA0EFB1E4A30510592
:1020B00031F1489DD001499DB00D589DB00D1124BE
:1020C000AD51BF4F4A9DC0014B9D900D5A9D900D43
:1020D000112401969C01E3E0220F331FEA95E1F7FA
:1020E000EE27FF27E21BF30BE154FE4F880F991FE9
:1020F000CC27DD27C81BD90BC950DF4F77CF0F5F27
:102100001F4F0333110569F481E060E00E94FF0175
:1021100084E890E00E94570282E090E00E947700FD
:1021200020C0C301F30173E0EE0FFF1F7A95E1F7C2
:10213000880F991FE80FF91FEC0DFD1DEE0FFF1F13
:10214000E950FF4F808191818436910551F447EF2A
:10215000E42E40E0F42E40E050E0B8016F5F7F4F86
:10216000A8CFDF91CF911F910F91FF90EF90DF905B
:10217000CF90BF90AF909F908F907F906F90089579
:10218000CF93DF93EC018130910579F48091CB00FE
:102190009091CC002FEF8F3F920719F0029729F40E
:1021A00032C00E9461050E94D505C230D10581F47C
:1021B0008091CB009091CC002FEF8F3F920719F0C8
:1021C000019731F423C00E9497050E94D5050EC0E7
:1021D0008FEFCF3FD80751F48091CB009091CC0086
:1021E0002FEF8E3F920779F0029781F0CE5FDF4F9D
:1021F00089F48091CB009091CC002FEF8F3F920714
:1022000029F0019739F40E94970502C00E946105E8
:102210000E94D505AC9AAD9AAE9AAF9A81E090E053
:102220000E947700DF91CF9108950F931F93CF9372
:10223000DF93EC018B018091CD009091CE008C1743
:102240009D07ECF41092E0041092DF0481E090E02E
:102250000E94C0100BC00E94EB04CF9907C081E020
:1022600090E09093E0048093DF0402C0CC99F3CF18
:102270008FE891E099BD88BD9BBD8ABD43C0C8175A
:10228000D90784F41092E0041092DF048FEF9FEFDF
:102290000E94C01004C00E94EB04CF9B2AC0CC99BE
:1022A000FACF30C08091CF009091D0008617970769
:1022B00084F41092E0041092DF0482E090E00E9427
:1022C000C01004C00E94EB04CF9B13C0CC99FACF7E
:1022D00019C068177907D4F41092E0041092DF0453
:1022E0008EEF9FEF0E94C0100BC00E94EB04CF99AD
:1022F00007C081E090E09093E0048093DF0402C087
:10230000CC99F3CFAC9AAD9AAE9AAF9AD093CE0057
:10231000C093CD001093D0000093CF0081E060E027
:102320000E94FF014091CD005091CE0080E090E0EE
:1023300061E070E022E030E00E94D7024091CF00DF
:102340005091D00085E090E061E070E022E030E064
:102350000E94D7024091E1005091E20083E090E0BA
:1023600060E070E025E030E00E94D702AC9AAD9AC0
:10237000AE9AAF9A84EF91E00E949000DF91CF91E6
:102380001F910F9108950F931F93CF93DF9301E057
:1023900010E06091CF007091D0004091EB0050911F
:1023A000EC002091ED003091EE008091CD009091F5
:1023B000CE000E94AC0F0E941B0D1092E004109200
:1023C000DF0481E060E00E94FF014091E50450914C
:1023D000E60480E090E060E070E022E030E00E94FF
:1023E000D7024091E7045091E80483E090E060E078
:1023F00070E022E030E00E94D7024091E904509161
:10240000EA0486E090E060E070E022E030E00E94C4
:10241000D7024091EB045091EC0489E090E060E039
:1024200070E022E030E00E94D70284E090E00E9459
:102430007700C5EED4E088819981892B21F48A81C7
:102440009B81892BB1F08091DF049091E00401978A
:1024500029F402C00E94EB048799FCCF6A817B813A
:10246000888199810E941511249685E0C132D80790
:1024700011F7AC9AAD9AAE9AAF9A82E090E00E94C2
:1024800077001092E2001092E1001092EA001092A0
:10249000E9008091DF049091E004019719F40E9413
:1024A000A51206C01093F0000093EF000E944809A7
:1024B0001092E2001092E1001092F0001092EF00F2
:1024C0001092F2001092F1001BC00E94EB0485B341
:1024D000807F85BB85B39091D200892B85BBCF9936
:1024E00002C00E94A5120E9448090E94C80980915A
:1024F000E1009091E20001969093E2008093E10068
:102500008091F1009091F200892BF9F20E94320A39
:102510001092EC001092EB001092EE001092ED0081
:102520000E94E70A8091EB009091EC00892B09F062
:1025300030CF8091ED009091EE00892B09F029CFEA
:10254000DF91CF911F910F9108950F931F93CF9318
:10255000DF938FE891E09BBD8ABD99BD88BDAC9AA1
:10256000AD9AAE9AAF9A81E060E00E94FF0120919F
:10257000E1003091E20087E0213D38071CF082E065
:1025800090E002C081E090E09093EA008093E9003F
:10259000232B21F41092EA001092E9000E946C08AB
:1025A0008091D9009091DA009093DE008093DD0055
:1025B00004C00E94EB040E9496048799FACFCE993A
:1025C00095C1869993C1CD9991C1CF998FC1C09181
:1025D000CD00D091CE000091CF001091D00080E0CE
:1025E00090E060E070E041E050E020E030E00E94E8
:1025F000AB0681E060E00E94FF01AC9AAD9AAE9A12
:10260000AF9A81E090E00E9477000E9423050E942B
:10261000D5050E94320A0E94E70A0E94B60181E0B5
:1026200060E00E94FF0180E090E060E070E040E93F
:1026300050E00E94CC024091EB005091EC0084E00D
:1026400090E060E070E022E030E00E94D70287E096
:1026500090E060E070E045E950E00E94CC024091DB
:10266000ED005091EE008BE090E060E070E022E041
:1026700030E00E94D70280E090E061E070E04AE93B
:1026800050E00E94CC024091CD005091CE0084E0F9
:1026900090E061E070E022E030E00E94D70287E045
:1026A00090E061E070E04EE950E00E94CC02409181
:1026B000CF005091D0008BE090E061E070E022E02C
:1026C00030E00E94D70285E090E00E947700809180
:1026D000EB009091EC00892B41F08091ED009091FE
:1026E000EE00892B11F00E94C31184E090E09093DA
:1026F000CE008093CD009093D0008093CF0082E0F5
:1027000090E09093CC008093CB0082EA90E00E940E
:1027100057028299B1C184E090E064E070E0AE01BC
:1027200098010E94AC0F0E941B0D1092E0041092C1
:10273000DF0481E060E00E94FF0180E090E060E063
:1027400070E0AE0122E030E00E94D70285E090E028
:1027500060E070E0A80122E030E00E94D70285E04E
:1027600090E00E9477004091E5045091E60480E0FB
:1027700090E060E070E021E030E00E94D7024091FC
:10278000E7045091E80481E090E060E070E021E02F
:1027900030E00E94D7024091E9045091EA0483E0BE
:1027A00090E060E070E021E030E00E94D7024091CC
:1027B000EB045091EC0484E090E060E070E021E0F4
:1027C00030E00E94D7024091ED045091EE0486E083
:1027D00090E060E070E021E030E00E94D70240919C
:1027E000EF045091F00487E090E060E070E021E0B9
:1027F00030E00E94D7024091F1045091F20489E048
:1028000090E060E070E021E030E00E94D70240916B
:10281000F3045091F4048AE090E060E070E021E07D
:1028200030E00E94D7024091F5045091F6048CE00C
:1028300090E060E070E021E030E00E94D70240913B
:10284000F7045091F8048DE090E060E070E021E042
:1028500030E00E94D7024091F9045091FA0480E0E0
:1028600090E061E070E021E030E00E94D70240910A
:10287000FB045091FC0481E090E061E070E021E015
:1028800030E00E94D702AC9AAD9AAE9AAF9A829984
:10289000FAC081E060E00E94FF0181E090E00E94C8
:1028A0007700C5EED4E088819981892B21F48A8153
:1028B0009B81892BB1F08091DF049091E004019716
:1028C00029F402C00E94EB048799FCCF6A817B81C6
:1028D000888199810E941511249685E0C132D8071C
:1028E00011F7AC98AD98AE98AF98FBCFCE9B02C0D5
:1028F000869907C081E090E09093DC008093DB0034
:1029000004C01092DC001092DB000E949705109228
:10291000D8001092D700AC9AAD9AAE9AAF9A1092A6
:10292000E0001092DF001092E2001092E10020918E
:10293000D9003091DA008091DD009091DE00281BF3
:10294000390B3093E6002093E5008091DB009091F5
:10295000DC0081309105A9F42130310509F054C023
:1029600081E090E061E070E041E050E020E030E0A4
:102970000E94AB0680E090E061E070E040EB50E048
:102980002AC0892B09F06DC02130310589F480E01F
:1029900090E061E070E041E050E021E030E00E9432
:1029A000AB0680E090E061E070E042EB50E03FC0B9
:1029B000232B09F056C080E090E061E070E041E038
:1029C00050E020E030E00E94AB0680E090E061E063
:1029D00070E042EB50E00E94CC0282E090E061E0C7
:1029E00070E040EB50E00E94CC0284E090E061E0B7
:1029F00070E040EB50E00E94CC0286E090E061E0A5
:102A000070E042EB50E02BC02230310551F581E0FF
:102A100090E061E070E041E050E021E030E00E94B1
:102A2000AB0680E090E061E070E040EB50E00E9497
:102A3000CC0282E090E061E070E040EB50E00E9468
:102A4000CC0284E090E061E070E040EB50E00E9456
:102A5000CC0286E090E061E070E040EB50E00E9444
:102A6000CC021092E6001092E5000E94D505DF919D
:102A7000CF911F910F910895809B4DCE819B4BCE9E
:102A8000839B49CE46CE809B04CF819B02CF839B04
:102A900000CFFDCE0E944F0481E060E00E94FF0164
:102AA00084EB90E00E94570220E030E040E550E0E7
:102AB00012C0118210821382128215821482178230
:102AC0001682019638968A30910599F72F5F3F4F0D
:102AD0002A30310561F0249FF001259FF00D349FCD
:102AE000F00D1124E154FE4F80E090E0E2CF81E050
:102AF00060E00E94FF0182EA90E00E94570281E0BC
:102B000090E060E070E040E050E020E030E00E94C3
:102B1000AB0682991CC00E94EB0485B3807F85BB05
:102B200085B39091D200892B85BBCF9902C00E94BA
:102B3000A5120E9448090E94C8098091E100909165
:102B4000E20001969093E2008093E100E4CF809B45
:102B5000E2CF819BE0CF839BDECFDBCF80E090E0B4
:102B60000E9447188093210581E090E00E94471859
:102B70008093220582E090E00E944718809323050D
:102B800083E090E00E944718809324050895CF9336
:102B9000DF93209125058091E10490E0820F911D43
:102BA0009595879580932105209126058091E204D3
:102BB00090E0820F911D9595879580932205209135
:102BC00027058091E30490E0820F911D95958795EC
:102BD00080932305209128058091E40490E0820FE2
:102BE000911D9595879580932405C0E0D0E0FE0166
:102BF000EF5DFA4FCE0160810E944F182196C430DC
:102C0000D105A9F7DF91CF9108955058BB27AA2786
:102C10000ED075C166D130F06BD120F031F49F3FFA
:102C200011F41EF45BC10EF4E095E7FB51C1E92FEE
:102C300077D180F3BA17620773078407950718F0F6
:102C400071F49EF58FC10EF4E0950B2EBA2FA02DD6
:102C50000B01B90190010C01CA01A0011124FF2749
:102C6000591B99F0593F50F4503E68F11A16F04044
:102C7000A22F232F342F4427585FF3CF4695379543
:102C80002795A795F0405395C9F77EF41F16BA0B08
:102C9000620B730B840BBAF09150A1F0FF0FBB1FB6
:102CA000661F771F881FC2F70EC0BA0F621F731FFF
:102CB000841F48F4879577956795B795F7959E3F5C
:102CC00008F0B3CF9395880F08F09927EE0F9795EA
:102CD00087950895D9D008F481E008950CD00FC1EC
:102CE00007D140F0FED030F021F45F3F19F0F0C082
:102CF000511139C1F3C014D198F39923C9F3552365
:102D0000B1F3951B550BBB27AA27621773078407DE
:102D100038F09F5F5F4F220F331F441FAA1FA9F394
:102D200033D00E2E3AF0E0E830D091505040E69586
:102D3000001CCAF729D0FE2F27D0660F771F881FE7
:102D4000BB1F261737074807AB07B0E809F0BB0BD6
:102D5000802DBF01FF2793585F4F2AF09E3F5105FA
:102D600068F0B6C000C15F3FECF3983EDCF3869597
:102D700077956795B795F7959F5FC9F7880F911D70
:102D80009695879597F90895E1E0660F771F881F5C
:102D9000BB1F621773078407BA0720F0621B730B0F
:102DA000840BBA0BEE1F88F7E095089504D0689461
:102DB000B111D9C00895BCD088F09F5790F0B92FB9
:102DC0009927B751A0F0D1F0660F771F881F991F80
:102DD0001AF0BA95C9F712C0B13081F0C3D0B1E092
:102DE0000895C0C0672F782F8827B85F39F0B93FA2
:102DF000CCF3869577956795B395D9F73EF4909582
:102E00008095709561957F4F8F4F9F4F0895E894FF
:102E100009C097FB3EF490958095709561957F4F22
:102E20008F4F9F4F9923A9F0F92F96E9BB279395D0
:102E3000F695879577956795B795F111F8CFFAF4E0
:102E4000BB0F11F460FF1BC06F5F7F4F8F4F9F4F11
:102E500016C0882311F096E911C0772321F09EE86F
:102E6000872F762F05C0662371F096E8862F70E0D5
:102E700060E02AF09A95660F771F881FDAF7880FAF
:102E80009695879597F90895990F0008550FAA0B05
:102E9000E0E8FEEF16161706E807F907C0F012166D
:102EA0001306E407F50798F0621B730B840B950B70
:102EB00039F40A2661F0232B242B252B21F40895C5
:102EC0000A2609F4A140A6958FEF811D811D089562
:102ED00097F99F6780E870E060E008959FEF80ECCD
:102EE000089500240A941616170618060906089570
:102EF00000240A9412161306140605060895092ED6
:102F00000394000C11F4882352F0BB0F40F4BF2B44
:102F100011F460FF04C06F5F7F4F8F4F9F4F089584
:102F200057FD9058440F551F59F05F3F71F047957A
:102F3000880F97FB991F61F09F3F79F0879508955F
:102F4000121613061406551FF2CF4695F1DF08C07E
:102F5000161617061806991FF1CF8695710561059B
:102F600008940895E894BB2766277727CB0197F943
:102F700008958ADF08F48FEF08950BD0C0CFB1DF3A
:102F800028F0B6DF18F0952309F0A2CFA7CF1124BF
:102F9000EACFC6DFA0F3959FD1F3950F50E0551F00
:102FA000629FF001729FBB27F00DB11D639FAA279E
:102FB000F00DB11DAA1F649F6627B00DA11D661FED
:102FC000829F2227B00DA11D621F739FB00DA11D0E
:102FD000621F839FA00D611D221F749F3327A00DC8
:102FE000611D231F849F600D211D822F762F6A2F64
:102FF00011249F5750408AF0E1F088234AF0EE0FE9
:10300000FF1FBB1F661F771F881F91505040A9F7F5
:103010009E3F510570F05CCFA6CF5F3FECF3983E2A
:10302000DCF3869577956795B795F795E7959F5F5C
:10303000C1F7FE2B880F911D9695879597F90895F6
:1030400097FB092E07260AD077FD04D00CD006D0B6
:1030500000201AF4709561957F4F0895F6F79095CA
:1030600081959F4F0895AA1BBB1B51E107C0AA1F62
:10307000BB1FA617B70710F0A61BB70B881F991F19
:103080005A95A9F780959095BC01CD010895E199D5
:10309000FECF9FBB8EBBE09A99278DB30895262F54
:1030A000E199FECF9FBB8EBB2DBB0FB6F894E29A81
:0C30B000E19A0FBE01960895F894FFCF3E
:1030BC004552524F5220467220536E73720046692D
:1030CC006C6C6961626C650042726F6B652070613B
:1030DC007468200042726F6B65206275696C6400C5
:1030EC006D783A20006D793A2000783A2000793AD0
:1030FC002000507265737320416E79204B65790006
:10310C00310030004C434420576F726B696E67007E
:10311C00FF00000070416666464073020004000424
:02312C000000A1
:00000001FF
