:100000000C942A000C9447000C9447000C94470071
:100010000C9447000C9447000C9447000C94470044
:100020000C9447000C9447000C9447000C94470034
:100030000C9447000C9447000C9447000C94470024
:100040000C9447000C9447000C9447000C94470014
:100050000C94470011241FBECFE5D4E0DEBFCDBF16
:1000600010E0A0E6B0E0EAE9FCE102C005900D92E4
:10007000A03EB107D9F713E0A0EEB0E001C01D9299
:10008000A939B107E1F70E94450B0C944B0E0C9473
:1000900000008FEF8BBB1ABA88BB17BA15BA84BBA6
:1000A00082BB11BA08958C9A8D9A1EBC1DBC1CBCD3
:1000B0001BBC1ABC19BC18BC81E087BD8FE886BD8B
:1000C00082EA8FBD89E18EBD08951ABA16B880E61E
:1000D00087B987E886B980E888B9089515B8877028
:1000E000806687B9369A3699FECF85B10895AC01FE
:1000F00030E060E971E00CC0FB013197F1F7019746
:10010000D9F72F5F243019F084EC99E0F5CF3F5FE9
:10011000832F90E08417950714F420E0F5CF08951D
:10012000AF92BF92CF92DF92EF92FF920F931F9305
:10013000AA2797FDA095BA2FBC01CD010E94F80C0B
:100140005B016C0120E030E04AE755E40E94AC0D11
:100150007B018C0120E030E040E85FE30E94590C15
:1001600088231CF461E070E024C0C801B70120E0DE
:100170003FEF4FE757E40E94A80D1816B4F4C601EC
:10018000B50120E030E040E251E40E94AC0D0E9455
:10019000CA0C80E991E005C0FC013197F1F761508C
:1001A000704061157105C1F707C0C801B7010E9411
:1001B000CA0CCB010197F1F71F910F91FF90EF90BF
:1001C000DF90CF90BF90AF900895AF92BF92CF9243
:1001D000DF92EF92FF920F931F93AA2797FDA095AE
:1001E000BA2FBC01CD010E94F80C5B016C012BEA17
:1001F0003AEA4AEA50E40E94AC0D7B018C0120E00F
:1002000030E040E85FE30E94590C882314F461E079
:1002100054C0C801B70120E030E04FE753E40E942A
:10022000A80D18160CF045C0C601B50120E030E05D
:100230004AE754E40E945D0C5B016C0120E030E071
:100240004AE755E40E94AC0D7B018C0120E030E0D0
:1002500040E85FE30E94590C88231CF461E070E0E1
:1002600024C0C801B70120E03FEF4FE757E40E94E8
:10027000A80D1816B4F4C601B50120E030E040E244
:1002800051E40E94AC0D0E94CA0C80E991E005C0C7
:10029000FC013197F1F76150704061157105C1F7AC
:1002A0000EC0C801B7010E94CA0CCB010197F1F73B
:1002B00006C0C801B7010E94CA0C6A95F1F71F91E8
:1002C0000F91FF90EF90DF90CF90BF90AF90089587
:1002D0000F931F93CF93DF931092E000C0E0D0E024
:1002E00001E010E08C2F0E946E00863460F49801CB
:1002F0000C2E02C0220F331F0A94E2F78091E00017
:10030000822B8093E0002196C430D10559F7DF910C
:10031000CF911F910F91089580E00E946E0080930D
:10032000850381E00E946E008093860382E00E9434
:100330006E008093870383E00E946E0080938803A1
:10034000089580E00E946E0080938D0381E00E94FA
:100350006E0080938E0382E00E946E0080938F0374
:1003600083E00E946E008093900308951F93CF93C3
:10037000DF93C0E0D0E01FEF15BB84E690E00E9461
:10038000900015BA84E690E00E9490002196C53056
:10039000D10591F7DF91CF911F9108959BBD8ABD43
:1003A000089599BD88BD089587B3807F87BBC69A9D
:1003B000C59882E08A95F1F722E035E0C79A822F4E
:1003C0008A95F1F786B38295807F922F9A95F1F7FF
:1003D000C798932F9A95F1F7C79A922F9A95F1F7AC
:1003E00096B3922F9A95F1F7C798932F9A95F1F7B4
:1003F00087FDE4CFC69887B38F6087BB0895282F09
:10040000662311F4C59801C0C59A82E08A95F1F778
:10041000C79A88B3922F92959F70807F982B98BB34
:1004200095E0892F8A95F1F7C798892F8A95F1F77A
:10043000C79A88B32F70807F822B88BB892F8A95BB
:10044000F1F7C7989A95F1F70E94D40108951F9388
:10045000182F8CE291E020E931E0F9013197F1F7B2
:100460000197D9F787B38F6087BBBF9ABD9ABE9AB1
:1004700088B3807F88BBC798C698C59881E08A9565
:10048000F1F7C79AC19A85E0982F9A95F1F7C79826
:100490008A95F1F70E94D401812F8C6060E00E9460
:1004A000FF0188E260E00E94FF011F910895CF9351
:1004B000DF93EC0104C061E00E94FF012196888176
:1004C0008823C9F7DF91CF910895EF92FF920F93A0
:1004D0001F93DF93CF9300D000D00F92CDB7DEB73C
:1004E0009C018B01FE01319685E0DF011D928A950A
:1004F000E9F7FE0135960DC0C9016AE070E00E947F
:100500000F0E8083C9016AE070E00E940F0E9B010C
:1005100031972115310581F7BFEF0F3F1B0779F4A4
:1005200020E030E0AE014F5F5F4F02C02F5F3F4FD2
:10053000FA01E20FF31F80818823C1F304C025E094
:1005400030E0201B310B7E010894E11CF11CE20E0F
:10055000F31E890109C0F70181917F01805D61E08F
:100560000E94FF010F5F1F4F05301105A4F30F908C
:100570000F900F900F900F90CF91DF911F910F91DF
:10058000FF90EF900895883230F4611180648068A4
:1005900060E00E94FF0108950F931F938A010E945B
:1005A000C302C8010E9457021F910F910895EF9254
:1005B000FF920F931F938A0179010E94C302C80121
:1005C000B7010E9465021F910F91FF90EF9008956F
:1005D0001AB81BB887E080BD87E689B910BC88E9E6
:1005E0008AB908955D9BFECF8CB90895FC0104C0C3
:1005F0005D9BFECF8CB9319680818823C9F7089521
:100600005D9BFECF8AE08CB95D9BFECF8DE08CB9FF
:1006100008955F9BFECF8CB108958FEF84BB089542
:10062000AC9AAD98AE98AF980895AC98AD9AAE9844
:10063000AF980895AC98AD98AE9AAF980895AC98DD
:10064000AD98AE9AAF980895AC9AAD98AE98AF9821
:100650000895AC98AD98AE98AF9A0895AC9AAD98BD
:10066000AE9AAF980895AC98AD9AAE98AF9A0895A7
:10067000AC98AD9AAE9AAF980895AC9AAD98AE98F2
:10068000AF9A0895AC98AD98AE98AF980895AC9A8B
:10069000AD9AAE9AAF9A089582B38F6082BB81B350
:1006A000807F81BB089520B330E020953095217084
:1006B0003070C901089520B330E036952795209514
:1006C000309521703070C901089520B330E036951F
:1006D0002795369527952095309521703070C90162
:1006E000089520B330E043E0369527954A95E1F729
:1006F0002095309521703070C90108956F927F92D6
:100700008F929F92AF92BF92CF92DF92EF92FF9221
:100710000F931F93AC9AAD98AE9AAF988091E0007A
:10072000863091F1873060F48230B1F0833018F474
:100730008130C1F531C08330A9F0843099F509C00A
:10074000883039F18830A0F08C3049F08E3051F586
:100750000CC081E090E022C08FEF9FEF1FC083E0CC
:1007600090E01CC08DEF9FEF05C084E090E016C0C4
:100770008CEF9FEF9093E2008093E1008091ED0079
:100780009091EE00019771F41092E2001092E10056
:1007900009C086E090E002C08AEF9FEF9093E200EC
:1007A0008093E1006091E1007091E200882777FD7D
:1007B0008095982F0E94F80C5B016C016091910369
:1007C000709192038091930390919403A6019501F7
:1007D0000E94F40B7B018C01609395037093960348
:1007E0008093970390939803C601B5012091D000A0
:1007F0003091D1004091D2005091D3000E94AC0DB5
:100800003B014C01C801B7012091D4003091D500C3
:100810004091D6005091D7000E94AC0D9B01AC01D5
:10082000C401B3010E94F40B7B018C016093F900B9
:100830007093FA008093FB009093FC00A0929103C8
:10084000B0929203C0929303D09294036091CE0031
:100850007091CF0080E090E00E94F60C5B016C018B
:10086000A80197010E94F40B0E94C50C7BBD6ABDD4
:10087000C601B501A80197010E94F50B0E94C50CA5
:1008800079BD68BD1F910F91FF90EF90DF90CF90E1
:10089000BF90AF909F908F907F906F9008950E942F
:1008A00049001ABA16B880E687B987E886B980E8A1
:1008B00088B98FEF84BB82E00E94270282B38F60E9
:1008C00082BB81B3807F81BB0E945300089585E77E
:1008D0008093D80020EF30E082E291E008C03BBD79
:1008E0002ABD99BD88BDAC98AD9AAE9AAF98CD9906
:1008F000F6CF09C03BBD2ABD99BD88BDAC98AD9A65
:10090000AE9AAF9804C029EB30E087ED90E0CE9B23
:1009100002C08699EFCF8FE891E09BBD8ABD99BD5B
:1009200088BDAC9AAD9AAE9AAF9A0895CC9916C08C
:100930008091E5009091E600892BA1F48091E70079
:100940009091E80001969093E8008093E70081E0A1
:1009500090E09093E6008093E50008951092E60001
:100960001092E5000895CD9B06C08091ED00909116
:10097000EE00019779F581E090E09093EE0080938E
:10098000ED00CC9927C0869B14C0CE9B12C0089561
:100990003BBD2ABD39BD28BDAC9AAD98AE9AAF9883
:1009A00080E090E0879909C0AC9AAD9AAE9AAF9A70
:1009B00004C081E090E020EF30E0CC9B05C0909334
:1009C000EE008093ED0008958799E2CF9093EE00BA
:1009D0008093ED0008950E946801AC9AAD98AE9A9C
:1009E000AF98CE9B09C0869907C086EE90E09BBD6C
:1009F0008ABD82E291E01AC0869B09C0CE9907C0E9
:100A000082E291E09BBD8ABD86EE90E00FC0869B9E
:100A100005C0CE9B03C00E947E030AC0869908C011
:100A2000CE9906C084E091E09BBD8ABD99BD88BD8A
:100A30008AE090E00E94E50008958CE68093D8005B
:100A400089E091E008C09BBD8ABD99BD88BDAC9886
:100A5000AD9AAE9AAF98CD99F6CF09C09BBD8ABD2D
:100A600099BD88BDAC98AD9AAE9AAF9802C082EDA0
:100A700090E0CE9B05C08699F1CF02C00E94EB04A6
:100A8000CC9BFCCF879BFACF8FE891E09BBD8ABDC2
:100A900099BD88BDAC9AAD9AAE9AAF9A0895CF939E
:100AA000DF9382E78093D800CFEFD0E00AC0DBBDB0
:100AB000CABDD9BDC8BDAC9AAD98AE98AF9A0E94D8
:100AC0009604CF99F4CF0BC0DBBDCABDD9BDC8BD5C
:100AD000AC9AAD98AE98AF9A0E94960402C0C2ED4F
:100AE000D0E0CE9B05C08699EFCF02C00E94EB04F8
:100AF000CC9BFCCF879BFACF8FE891E09BBD8ABD52
:100B000099BD88BDAC9AAD9AAE9AAF9ADF91CF915C
:100B100008958091D8008237D1F48091D9009091C6
:100B2000DA002FEF8F3F920759F12FEF8F3F920797
:100B300009F02CF48E5F9F4F09F051C03DC0813009
:100B4000910509F43FC0029709F049C038C08C36BE
:100B5000D1F48091D9009091DA002FEF8F3F920766
:100B600089F12FEF8F3F920709F024F48E5F9F4F9A
:100B7000B1F525C08130910519F0029781F51CC0AF
:100B800082E090E021C0853751F58091D9009091A5
:100B9000DA002FEF8F3F920791F02FEF8F3F9207F0
:100BA00009F024F48E5F9F4FD1F413C0813091057A
:100BB00019F00297A1F406C08FEF9FEF05C081E006
:100BC00090E002C08EEF9FEF9093DA008093D900FF
:100BD000089582E090E09093DA008093D900089520
:100BE000EF92FF920F931F93CF93DF938C017901C4
:100BF0008091DB009091DC002091DD003091DE00DF
:100C0000FC01A3E0EE0FFF1FAA95E1F7E80FF91F23
:100C1000E20FF31FDF0123E0AA0FBB1F2A95E1F7C4
:100C2000A350BF4F8D919C911197892B09F062C001
:100C3000EF0193E0CC0FDD1F9A95E1F7C150DF4F34
:100C400088819981892B09F055C083E0EE0FFF1F41
:100C50008A95E1F7EF5FFE4F80819181892B09F042
:100C600049C016968D919C911797892B09F042C027
:100C70008091D9009091DA002FEF8F3F920781F198
:100C80002FEF8F3F920709F024F48E5F9F4F91F56D
:100C90001CC08130910571F0029761F511961C938B
:100CA0000E9379836883518340831796FC92EE926A
:100CB000169720C0198308837183608317965C930D
:100CC0004E931697ED92FC9215C0118300831796F0
:100CD0007C936E9316974D935C93F982E8820AC0D9
:100CE00017961C930E9316976D937C9359834883A4
:100CF000F182E082DF91CF911F910F91FF90EF90F1
:100D000008952091F7003091F8008091D9009091DA
:100D1000DA002230310509F079C02FEF8F3F9207BA
:100D200051F14FEF8F3F940709F02CF48E5F9F4FE6
:100D300009F0A2C052C08130910521F0029709F05C
:100D40009BC032C08091DB009091DC0001969093B3
:100D5000DC008093DB0081E090E060E070E041E047
:100D600050E020E030E00E94F0058091DB0090919F
:100D7000DC0001966BC08091DB009091DC00019754
:100D80009093DC008093DB0081E090E060E070E015
:100D900041E050E020E030E00E94F0058091DB006F
:100DA0009091DC00019752C08091DD009091DE00AF
:100DB00001969093DE008093DD0081E090E060E09A
:100DC00070E041E050E020E030E00E94F0058091CA
:100DD000DD009091DE0001964BC08091DD00909186
:100DE000DE0001979093DE008093DD0081E090E0CB
:100DF00060E070E041E050E020E030E00E94F0056B
:100E00008091DD009091DE00019732C04FEF8F3F5F
:100E10009407B1F04FEF8F3F940709F024F48E5FF1
:100E20009F4F51F51FC08130910519F0029721F5B0
:100E300012C08091DB009091DC00820F931F06C0EE
:100E40008091DB009091DC00821B930B9093DC007F
:100E50008093DB0011C08091DD009091DE00820F55
:100E6000931F06C08091DD009091DE00821B930BE2
:100E70009093DE008093DD0081E060E00E94FF013E
:100E80004091DB005091DC0084E090E060E070E095
:100E900022E030E00E94D7024091DD005091DE0058
:100EA00088E090E060E070E022E030E00E94D7024D
:100EB0001092F8001092F7000895CF93DF93CD9928
:100EC00020C0C1E0D0E0D093EE00C093ED0080914F
:100ED000EF009091F000815D97405CF081E060E070
:100EE0000E94FF0182E090E09093F8008093F70069
:100EF00008C081E060E00E94FF01D093F800C09339
:100F0000F700CE9B02C0869917C0CC9915C0AC9A49
:100F1000AD9AAE9AAF9A0E94810681E090E060E0BF
:100F200070E041E050E021E030E00E94F0051092D6
:100F3000F0001092EF0022C0CC9920C0CE9B1EC0C2
:100F4000869B1CC00E9481061092F0001092EF0058
:100F50000E941D0580E090E060E070E041E050E01C
:100F600021E030E00E94F005AC9AAD9AAE9AAF9ABB
:100F70000E9489051092EE001092ED000E94B304C9
:100F8000DF91CF910895CE9B2DC0869B2BC0809181
:100F9000E000833041F08C3031F0843021F0823039
:100FA00011F08630B9F48091ED009091EE00892B1C
:100FB000C9F48091EF009091F000815D97401CF0A2
:100FC00082E090E002C081E090E09093F80080938E
:100FD000F70008C081E060E00E94FF0180E690E039
:100FE0000E9457028091E000882371F5CC9B2CC0B1
:100FF000CD9B2AC0CE9B28C0CF9B26C0869B24C0F9
:10100000879B22C08091ED009091EE00892BE1F446
:10101000AC9AAD9AAE9AAF9A0E94810680E090E0B9
:1010200060E070E041E050E020E030E00E94F00538
:101030000E9467040E9489051092EE001092ED0054
:101040001092F0001092EF000895CF92DF92EF928D
:10105000FF920F931F93CF93DF93CF990DC3AC9A59
:10106000AD9AAE9AAF9A81E060E00E94FF01809154
:10107000EF009091F000815D97401CF082E090E0DD
:1010800002C081E090E09093F8008093F7000E9406
:1010900081068091E7009091E8009093EC008093A6
:1010A000EB0004C00E94EB040E9496048799FACFDB
:1010B000CE99F2C18699F0C1CD99EEC1CF99ECC11C
:1010C00081E060E00E94FF010E94B6018EE690E0A0
:1010D0000E945702C5E0D0E075E0C72ED12C83995D
:1010E00076C081E060E00E94FF018CE790E00E9402
:1010F000570281E090E00E94770081E060E00E946A
:10110000FF010894C108D10887E890E00E945702C7
:101110008E0163E0000F111F6A95E1F70C0F1D1F90
:101120000C0D1D1D53E0000F111F5A95E1F74DEFF7
:10113000E42E40E0F42EE00EF11EF70140815181D3
:1011400082E090E060E070E021E030E00E94D702B1
:10115000F801E150FF4F4081518184E090E060E070
:1011600070E021E030E00E94D7020F5F1E4FF801CF
:101170004081518186E090E060E070E021E030E065
:101180000E94D702F7014681578188E090E060E035
:1011900070E021E030E00E94D7028AE090E060E059
:1011A00070E049E850E00E94CC0280E090E061E00D
:1011B00070E0AE0121E030E00E94D70282E090E0D2
:1011C00061E070E0A60121E030E00E94D702829940
:1011D00074C081E060E00E94FF018BE890E00E9413
:1011E000570281E090E00E94770081E060E00E9479
:1011F000FF01219787E890E00E9457028E0193E05B
:10120000000F111F9A95E1F70C0F1D1F0C0D1D1DEE
:1012100083E0000F111F8A95E1F7BDEFEB2EB0E0E0
:10122000FB2EE00EF11EF7014081518182E090E03B
:1012300060E070E021E030E00E94D702F801E15068
:10124000FF4F4081518184E090E060E070E021E058
:1012500030E00E94D7020F5F1E4FF801408151819C
:1012600086E090E060E070E021E030E00E94D7028C
:10127000F7014681578188E090E060E070E021E06E
:1012800030E00E94D7028AE090E060E070E049E838
:1012900050E00E94CC0280E090E061E070E0AE019E
:1012A00021E030E00E94D70282E090E061E070E04F
:1012B000A60121E030E00E94D702819974C081E04C
:1012C00060E00E94FF0186E990E00E94570281E001
:1012D00090E00E94770081E060E00E94FF0121968B
:1012E00087E890E00E9457028E01E3E0000F111F93
:1012F000EA95E1F70C0F1D1F0C0D1D1D73E0000F8B
:10130000111F7A95E1F76DEFE62E60E0F62EE00E04
:10131000F11EF7014081518182E090E060E070E0D1
:1013200021E030E00E94D702F801E150FF4F4081F8
:10133000518184E090E060E070E021E030E00E94C4
:10134000D7020F5F1E4FF8014081518186E090E087
:1013500060E070E021E030E00E94D702F7014681B2
:10136000578188E090E060E070E021E030E00E948A
:10137000D7028AE090E060E070E049E850E00E9427
:10138000CC0280E090E061E070E0AE0121E030E06E
:101390000E94D70282E090E061E070E0A60121E0C7
:1013A00030E00E94D70280999ACE81E060E00E94EE
:1013B000FF0181EA90E00E94570281E090E00E94E4
:1013C000770081E060E00E94FF010894C11CD11CFD
:1013D00087E890E00E9457028E0133E0000F111F52
:1013E0003A95E1F70C0F1D1F0C0D1D1D23E0000F9A
:1013F000111F2A95E1F79DEFE92E90E0F92EE00EFE
:10140000F11EF7014081518182E090E060E070E0E0
:1014100021E030E00E94D702F801E150FF4F408107
:10142000518184E090E060E070E021E030E00E94D3
:10143000D7020F5F1E4FF8014081518186E090E096
:1014400060E070E021E030E00E94D702F7014681C1
:10145000578188E090E060E070E021E030E00E9499
:10146000D7028AE090E060E070E049E850E00E9436
:10147000CC0280E090E061E070E0AE0121E030E07D
:101480000E94D70282E090E061E070E0A60121E0D6
:1014900030E00E94D70223CECE9B02C0869907C0BF
:1014A00081E090E09093EA008093E90004C01092FC
:1014B000EA001092E9000E944F051092E600109297
:1014C000E500AC9AAD9AAE9AAF9A1092EE001092E7
:1014D000ED001092F0001092EF008091E7009091E3
:1014E000E8002091EB003091EC00821B930B90936D
:1014F000F4008093F30081E060E00E94FF018CEA39
:1015000090E00E9457024091F3005091F40088E06F
:1015100090E060E070E022E030E00E94D70280E0DE
:1015200090E061E070E044EB50E00E94CC0240911A
:10153000E9005091EA008AE090E061E070E022E08A
:1015400030E00E94D7028091E9009091EA0081305A
:101550009105C9F48091F3009091F40081309105D8
:1015600009F058C081E090E061E070E041E050E0B7
:1015700020E030E00E94F00580E090E061E070E063
:101580004EEB50E02EC0892B09F070C08091F30023
:101590009091F4008130910589F480E090E061E061
:1015A00070E041E050E021E030E00E94F00580E092
:1015B00090E061E070E040EC50E03EC0892B09F023
:1015C00055C080E090E061E070E041E050E020E054
:1015D00030E00E94F00580E090E061E070E040ECD7
:1015E00050E00E94CC0282E090E061E070E04EEBBF
:1015F00050E00E94CC0284E090E061E070E04EEBAD
:1016000050E00E94CC0286E090E061E070E040ECA7
:1016100050E02AC0029751F581E090E061E070E06F
:1016200041E050E021E030E00E94F00580E090E0F1
:1016300061E070E04EEB50E00E94CC0282E090E06E
:1016400061E070E04EEB50E00E94CC0284E090E05C
:1016500061E070E04EEB50E00E94CC0286E090E04A
:1016600061E070E04EEB50E00E94CC021092F4007A
:101670001092F3000E948905DF91CF911F910F9185
:10168000FF90EF90DF90CF9008950E944F0481E08B
:1016900060E00E94FF0182EC90E00E94570220E08F
:1016A00030E048E450E012C01182108213821282AE
:1016B0001582148217821682019638968930910518
:1016C00099F72F5F3F4F2930310561F0249FF001DA
:1016D000259FF00D349FF00D1124E350FF4F80E063
:1016E00090E0E2CF81E060E00E94FF018EE690E0B2
:1016F0000E94570282991AC00E94EB0485B3807F32
:1017000085BB85B39091E000892B85BB0E9425089D
:101710000E945D070E94C3078091EF009091F00046
:1017200001969093F0008093EF00E6CF809BE4CF8A
:10173000819BE2CF839BE0CFDDCF80E090E00E94F1
:10174000360E8093890381E090E00E94360E8093EC
:101750008A0382E090E00E94360E80938B0383E040
:1017600090E00E94360E80938C030895CF93DF9310
:1017700020918D038091850390E0820F911D9595B6
:1017800087958093890320918E038091860390E052
:10179000820F911D9595879580938A0320918F03E1
:1017A0008091870390E0820F911D95958795809396
:1017B0008B03209190038091880390E0820F911D0C
:1017C0009595879580938C03C0E0D0E0FE01E757A4
:1017D000FC4FCE0160810E943E0E2196C430D1059F
:1017E000A9F7DF91CF9108955058BB27AA270ED0B3
:1017F00075C166D130F06BD120F031F49F3F11F408
:101800001EF45BC10EF4E095E7FB51C1E92F77D1DF
:1018100080F3BA17620773078407950718F071F40D
:101820009EF58FC10EF4E0950B2EBA2FA02D0B0163
:10183000B90190010C01CA01A0011124FF27591B15
:1018400099F0593F50F4503E68F11A16F040A22F1B
:10185000232F342F4427585FF3CF4695379527958C
:10186000A795F0405395C9F77EF41F16BA0B620B8B
:10187000730B840BBAF09150A1F0FF0FBB1F661FD2
:10188000771F881FC2F70EC0BA0F621F731F841F15
:1018900048F4879577956795B795F7959E3F08F03B
:1018A000B3CF9395880F08F09927EE0F97958795FA
:1018B0000895D9D008F481E008950CD00FC107D164
:1018C00040F0FED030F021F45F3F19F0F0C051112C
:1018D00039C1F3C014D198F39923C9F35523B1F357
:1018E000951B550BBB27AA2762177307840738F08F
:1018F0009F5F5F4F220F331F441FAA1FA9F333D0EE
:101900000E2E3AF0E0E830D091505040E695001CA1
:10191000CAF729D0FE2F27D0660F771F881FBB1F5D
:10192000261737074807AB07B0E809F0BB0B802D37
:10193000BF01FF2793585F4F2AF09E3F510568F083
:10194000B6C000C15F3FECF3983EDCF38695779517
:101950006795B795F7959F5FC9F7880F911D969585
:10196000879597F90895E1E0660F771F881FBB1FE1
:10197000621773078407BA0720F0621B730B840B8E
:10198000BA0BEE1F88F7E095089504D06894B11162
:10199000D9C00895BCD088F09F5790F0B92F9927EF
:1019A000B751A0F0D1F0660F771F881F991F1AF06A
:1019B000BA95C9F712C0B13081F0C3D0B1E0089533
:1019C000C0C0672F782F8827B85F39F0B93FCCF3B4
:1019D000869577956795B395D9F73EF49095809560
:1019E000709561957F4F8F4F9F4F0895E89409C080
:1019F00097FB3EF490958095709561957F4F8F4F42
:101A00009F4F9923A9F0F92F96E9BB279395F69557
:101A1000879577956795B795F111F8CFFAF4BB0FD5
:101A200011F460FF1BC06F5F7F4F8F4F9F4F16C039
:101A3000882311F096E911C0772321F09EE8872FC3
:101A4000762F05C0662371F096E8862F70E060E07F
:101A50002AF09A95660F771F881FDAF7880F9695F8
:101A6000879597F90895990F0008550FAA0BE0E89C
:101A7000FEEF16161706E807F907C0F01216130650
:101A8000E407F50798F0621B730B840B950B39F490
:101A90000A2661F0232B242B252B21F408950A26F6
:101AA00009F4A140A6958FEF811D811D089597F936
:101AB0009F6780E870E060E008959FEF80EC0895F4
:101AC00000240A941616170618060906089500241D
:101AD0000A9412161306140605060895092E039497
:101AE000000C11F4882352F0BB0F40F4BF2B11F40B
:101AF00060FF04C06F5F7F4F8F4F9F4F089557FD6A
:101B00009058440F551F59F05F3F71F04795880F6B
:101B100097FB991F61F09F3F79F087950895121602
:101B200013061406551FF2CF4695F1DF08C01616AE
:101B300017061806991FF1CF86957105610508945F
:101B40000895E894BB2766277727CB0197F9089576
:101B50008ADF08F48FEF08950BD0C0CFB1DF28F0F3
:101B6000B6DF18F0952309F0A2CFA7CF1124EACF52
:101B7000C6DFA0F3959FD1F3950F50E0551F629FEC
:101B8000F001729FBB27F00DB11D639FAA27F00DD6
:101B9000B11DAA1F649F6627B00DA11D661F829FFD
:101BA0002227B00DA11D621F739FB00DA11D621FE2
:101BB000839FA00D611D221F749F3327A00D611DFF
:101BC000231F849F600D211D822F762F6A2F1124E1
:101BD0009F5750408AF0E1F088234AF0EE0FFF1F34
:101BE000BB1F661F771F881F91505040A9F79E3F6B
:101BF000510570F05CCFA6CF5F3FECF3983EDCF36D
:101C0000869577956795B795F795E7959F5FC1F7A7
:101C1000FE2B880F911D9695879597F9089597FB50
:101C2000092E07260AD077FD04D00CD006D000205C
:101C30001AF4709561957F4F0895F6F79095819508
:101C40009F4F0895AA1BBB1B51E107C0AA1FBB1FD2
:101C5000A617B70710F0A61BB70B881F991F5A9538
:101C6000A9F780959095BC01CD010895E199FECF2B
:101C70009FBB8EBBE09A99278DB30895262FE199DB
:101C8000FECF9FBB8EBB2DBB0FB6F894E29AE19AB4
:0A1C90000FBE01960895F894FFCFEF
:101C9A004552524F5220467220536E737200507250
:101CAA0065737320416E79204B657900443020506A
:101CBA00726573736564005B005D00443120507285
:101CCA00657373656400443220507265737365648A
:101CDA000044332050726573736564006C636F75DA
:101CEA006E743A0073747261696768743A003100FD
:101CFA0030004C434420576F726B696E67000901CC
:101D0A000000704166664640730200050005000047
:00000001FF
