:100000000C942A000C9447000C9447000C94470071
:100010000C9447000C9447000C9447000C94470044
:100020000C9447000C9447000C9447000C94470034
:100030000C9447000C9447000C9447000C94470024
:100040000C9447000C9447000C9447000C94470014
:100050000C94470011241FBECFE5D4E0DEBFCDBF16
:1000600010E0A0E6B0E0EAEDF3E102C005900D92E9
:10007000A23CB107D9F711E0A2ECB0E001C01D929B
:10008000A939B107E1F70E94CD060C94EB090C9455
:1000900000008FEF8BBB1ABA88BB17BA15BA84BBA6
:1000A00082BB11BA08958C9A8D9A1EBC1DBC1CBCD3
:1000B0001BBC1ABC19BC18BC81E087BD8FE886BD8B
:1000C00082EA8FBD89E18EBD08951ABA16B880E61E
:1000D00087B987E886B980E888B9089515B8877028
:1000E000806687B9369A3699FECF85B10895AC01FE
:1000F00030E060E971E00CC0FB013197F1F7019746
:10010000D9F72F5F243019F084EC99E0F5CF3F5FE9
:10011000832F90E08417950714F420E0F5CF08951D
:10012000AF92BF92CF92DF92EF92FF920F931F9305
:10013000AA2797FDA095BA2FBC01CD010E9498086F
:100140005B016C0120E030E04AE755E40E944C0975
:100150007B018C0120E030E040E85FE30E94F9077A
:1001600088231CF461E070E024C0C801B70120E0DE
:100170003FEF4FE757E40E9448091816B4F4C60150
:10018000B50120E030E040E251E40E944C090E94B9
:100190006A0880E991E005C0FC013197F1F76150F0
:1001A000704061157105C1F707C0C801B7010E9411
:1001B0006A08CB010197F1F71F910F91FF90EF9023
:1001C000DF90CF90BF90AF900895AF92BF92CF9243
:1001D000DF92EF92FF920F931F93AA2797FDA095AE
:1001E000BA2FBC01CD010E9498085B016C012BEA7B
:1001F0003AEA4AEA50E40E944C097B018C0120E073
:1002000030E040E85FE30E94F907882314F461E0DE
:1002100054C0C801B70120E030E04FE753E40E942A
:10022000480918160CF045C0C601B50120E030E0C1
:100230004AE754E40E94FD075B016C0120E030E0D6
:100240004AE755E40E944C097B018C0120E030E034
:1002500040E85FE30E94F90788231CF461E070E046
:1002600024C0C801B70120E03FEF4FE757E40E94E8
:1002700048091816B4F4C601B50120E030E040E2A8
:1002800051E40E944C090E946A0880E991E005C08F
:10029000FC013197F1F76150704061157105C1F7AC
:1002A0000EC0C801B7010E946A08CB010197F1F79F
:1002B00006C0C801B7010E946A086A95F1F71F914C
:1002C0000F91FF90EF90DF90CF90BF90AF90089587
:1002D0000F931F93CF93DF931092C200C0E0D0E042
:1002E00001E010E08C2F0E946E00863460F49801CB
:1002F0000C2E02C0220F331F0A94E2F78091C20035
:10030000822B8093C2002196C430D10559F7DF912A
:10031000CF911F910F91089580E00E946E0080930D
:10032000830181E00E946E008093840182E00E943C
:100330006E008093850183E00E946E0080938601A9
:10034000089580E00E946E0080938B0181E00E94FE
:100350006E0080938C0182E00E946E0080938D017C
:1003600083E00E946E0080938E0108951F93CF93C7
:10037000DF93C0E0D0E01FEF15BB84E690E00E9461
:10038000900015BA84E690E00E9490002196C53056
:10039000D10591F7DF91CF911F9108959BBD8ABD43
:1003A000089599BD88BD089587B3807F87BBC69A9D
:1003B000C59882E08A95F1F722E035E0C79A822F4E
:1003C0008A95F1F786B38295807F922F9A95F1F7FF
:1003D000C798932F9A95F1F7C79A922F9A95F1F7AC
:1003E00096B3922F9A95F1F7C798932F9A95F1F7B4
:1003F00087FDE4CFC69887B38F6087BB0895282F09
:10040000662311F4C59801C0C59A82E08A95F1F778
:10041000C79A88B3922F92959F70807F982B98BB34
:1004200095E0892F8A95F1F7C798892F8A95F1F77A
:10043000C79A88B32F70807F822B88BB892F8A95BB
:10044000F1F7C7989A95F1F70E94D40108951F9388
:10045000182F8CE291E020E931E0F9013197F1F7B2
:100460000197D9F787B38F6087BBBF9ABD9ABE9AB1
:1004700088B3807F88BBC798C698C59881E08A9565
:10048000F1F7C79AC19A85E0982F9A95F1F7C79826
:100490008A95F1F70E94D401812F8C6060E00E9460
:1004A000FF0188E260E00E94FF011F910895CF9351
:1004B000DF93EC0104C061E00E94FF012196888176
:1004C0008823C9F7DF91CF910895EF92FF920F93A0
:1004D0001F93DF93CF9300D000D00F92CDB7DEB73C
:1004E0009C018B01FE01319685E0DF011D928A950A
:1004F000E9F7FE0135960DC0C9016AE070E00E947F
:10050000AF098083C9016AE070E00E94AF099B01D6
:1005100031972115310581F7BFEF0F3F1B0779F4A4
:1005200020E030E0AE014F5F5F4F02C02F5F3F4FD2
:10053000FA01E20FF31F80818823C1F304C025E094
:1005400030E0201B310B7E010894E11CF11CE20E0F
:10055000F31E890109C0F70181917F01805D61E08F
:100560000E94FF010F5F1F4F05301105A4F30F908C
:100570000F900F900F900F90CF91DF911F910F91DF
:10058000FF90EF900895883230F4611180648068A4
:1005900060E00E94FF0108950F931F938A010E945B
:1005A000C302C8010E9457021F910F910895EF9254
:1005B000FF920F931F938A0179010E94C302C80121
:1005C000B7010E9465021F910F91FF90EF9008956F
:1005D0001AB81BB887E080BD87E689B910BC88E9E6
:1005E0008AB908955D9BFECF8CB90895FC0104C0C3
:1005F0005D9BFECF8CB9319680818823C9F7089521
:100600005D9BFECF8AE08CB95D9BFECF8DE08CB9FF
:1006100008955F9BFECF8CB108958FEF84BB089542
:10062000AC9AAD98AE98AF980895AC98AD9AAE9844
:10063000AF980895AC98AD98AE9AAF980895AC98DD
:10064000AD98AE9AAF980895AC9AAD98AE98AF9821
:100650000895AC98AD98AE98AF9A0895AC9AAD98BD
:10066000AE9AAF980895AC98AD9AAE98AF9A0895A7
:10067000AC98AD9AAE9AAF980895AC9AAD98AE98F2
:10068000AF9A0895AC98AD98AE98AF980895AC9A8B
:10069000AD9AAE9AAF9A089582B38F6082BB81B350
:1006A000807F81BB089520B330E020953095217084
:1006B0003070C901089520B330E036952795209514
:1006C000309521703070C901089520B330E036951F
:1006D0002795369527952095309521703070C90162
:1006E000089520B330E043E0369527954A95E1F729
:1006F0002095309521703070C90108956F927F92D6
:100700008F929F92AF92BF92CF92DF92EF92FF9221
:100710000F931F93AC9AAD98AE9AAF988091C20098
:10072000863091F1873060F48230B1F0833018F474
:100730008130C1F531C08330A9F0843099F509C00A
:10074000883039F18830A0F08C3049F08E3051F586
:100750000CC081E090E022C08FEF9FEF1FC083E0CC
:1007600090E01CC08DEF9FEF05C084E090E016C0C4
:100770008CEF9FEF9093C4008093C3008091CF00D3
:100780009091D000019771F41092C4001092C300B0
:1007900009C086E090E002C08AEF9FEF9093C4000A
:1007A0008093C3006091C3007091C400882777FDD7
:1007B0008095982F0E9498085B016C0160918F01D1
:1007C000709190018091910190919201A601950103
:1007D0000E9494077B018C016093950170939601B0
:1007E0008093970190939801C601B50120918E00E6
:1007F00030918F0040919000509191000E944C09DF
:100800003B014C01C801B701209192003091930047
:1008100040919400509195000E944C099B01AC01BD
:10082000C401B3010E9494077B018C016093DB003B
:100830007093DC008093DD009093DE00A0928F0126
:10084000B0929001C0929101D092920160918C007F
:1008500070918D0080E090E00E9496085B016C0131
:10086000A80197010E9494070E9465087BBD6ABD9C
:10087000C601B501A80197010E9495070E9465086D
:1008800079BD68BD1F910F91FF90EF90DF90CF90E1
:10089000BF90AF909F908F907F906F9008950E942F
:1008A00049001ABA16B880E687B987E886B980E8A1
:1008B00088B98FEF84BB82E00E94270282B38F60E9
:1008C00082BB81B3807F81BB0E945300089585E77E
:1008D0008093960020EF30E082E291E008C03BBDBB
:1008E0002ABD99BD88BDAC98AD9AAE9AAF98CD9906
:1008F000F6CF09C03BBD2ABD99BD88BDAC98AD9A65
:10090000AE9AAF9804C029EB30E087ED90E0CE9B23
:1009100002C08699EFCF8FE891E09BBD8ABD99BD5B
:1009200088BDAC9AAD9AAE9AAF9A0895CC9916C08C
:100930008091C7009091C800892BA1F48091C900D3
:100940009091CA0001969093CA008093C90081E0FB
:1009500090E09093C8008093C70008951092C8005B
:100960001092C70008950E946801AC9AAD98AE9AA3
:10097000AF98CE9B09C0869907C086EE90E09BBDDC
:100980008ABD82E291E01AC0869B09C0CE9907C059
:1009900082E291E09BBD8ABD86EE90E00FC0869B0F
:1009A00005C0CE9B03C00E947E030AC0869908C082
:1009B000CE9906C084E091E09BBD8ABD99BD88BDFB
:1009C0008AE090E00E94E5008091D1009091D200F1
:1009D00001969093D2008093D10008958CE6809385
:1009E000960089E091E008C09BBD8ABD99BD88BD95
:1009F000AC98AD9AAE9AAF98CD99F6CF09C09BBD91
:100A00008ABD99BD88BDAC98AD9AAE9AAF9802C028
:100A10008DEC90E0CE9B05C08699F1CF02C00E947C
:100A2000B304CC9BFCCF879BFACF8FE891E09BBDB2
:100A30008ABD99BD88BDAC9AAD9AAE9AAF9A81E055
:100A400090E00E9477000895CF93DF9382E7809330
:100A50009600CFEFD0E00AC0DBBDCABDD9BDC8BD8E
:100A6000AC9AAD98AE98AF9A0E949604CF99F4CF05
:100A70000BC0DBBDCABDD9BDC8BDAC9AAD98AE98A0
:100A8000AF9A0E94960402C0CDECD0E0CE9B05C088
:100A90008699EFCF02C00E94B304CC9BFCCF879B0A
:100AA000FACF8FE891E09BBD8ABD99BD88BDAC9A15
:100AB000AD9AAE9AAF9A81E090E00E947700DF9104
:100AC000CF910895809196008237D1F4809197005C
:100AD000909198002FEF8F3F920759F12FEF8F3FA2
:100AE000920709F02CF48E5F9F4F09F051C03DC072
:100AF0008130910509F43FC0029709F049C038C020
:100B00008C36D1F480919700909198002FEF8F3F11
:100B1000920789F12FEF8F3F920709F024F48E5F3F
:100B20009F4FB1F525C08130910519F0029781F5ED
:100B30001CC082E090E021C0853751F5809197007C
:100B4000909198002FEF8F3F920791F02FEF8F3FFA
:100B5000920709F024F48E5F9F4FD1F413C08130C7
:100B6000910519F00297A1F406C08FEF9FEF05C021
:100B700081E090E002C08EEF9FEF90939800809309
:100B80009700089582E090E09093980080939700FA
:100B90000895CF93DF93EC018130910579F4809132
:100BA0009700909198002FEF8F3F920719F00297CE
:100BB00029F432C00E94EE040E946205C230D105C1
:100BC00081F480919700909198002FEF8F3F9207CA
:100BD00019F0019731F423C00E9424050E94620598
:100BE0000EC08FEFCF3FD80751F4809197009091BE
:100BF00098002FEF8E3F920779F0029781F0CE5F39
:100C0000DF4F89F480919700909198002FEF8F3FEC
:100C1000920729F0019739F40E94240502C00E942E
:100C2000EE040E946205AC9AAD9AAE9AAF9A81E04A
:100C300090E00E947700DF91CF9108950F931F936A
:100C4000CF93DF93EC018B018091990090919A00F2
:100C50009E01281B390B12161306CCF481E090E09C
:100C60000E94C90502C00E94B304CC9B02C08799B0
:100C7000FACF8FE891E099BD88BD9BBD8ABDAC9A43
:100C8000AD9AAE9AAF9A84EF91E00E949000809165
:100C9000990090919A009E01281B390B37FF0FC0D5
:100CA0008FEF9FEF0E94C90502C00E94B304CC9B46
:100CB00002C08799FACFAC9AAD9AAE9AAF9A80915A
:100CC0009B0090919C009801281B390B121613066B
:100CD0007CF482E090E00E94C90502C00E94B30447
:100CE000CC9B02C08799FACFAC9AAD9AAE9AAF9AD4
:100CF00080919B0090919C009801281B390B37FF35
:100D00000FC08EEF9FEF0E94C90502C00E94B3047E
:100D1000CC9B02C08799FACFAC9AAD9AAE9AAF9AA3
:100D2000D0939A00C093990010939C0000939B006D
:100D300081E060E00E94FF014091990050919A008B
:100D400080E090E061E070E022E030E00E94D702B5
:100D500040919B0050919C0085E090E061E070E044
:100D600022E030E00E94D7024091D1005091D200A1
:100D700083E090E060E070E025E030E00E94D70280
:100D8000AC9AAD9AAE9AAF9A84EF91E00E9490002F
:100D9000DF91CF911F910F9108950F931F93CF93E0
:100DA000DF930E944F0481E060E00E94FF0180E633
:100DB00090E00E94570281E060E00E94FF018CE613
:100DC00090E00E945702829951C081E060E00E9449
:100DD000FF018AE790E00E94570285B3807F85BBC0
:100DE00085B39091C200892B85BB81E060E00E94B1
:100DF000FF0182E890E00E94570282E090E00E94AA
:100E0000770001EA10E0C1E0D0E081E060E00E94FC
:100E1000FF0188E890E00E945702C130D105F9F047
:100E2000C630D105E1F081E060E00E94FF0180E082
:100E300090E060E070E0AE0122E030E00E94D70276
:100E4000F80162817381808191810E941E0685B3C1
:100E5000807F85BB85B39091C200892B85BB21968D
:100E60000C5F1F4FC930D10581F6B7CF809BADCF46
:100E7000819BABCF839BA9CFA6CF80E090E00E945F
:100E8000D6098093870181E090E00E94D609809383
:100E9000880182E090E00E94D6098093890183E076
:100EA00090E00E94D60980938A010895CF93DF9342
:100EB00020918B018091830190E0820F911D959587
:100EC00087958093870120918C018091840190E027
:100ED000820F911D959587958093880120918D01B2
:100EE0008091850190E0820F911D95958795809363
:100EF000890120918E018091860190E0820F911DE1
:100F00009595879580938A01C0E0D0E0FE01E9576E
:100F1000FE4FCE0160810E94DE092196C430D105CA
:100F2000A9F7DF91CF9108955058BB27AA270ED07B
:100F300075C166D130F06BD120F031F49F3F11F4D0
:100F40001EF45BC10EF4E095E7FB51C1E92F77D1A8
:100F500080F3BA17620773078407950718F071F4D6
:100F60009EF58FC10EF4E0950B2EBA2FA02D0B012C
:100F7000B90190010C01CA01A0011124FF27591BDE
:100F800099F0593F50F4503E68F11A16F040A22FE4
:100F9000232F342F4427585FF3CF46953795279555
:100FA000A795F0405395C9F77EF41F16BA0B620B54
:100FB000730B840BBAF09150A1F0FF0FBB1F661F9B
:100FC000771F881FC2F70EC0BA0F621F731F841FDE
:100FD00048F4879577956795B795F7959E3F08F004
:100FE000B3CF9395880F08F09927EE0F97958795C3
:100FF0000895D9D008F481E008950CD00FC107D12D
:1010000040F0FED030F021F45F3F19F0F0C05111F4
:1010100039C1F3C014D198F39923C9F35523B1F31F
:10102000951B550BBB27AA2762177307840738F057
:101030009F5F5F4F220F331F441FAA1FA9F333D0B6
:101040000E2E3AF0E0E830D091505040E695001C6A
:10105000CAF729D0FE2F27D0660F771F881FBB1F26
:10106000261737074807AB07B0E809F0BB0B802D00
:10107000BF01FF2793585F4F2AF09E3F510568F04C
:10108000B6C000C15F3FECF3983EDCF386957795E0
:101090006795B795F7959F5FC9F7880F911D96954E
:1010A000879597F90895E1E0660F771F881FBB1FAA
:1010B000621773078407BA0720F0621B730B840B57
:1010C000BA0BEE1F88F7E095089504D06894B1112B
:1010D000D9C00895BCD088F09F5790F0B92F9927B8
:1010E000B751A0F0D1F0660F771F881F991F1AF033
:1010F000BA95C9F712C0B13081F0C3D0B1E00895FC
:10110000C0C0672F782F8827B85F39F0B93FCCF37C
:10111000869577956795B395D9F73EF49095809528
:10112000709561957F4F8F4F9F4F0895E89409C048
:1011300097FB3EF490958095709561957F4F8F4F0A
:101140009F4F9923A9F0F92F96E9BB279395F69520
:10115000879577956795B795F111F8CFFAF4BB0F9E
:1011600011F460FF1BC06F5F7F4F8F4F9F4F16C002
:10117000882311F096E911C0772321F09EE8872F8C
:10118000762F05C0662371F096E8862F70E060E048
:101190002AF09A95660F771F881FDAF7880F9695C1
:1011A000879597F90895990F0008550FAA0BE0E865
:1011B000FEEF16161706E807F907C0F01216130619
:1011C000E407F50798F0621B730B840B950B39F459
:1011D0000A2661F0232B242B252B21F408950A26BF
:1011E00009F4A140A6958FEF811D811D089597F9FF
:1011F0009F6780E870E060E008959FEF80EC0895BD
:1012000000240A94161617061806090608950024E5
:101210000A9412161306140605060895092E03945F
:10122000000C11F4882352F0BB0F40F4BF2B11F4D3
:1012300060FF04C06F5F7F4F8F4F9F4F089557FD32
:101240009058440F551F59F05F3F71F04795880F34
:1012500097FB991F61F09F3F79F0879508951216CB
:1012600013061406551FF2CF4695F1DF08C0161677
:1012700017061806991FF1CF869571056105089428
:101280000895E894BB2766277727CB0197F908953F
:101290008ADF08F48FEF08950BD0C0CFB1DF28F0BC
:1012A000B6DF18F0952309F0A2CFA7CF1124EACF1B
:1012B000C6DFA0F3959FD1F3950F50E0551F629FB5
:1012C000F001729FBB27F00DB11D639FAA27F00D9F
:1012D000B11DAA1F649F6627B00DA11D661F829FC6
:1012E0002227B00DA11D621F739FB00DA11D621FAB
:1012F000839FA00D611D221F749F3327A00D611DC8
:10130000231F849F600D211D822F762F6A2F1124A9
:101310009F5750408AF0E1F088234AF0EE0FFF1FFC
:10132000BB1F661F771F881F91505040A9F79E3F33
:10133000510570F05CCFA6CF5F3FECF3983EDCF335
:10134000869577956795B795F795E7959F5FC1F770
:10135000FE2B880F911D9695879597F9089597FB19
:10136000092E07260AD077FD04D00CD006D0002025
:101370001AF4709561957F4F0895F6F790958195D1
:101380009F4F0895AA1BBB1B51E107C0AA1FBB1F9B
:10139000A617B70710F0A61BB70B881F991F5A9501
:1013A000A9F780959095BC01CD010895E199FECFF4
:1013B0009FBB8EBBE09A99278DB30895262FE199A4
:1013C000FECF9FBB8EBB2DBB0FB6F894E29AE19A7D
:0A13D0000FBE01960895F894FFCFB8
:1013DA004C434420576F726B696E67005072657395
:1013EA007320416E79204B6579007072657373655D
:1013FA0064007768696C6500666F72000901000015
:10140A007041666646407302000500050005000546
:10141A000005000600050007000600070007000790
:10142A00000700080006000800050008000500097A
:02143A000000B0
:00000001FF
