:100000000C942A000C9447000C9447000C94470071
:100010000C9447000C9447000C9447000C94470044
:100020000C9447000C9447000C9447000C94470034
:100030000C9447000C9447000C9447000C94470024
:100040000C9447000C9447000C9447000C94470014
:100050000C94470011241FBECFE5D8E0DEBFCDBF12
:1000600011E0A0E6B0E0ECEBF1E302C005900D92E8
:10007000A232B107D9F717E0A2E2B1E001C01D92A8
:10008000A739B107E1F70E94E7120C94DC180C9431
:1000900000008FEF8BBB1ABA88BB17BA15BA84BBA6
:1000A00082BB11BA08958C9A8D9A1EBC1DBC1CBCD3
:1000B0001BBC1ABC19BC18BC81E087BD8FE886BD8B
:1000C00082EA8FBD89E18EBD08951ABA16B880E61E
:1000D00087B987E886B980E888B9089515B8877028
:1000E000806687B9369A3699FECF85B10895AC01FE
:1000F00030E060E971E00CC0FB013197F1F7019746
:10010000D9F72F5F243019F084EC99E0F5CF3F5FE9
:10011000832F90E08417950714F420E0F5CF08951D
:10012000AF92BF92CF92DF92EF92FF920F931F9305
:10013000AA2797FDA095BA2FBC01CD010E946E178A
:100140005B016C0120E030E04AE755E40E94221890
:100150007B018C0120E030E040E85FE30E94CF1695
:1001600088231CF461E070E024C0C801B70120E0DE
:100170003FEF4FE757E40E941E181816B4F4C6016B
:10018000B50120E030E040E251E40E9422180E94D4
:10019000401780E991E005C0FC013197F1F761500B
:1001A000704061157105C1F707C0C801B7010E9411
:1001B0004017CB010197F1F71F910F91FF90EF903E
:1001C000DF90CF90BF90AF900895AF92BF92CF9243
:1001D000DF92EF92FF920F931F93AA2797FDA095AE
:1001E000BA2FBC01CD010E946E175B016C012BEA96
:1001F0003AEA4AEA50E40E9422187B018C0120E08E
:1002000030E040E85FE30E94CF16882314F461E0F9
:1002100054C0C801B70120E030E04FE753E40E942A
:100220001E1818160CF045C0C601B50120E030E0DC
:100230004AE754E40E94D3165B016C0120E030E0F1
:100240004AE755E40E9422187B018C0120E030E04F
:1002500040E85FE30E94CF1688231CF461E070E061
:1002600024C0C801B70120E03FEF4FE757E40E94E8
:100270001E181816B4F4C601B50120E030E040E2C3
:1002800051E40E9422180E94401780E991E005C0C5
:10029000FC013197F1F76150704061157105C1F7AC
:1002A0000EC0C801B7010E944017CB010197F1F7BA
:1002B00006C0C801B7010E9440176A95F1F71F9167
:1002C0000F91FF90EF90DF90CF90BF90AF90089587
:1002D0000F931F93CF93DF9310922201C0E0D0E0E1
:1002E00001E010E08C2F0E946E00863460F49801CB
:1002F0000C2E02C0220F331F0A94E2F780912201D4
:10030000822B809322012196C430D10559F7DF91C9
:10031000CF911F910F91089580E00E946E0080930D
:10032000470781E00E946E008093480782E00E94A8
:100330006E008093490783E00E946E0080934A0715
:10034000089580E00E946E0080938B0781E00E94F8
:100350006E0080938C0782E00E946E0080938D0770
:1003600083E00E946E0080938E0708951F93CF93C1
:10037000DF93C0E0D0E01FEF15BB84E690E00E9461
:10038000900015BA84E690E00E9490002196C53056
:10039000D10591F7DF91CF911F9108959BBD8ABD43
:1003A000089599BD88BD089587B3807F87BBC69A9D
:1003B000C59882E08A95F1F722E035E0C79A822F4E
:1003C0008A95F1F786B38295807F922F9A95F1F7FF
:1003D000C798932F9A95F1F7C79A922F9A95F1F7AC
:1003E00096B3922F9A95F1F7C798932F9A95F1F7B4
:1003F00087FDE4CFC69887B38F6087BB0895282F09
:10040000662311F4C59801C0C59A82E08A95F1F778
:10041000C79A88B3922F92959F70807F982B98BB34
:1004200095E0892F8A95F1F7C798892F8A95F1F77A
:10043000C79A88B32F70807F822B88BB892F8A95BB
:10044000F1F7C7989A95F1F70E94D40108951F9388
:10045000182F8CE291E020E931E0F9013197F1F7B2
:100460000197D9F787B38F6087BBBF9ABD9ABE9AB1
:1004700088B3807F88BBC798C698C59881E08A9565
:10048000F1F7C79AC19A85E0982F9A95F1F7C79826
:100490008A95F1F70E94D401812F8C6060E00E9460
:1004A000FF0188E260E00E94FF011F910895CF9351
:1004B000DF93EC0104C061E00E94FF012196888176
:1004C0008823C9F7DF91CF910895EF92FF920F93A0
:1004D0001F93DF93CF9300D000D00F92CDB7DEB73C
:1004E0009C018B01FE01319685E0DF011D928A950A
:1004F000E9F7FE0135960DC0C9016AE070E00E947F
:1005000085188083C9016AE070E00E9485189B010C
:1005100031972115310581F7BFEF0F3F1B0779F4A4
:1005200020E030E0AE014F5F5F4F02C02F5F3F4FD2
:10053000FA01E20FF31F80818823C1F304C025E094
:1005400030E0201B310B7E010894E11CF11CE20E0F
:10055000F31E890109C0F70181917F01805D61E08F
:100560000E94FF010F5F1F4F05301105A4F30F908C
:100570000F900F900F900F90CF91DF911F910F91DF
:10058000FF90EF900895883230F4611180648068A4
:1005900060E00E94FF0108950F931F938A010E945B
:1005A000C302C8010E9457021F910F910895EF9254
:1005B000FF920F931F938A0179010E94C302C80121
:1005C000B7010E9465021F910F91FF90EF9008956F
:1005D0001AB81BB887E080BD87E689B910BC88E9E6
:1005E0008AB908955D9BFECF8CB90895FC0104C0C3
:1005F0005D9BFECF8CB9319680818823C9F7089521
:100600005D9BFECF8AE08CB95D9BFECF8DE08CB9FF
:1006100008955F9BFECF8CB108958FEF84BB089542
:10062000AC9AAD98AE98AF980895AC98AD9AAE9844
:10063000AF980895AC98AD98AE9AAF980895AC98DD
:10064000AD98AE9AAF980895AC9AAD98AE98AF9821
:100650000895AC98AD98AE98AF9A0895AC9AAD98BD
:10066000AE9AAF980895AC98AD9AAE98AF9A0895A7
:10067000AC98AD9AAE9AAF980895AC9AAD98AE98F2
:10068000AF9A0895AC98AD98AE98AF980895AC9A8B
:10069000AD9AAE9AAF9A089582B38F6082BB81B350
:1006A000807F81BB089520B330E020953095217084
:1006B0003070C901089520B330E036952795209514
:1006C000309521703070C901089520B330E036951F
:1006D0002795369527952095309521703070C90162
:1006E000089520B330E043E0369527954A95E1F729
:1006F0002095309521703070C90108956F927F92D6
:100700008F929F92AF92BF92CF92DF92EF92FF9221
:100710000F931F93AC9AAD98AE9AAF988091220137
:10072000863091F1873060F48230B1F0833018F474
:100730008130C1F531C08330A9F0843099F509C00A
:10074000883039F18830A0F08C3049F08E3051F586
:100750000CC081E090E022C08FEF9FEF1FC083E0CC
:1007600090E01CC08DEF9FEF05C084E090E016C0C4
:100770008CEF9FEF909324018093230180912F01B0
:1007800090913001019771F410922401109223018D
:1007900009C086E090E002C08AEF9FEF90932401A9
:1007A000809323016091230170912401882777FDB4
:1007B0008095982F0E946E175B016C0160918F07E6
:1007C000709190078091910790919207A6019501F1
:1007D0000E946A167B018C016093930770939407C3
:1007E0008093950790939607C601B5012091120159
:1007F0003091130140911401509115010E9422186B
:100800003B014C01C801B70120911601309117013D
:1008100040911801509119010E9422189B01AC01CE
:10082000C401B3010E946A167B018C0160934101EF
:10083000709342018093430190934401A0928F07EB
:10084000B0929007C0929107D092920760911001E8
:100850007091110180E090E00E946C175B016C01C7
:10086000A80197010E946A160E943B177BBD6ABDD2
:10087000C601B501A80197010E946B160E943B17A3
:1008800079BD68BD1F910F91FF90EF90DF90CF90E1
:10089000BF90AF909F908F907F906F9008950E942F
:1008A00049001ABA16B880E687B987E886B980E8A1
:1008B00088B98FEF84BB82E00E94270282B38F60E9
:1008C00082BB81B3807F81BB0E945300089585E77E
:1008D00080931A0120EF30E082E291E008C03BBD36
:1008E0002ABD99BD88BDAC98AD9AAE9AAF98CD9906
:1008F000F6CF09C03BBD2ABD99BD88BDAC98AD9A65
:10090000AE9AAF9804C029EB30E087ED90E0CE9B23
:1009100002C08699EFCF8FE891E09BBD8ABD99BD5B
:1009200088BDAC9AAD9AAE9AAF9A82E390E00E94ED
:1009300090000895CC9916C08091270190912801CC
:10094000892BA1F48091290190912A01019690931D
:100950002A018093290181E090E0909328018093FF
:100960002701089510922801109227010895CD9B28
:1009700006C080912F0190913001019779F581E0B7
:1009800090E09093300180932F01CC9927C0869BF3
:1009900014C0CE9B12C008953BBD2ABD39BD28BDF1
:1009A000AC9AAD98AE9AAF9880E090E0879909C074
:1009B000AC9AAD9AAE9AAF9A04C081E090E020EF75
:1009C00030E0CC9B05C09093300180932F010895B7
:1009D0008799E2CF9093300180932F0108950E9470
:1009E0006801AC9AAD98AE9AAF98CE9B0BC0869931
:1009F00009C080911001909111014E979BBD8ABD55
:100A0000CC961EC0869B0BC0CE9909C08091100168
:100A1000909111014E969BBD8ABDCC9711C0869BCB
:100A200005C0CE9B03C00E947E030CC086990AC0FD
:100A3000CE9908C080911001909111019BBD8ABD93
:100A400099BD88BD8AE090E00E94E500089585E7A1
:100A500080931A0124E031E088E191E008C03BBDB9
:100A60002ABD99BD88BDAC98AD9AAE9AAF98CD9B82
:100A7000F6CFCE9BFECF869BFCCFCD99FECF09C093
:100A80009BBD8ABD99BD88BDAC98AD9AAE9AAF9812
:100A900002C082ED90E0CE9B05C08699F1CF02C0E6
:100AA0000E94EF04CC9BFCCF879BFACF8FE891E0AC
:100AB0009BBD8ABD99BD88BDAC9AAD9AAE9AAF9ADE
:100AC00082E390E00E94900008958CE680931A01E2
:100AD00085EF90E008C09BBD8ABD99BD88BDAC98EC
:100AE000AD9AAE9AAF98CD99F6CF09C09BBD8ABD9D
:100AF00099BD88BDAC98AD9AAE9AAF9802C080EF10
:100B000090E0CE9B05C08699F1CF02C00E94EF0411
:100B1000CC9BFCCF879BFACF8FE891E09BBD8ABD31
:100B200099BD88BDAC9AAD9AAE9AAF9A82E390E037
:100B30000E9490000895CF93DF9382E780931A017B
:100B4000C5EFD0E00AC0DBBDCABDD9BDC8BDAC9AF7
:100B5000AD98AE98AF9A0E949A04CF99F4CF0BC08B
:100B6000DBBDCABDD9BDC8BDAC9AAD98AE98AF9A31
:100B70000E949A0402C0C0EFD0E0CE9B05C08699C7
:100B8000EFCF02C00E94EF04CC9BFCCF879BFACF33
:100B90008FE891E09BBD8ABD99BD88BDAC9AAD9AA6
:100BA000AE9AAF9A82E390E00E949000DF91CF91DD
:100BB000089580911A018237D1F480911B019091A0
:100BC0001C012FEF8F3F920759F12FEF8F3F9207B4
:100BD00009F02CF48E5F9F4F09F051C03DC0813069
:100BE000910509F43FC0029709F049C038C08C361E
:100BF000D1F480911B0190911C012FEF8F3F920740
:100C000089F12FEF8F3F920709F024F48E5F9F4FF9
:100C1000B1F525C08130910519F0029781F51CC00E
:100C200082E090E021C0853751F580911B019091C1
:100C30001C012FEF8F3F920791F02FEF8F3F92070C
:100C400009F024F48E5F9F4FD1F413C081309105D9
:100C500019F00297A1F406C08FEF9FEF05C081E065
:100C600090E002C08EEF9FEF90931C0180931B01D8
:100C7000089582E090E090931C0180931B010895F9
:100C8000FC01A4E0EE0FFF1FAA95E1F7E60FF71FA6
:100C9000DF01AA0FBB1FAA0FBB1FAB5BBC4F8C9120
:100CA0008634C9F411968C9111978634A1F4EE0F15
:100CB000FF1FEE0FFF1FE95BFC4F8081863459F464
:100CC00090E013968C91863409F091E081E09827AA
:100CD000292F30E002C020E030E0C9010895CF9212
:100CE000DF92EF92FF920F931F93CF93DF93F82E33
:100CF000E62ED42EC22EC0911D01D0911E0100916E
:100D00001F0110912001CE01B8010E944006892BDD
:100D100009F47AC080911B0190911C012FEF8F3F45
:100D2000920709F459C02FEF8F3F920709F02CF476
:100D30008E5F9F4F09F068C039C081309105E1F0A6
:100D4000029709F061C0FE01B4E0EE0FFF1FBA95F3
:100D5000E1F7E00FF11FEE0FFF1FEE0FFF1FDF01A6
:100D6000AB5BBC4FFC921196EC921197E95BFC4F88
:100D7000D0821396CC9248C0FE0164E0EE0FFF1FB4
:100D80006A95E1F7E00FF11FEE0FFF1FEE0FFF1F57
:100D9000DF01AB5BBC4F1196FC921197E95BFC4FF6
:100DA000E0821396DC921397CC922EC0FE0134E0C1
:100DB000EE0FFF1F3A95E1F7E00FF11FEE0FFF1F57
:100DC000EE0FFF1FDF01A95BBC4FFC92EB5BFC4FFA
:100DD000E382D082C18218C0FE0184E0EE0FFF1FC3
:100DE0008A95E1F7E00FF11FEE0FFF1FEE0FFF1FD7
:100DF000DF01AB5BBC4F1396FC921397EC921196FC
:100E0000DC92E95BFC4FC082DF91CF911F910F9183
:100E1000FF90EF90DF90CF900895809135019091F1
:100E200036018230910509F0A7C080911B01909195
:100E30001C012FEF8F3F9207A1F12FEF8F3F9207F9
:100E400009F02CF48E5F9F4F09F003C171C081300F
:100E5000910521F0029709F0FCC046C080911D0168
:100E600090911E01019690931E0180931D0184E5CF
:100E700090E066E470E044E550E026E430E00E9453
:100E80006F0680911D0190911E01019690931E01A5
:100E900080931D0160911F01709120010E94400606
:100EA000C8C080911D0190911E01019790931E0171
:100EB00080931D0184E590E066E470E044E550E035
:100EC00026E430E00E946F0680911D0190911E0182
:100ED000019790931E0180931D0160911F017091F5
:100EE00020010E944006A5C080911F019091200121
:100EF00001969093200180931F0184E590E066E4C1
:100F000070E044E550E026E430E00E946F06609116
:100F10001F01709120016F5F7F4F709320016093DC
:100F20001F0180911D0190911E010E94400681C009
:100F300080911F019091200101979093200180934F
:100F40001F0184E590E066E470E044E550E026E4AB
:100F500030E00E946F0660911F0170912001615086
:100F600070407093200160931F0180911D0190914A
:100F70001E010E9440065DC0019709F06AC0809181
:100F80001B0190911C012FEF8F3F920709F12FEF6A
:100F90008F3F920709F02CF48E5F9F4F09F059C0E4
:100FA00038C08130910521F0029709F052C020C06D
:100FB00080911D0190911E01019690931E018093D6
:100FC0001D0160911F01709120010E94400631C0F7
:100FD00080911D0190911E01019790931E018093B5
:100FE0001D0160911F01709120010E94400621C0E7
:100FF00060911F01709120016F5F7F4F70932001FE
:1010000060931F0180911D0190911E010E94400676
:1010100010C060911F017091200161507040709369
:10102000200160931F0180911D0190911E010E947B
:101030004006892B51F480913D0190913E0101962B
:1010400090933E0180933D0104C010923E011092A6
:101050003D0181E060E00E94FF0140911D0150913F
:101060001E0184E090E060E070E022E030E00E9449
:10107000D70240911F015091200188E090E060E08C
:1010800070E022E030E00E94D70210923601109208
:1010900035010895CF93DF93CD992AC0C1E0D0E008
:1010A000D0933001C0932F01809131019091320192
:1010B000815D97405CF081E060E00E94FF0182E08A
:1010C00090E0909336018093350108C081E060E0A4
:1010D0000E94FF01D0933601C09335018091310108
:1010E00090913201892B21F4109236011092350132
:1010F000CE9B02C0869919C0CC9B06C080913B0153
:1011000090913C01019789F40E940D0784E590E0DD
:1011100066E470E044E550E024E530E00E946F06AC
:10112000109232011092310132C0CC9B06C08091E6
:101130003B0190913C01019771F5CE9B2CC0869BA1
:101140002AC00E940D071092320110923101AC9A10
:10115000AD9AAE9AAF9A80913D0190913E0103976E
:10116000D4F40E94650586E490E066E470E044E50E
:1011700050E024E530E00E946F06AC9AAD9AAE9A3A
:10118000AF9A0E94D9051092300110922F0110924F
:101190003C0110923B01DF91CF910895CE9B1AC084
:1011A000869B18C0809131019091320120913501C8
:1011B00030913601815D97402CF0232B59F482E069
:1011C00090E004C0232B31F481E090E0909336014D
:1011D0008093350180912201882341F5CC9B26C064
:1011E000CD9B24C0CE9B22C0CF9B20C0869B1EC01F
:1011F000879B1CC0AC9AAD9AAE9AAF9A0E940D071D
:1012000086E490E066E470E044E550E026E430E0F7
:101210000E946F060E9467040E94D9051092300157
:1012200010922F01109232011092310108956F92A5
:101230007F928F929F92BF92CF92DF92EF92FF9216
:101240000F931F93CF93DF9381E0E82EF12C06E4F8
:10125000B02E65C0C701B8010E944006892B09F471
:101260004CC081E060E00E94FF01C301B8010E9410
:101270004006892B09F041C0C401B8010E94400614
:10128000892BD9F5B80161507040C7010E94400612
:10129000892B99F5B8016F5F7F4FC7010E94400607
:1012A000892B59F581E060E00E94FF0180E690E023
:1012B0000E94570280ED97E00E949000CD5BDF4FC7
:1012C0008881C354D040843511F4898301C0B98228
:1012D000EF978881EF96843511F48B8301C0BB8230
:1012E0008E81843511F4888301C0B882F601808133
:1012F000843511F48A8301C0BA820F5F1F4F85E0E5
:1013000090E0C80ED91E24960F30110509F0A2CF27
:101310000894E11CF11C9FE0E916F104B1F06701AB
:1013200016E0CC0CDD1C1A95E1F7E9E4F3E0CE0EF3
:10133000DF1EE60101E010E037010894611C711C1A
:10134000470108948108910885CFDF91CF911F91C3
:101350000F91FF90EF90DF90CF90BF909F908F9074
:101360007F906F9008952F923F924F925F926F926D
:101370007F928F929F92AF92BF92CF92DF92EF9225
:10138000FF920F931F93DF93CF93CDB7DEB768978C
:101390000FB6F894DEBF0FBECDBF10923801109289
:1013A000370110923A011092390180901D019090FE
:1013B0001E01A0901F01B0902001CC24DD24C8188C
:1013C000D908DE82CD82DC82CB82DA82C98200E05B
:1013D00010E0222733272A193B093E8B2D8B90C121
:1013E000C8016F89788D0E944006892B09F055C18C
:1013F000F7018081843509F04AC06F89788D6F5F6D
:101400007F4FC8010E944006892B09F440C06091BB
:101410003701709138016115710531F480913901FE
:1014200090913A01892B49F1681979098091390124
:1014300090913A018A199B09ED85FE85EE9FA001E6
:10144000EF9F500DFE9F500D11242F853889420FBC
:10145000531FFC01EE9FC001EF9F900DFE9F900D6A
:101460001124669F9001679F300D769F300D1124E7
:10147000820F931F4817590754F4109338010093B3
:1014800037012F89388D30933A0120933901F701C4
:101490008181843509F052C08B899C896F89788D50
:1014A0000E944006892B09F449C060913701709170
:1014B00038016115710589F48091390190913A01E3
:1014C000892B59F410933801009337012F89388DF7
:1014D00030933A012093390131C06819790980911C
:1014E000390190913A018A199B09669CA001679C79
:1014F000500D769C500D1124EB85FC854E0F5F1F1F
:101500009C01229FC001239F900D329F900D1124BA
:10151000669F9001679F300D769F300D1124820FDA
:10152000931F4817590754F410933801009337015B
:101530008F89988D90933A0180933901F7018281C8
:10154000843509F053C06F89788D61507040C801AF
:101550000E944006892B09F449C0609137017091BF
:1015600038016115710589F48091390190913A0132
:10157000892B59F410933801009337012F89388D46
:1015800030933A012093390131C06819790980916B
:10159000390190913A018A199B09449CA001459C0C
:1015A000500D549C500D1124E985FA854E0F5F1F94
:1015B0009C01229FC001239F900D329F900D11240A
:1015C000669F9001679F300D769F300D1124820F2A
:1015D000931F4817590754F41093380100933701AB
:1015E0008F89988D90933A0180933901F701838117
:1015F000843509F052C089899A896F89788D0E9453
:101600004006892B09F449C0609137017091380177
:101610006115710589F48091390190913A01892B06
:1016200059F410933801009337012F89388D309386
:101630003A012093390131C0681979098091390143
:1016400090913A018A199B09229CA001239C500D7C
:10165000329C500D1124EF81F8854E0F5F1F9C01C5
:10166000229FC001239F900D329F900D1124669FF1
:101670009001679F300D769F300D1124820F931FCC
:101680004817590754F410933801009337018F8994
:10169000988D90933A0180933901EF89F88D3196B6
:1016A000F88FEF8B24E030E0E20EF31E0894211C4B
:1016B000311C0894411C511C0894611C711C8D85BF
:1016C0009E8501969E878D87709709F089CE0F5F62
:1016D0001F4F0894C11CD11CED81FE813196FE8301
:1016E000ED832B813C812F5F3F4F3C832B8389818E
:1016F0009A8101969A8389830031110509F447C0C4
:10170000CC9CF001CD9CF00DDC9CF00D1124F88BED
:10171000EF878D819E81889F9001899F300D989FD2
:10172000300D11243C872B872B813C81229FF001B7
:10173000239FF00D329FF00D1124FA87E987E9818C
:10174000FA81EE9FC001EF9F900DFE9F900D112436
:1017500098878F83780196E0EE0CFF1C9A95E1F74D
:1017600025E433E0E20EF31E8D899E899E878D87E6
:101770001C012C013C01188E1F8AF8013197FA8B4D
:10178000E98B98012F5F3F4F3C8B2B8B29CE6896BE
:101790000FB6F894DEBF0FBECDBFCF91DF911F9182
:1017A0000F91FF90EF90DF90CF90BF90AF909F9000
:1017B0008F907F906F905F904F903F902F90089503
:1017C0006F927F928F929F92AF92BF92CF92DF9251
:1017D000EF92FF920F931F93CF93DF9340911F01DE
:1017E0005091200160911D0170911E010BE417E0E2
:1017F000F8011182108213821282349687E0E73852
:10180000F807B9F71092400110923F01662477243F
:10181000D2C16B010894C11CD11C960184E0220F37
:10182000331F8A95E1F7240F351F7901EE0CFF1C59
:10183000F701EB5BFE4F808091808A149B040CF0D3
:1018400059C0AA0FBB1FAA0FBB1FAB5BBC4F1196A1
:101850008C91843509F04EC0E901CC0FDD1FCC0F0F
:10186000DD1FCB5BDC4F8B81843509F043C06F30CB
:1018700071050CF03FC0F801D182C08253834283CE
:10188000B6016F5F7F4FDB0194E0AA0FBB1F9A95F3
:10189000E1F7A40FB51FFD01EE0FFF1FEB5BFE4F3D
:1018A00080819181881599050CF066C1AA0FBB1F34
:1018B000AA0FBB1FAB5BBC4F13968C91843509F00C
:1018C0005BC18881863409F057C18981843509F06C
:1018D00053C1EE0CFF1C87E493E0E80EF91EF701FC
:1018E0008081863409F048C1FFE0CF16D1040CF0A6
:1018F00043C176C06B010894C108D108960194E0F9
:10190000220F331F9A95E1F7240F351F7901EE0C52
:10191000FF1CF701EB5BFE4F808091808A149B04D3
:101920000CF062C0FB01B4E0EE0FFF1FBA95E1F7C7
:10193000E40FF51FEE0FFF1FEE0FFF1FEB5BFC4FD9
:101940008381843509F050C0E901CC0FDD1FCC0F35
:10195000DD1FCB5BDC4F8981843509F045C016164D
:1019600017060CF041C0F801D182C0825383428334
:10197000B60161507040DB0124E0AA0FBB1F2A951D
:10198000E1F7A40FB51FFD01EE0FFF1FEB5BFE4F4C
:1019900080819181881599050CF0EEC0AA0FBB1FBC
:1019A000AA0FBB1FAB5BBC4F11968C91843509F01D
:1019B000E3C08881863409F0DFC0EE0CFF1C87E4A9
:1019C00093E0E80EF91EF7018081863409F0D4C057
:1019D0008B81843509F0D0C01C141D040CF0CCC0E0
:1019E000F80171836083CDC0EA0121969B01F4E088
:1019F000220F331FFA95E1F76901CC0EDD1ED601E7
:101A0000AA0FBB1FFD01EB5BFE4FE080F180EA14E3
:101A1000FB040CF04DC0F901E40FF51FEE0FFF1FA2
:101A2000EE0FFF1FEB5BFC4F8081843509F040C057
:101A3000AA0FBB1FA95BBC4F8C918435C9F54F30F1
:101A40005105B4F5F80171836083D383C283AE017D
:101A50004F5F5F4FD901A40FB51FAA0FBB1FFD0138
:101A6000EB5BFE4F808191818E159F050CF086C047
:101A7000AA0FBB1FA95BBC4F8C91843509F07EC0B7
:101A8000F601EE0FFF1FEE0FFF1FEB5BFC4F808197
:101A9000843509F073C08181863409F06FC0838179
:101AA000863409F06BC0CF30D1050CF067C060C040
:101AB0007A010894E108F108DB0124E0AA0FBB1FBA
:101AC0002A95E1F7ED01CE0DDF1D9E01220F331F98
:101AD000F901EB5BFE4FC080D180CA14DB040CF02F
:101AE00050C0FD01E40FF51FEE0FFF1FEE0FFF1FAB
:101AF000E95BFC4F8081843509F043C0CC0FDD1FCA
:101B0000CC0FDD1FCB5BDC4F88818435D1F51416FB
:101B10001506BCF5F80171836083F382E282A701A8
:101B200041505040A40FB51FFD01EE0FFF1FEB5BAE
:101B3000FE4F808191818C159D0514F5AA0FBB1F66
:101B4000AA0FBB1FAB5BBC4F8C918435C9F4898154
:101B50008634B1F4220F331F295B3C4FF901808199
:101B6000843571F48B81863459F41E141F0444F4B7
:101B7000F8015383428305C0B60103C0AE0101C022
:101B8000A7010894611C711C0C5F1F4FF0E16F16D8
:101B900071048CF07092400160923F0181E060E03E
:101BA0000E94FF018AE690E00E94570282E090E0E6
:101BB0000E94770017C0DB0134E0AA0FBB1F3A95E3
:101BC000E1F7A40FB51FFD01EE0FFF1FEB5BFE4F0A
:101BD000A080B180A114B10409F01BCE7092400125
:101BE00060923F01DF91CF911F910F91FF90EF9095
:101BF000DF90CF90BF90AF909F908F907F906F902D
:101C000008954F925F926F927F928F929F92AF92C0
:101C1000BF92CF92DF92EF92FF920F931F93CF93D9
:101C2000DF935C014B013A01290120E030E044E6FA
:101C300050E00BC041935193019680319105D1F74B
:101C40002F5F3F4F2031310559F0F90165E0EE0F6C
:101C5000FF1F6A95E1F7EB5BFE4F80E090E0EACF73
:101C6000F30154E0EE0FFF1F5A95E1F7E40DF51D67
:101C7000EE0FFF1FEB5BFE4F11821082EE24FF245C
:101C8000A50134E0440F551F3A95E1F7480D591D61
:101C9000440F551F4B5B5E4FB4C090968D919C9145
:101CA00091978E159F0509F040C08481843551F4C9
:101CB0008285843539F4888199818436910511F4BF
:101CC000198308838581843571F4E95BFF4F808136
:101CD000E754F040843539F48E8D9F8D843691051C
:101CE00011F41F8F0E8F8681843571F480818435C5
:101CF00059F45E968D919C915F978436910521F4FD
:101D00005F961C930E935E978781843571F4FB97E1
:101D10008081FB96843549F48D919C91119784368E
:101D2000910519F411961C930E93129634962296EF
:101D3000AC15BD0509F0B1CF6F5F7F4F90E2C92EA2
:101D4000D12CCA0EDB1E6031710519F1DB0185E073
:101D5000AA0FBB1F8A95E1F7AB5DBE4F9B01F4E074
:101D6000220F331FFA95E1F788279927821B930BDF
:101D70000196880F991F880F991FEE27FF27E81BF0
:101D8000F90BEB5BFC4FE901CC0FDD1FC95BDE4FAC
:101D900084CF0894E11CF11C83E3E816F10489F573
:101DA00081E060E00E94FF0186E790E00E94570218
:101DB00080E090E061E070E0A50122E030E00E9468
:101DC000D70283E090E061E070E0A40122E030E01F
:101DD0000E94D70288E090E061E070E0A30122E079
:101DE00030E00E94D7028BE090E061E070E0A20159
:101DF00022E030E00E94D70282E090E00E9477006B
:101E000010C0FA01808191818436910551F495E4E6
:101E1000C92E91E0D92E60E070E087010F5F1F4F5F
:101E200095CFDF91CF911F910F91FF90EF90DF90B1
:101E3000CF90BF90AF909F908F907F906F905F906A
:101E40004F900895CF93DF93EC018130910539F5E0
:101E500080911B0190911C012FEF8F3F920749F059
:101E60008230910509F457C08E5F9F4F09F0A3C0DF
:101E70007FC0E0911D01F0911E0144E0EE0FFF1FB5
:101E80004A95E1F780911F0190912001E80FF91F19
:101E9000EE0FFF1FEE0FFF1FEB5BFC4F56C08230B3
:101EA000910539F580911B0190911C012FEF8F3F17
:101EB000920789F18130910509F45AC08E5F9F4FD6
:101EC00009F079C0E0911D01F0911E0124E0EE0FB0
:101ED000FF1F2A95E1F780911F0190912001E80FE3
:101EE000F91FEE0FFF1FEE0FFF1FEB5BFC4F83810F
:101EF00058C08FEFCF3FD80751F580911B019091CB
:101F00001C018130910561F08230910589F18E5F6D
:101F10009F4F09F050C00E949B050E94D9054BC0FD
:101F2000E0911D01F0911E0184E0EE0FFF1F8A95E4
:101F3000E1F780911F0190912001E80FF91FEE0F4A
:101F4000FF1FEE0FFF1FE95BFC4F80812AC08FEF60
:101F5000CE3FD80781F580911B0190911C01813003
:101F60009105C9F28230910531F08F5F9F4F19F5CD
:101F70000E946505D2CFE0911D01F0911E01A4E001
:101F8000EE0FFF1FAA95E1F780911F0190912001AC
:101F9000E80FF91FEE0FFF1FEE0FFF1FEB5BFC4F6B
:101FA0008181843511F40E949B050E949B05D0938A
:101FB0001C01C0931B01AC9AAD9AAE9AAF9ADF9107
:101FC000CF9108950F931F93CF93DF93EC018B0173
:101FD00080911D0190911E018C179D079CF481E05A
:101FE00090E00E94220F02C00E94EF04CD9B05C02A
:101FF000CF99FACF02C00E94EF04CC9B4CC08799C6
:10200000FACF49C0C817D9079CF48FEF9FEF0E9401
:10201000220F02C00E94EF04CD9B05C0CF99FACFDA
:1020200002C00E94EF04CC9B36C08799FACF33C020
:1020300080911F0190912001861797079CF482E000
:1020400090E00E94220F02C00E94EF04CD9B05C0C9
:10205000CF99FACF02C00E94EF04CC9B1CC0879995
:10206000FACF19C06817790704F510924607109245
:1020700045078EEF9FEF0E94220F02C00E94EF04DF
:10208000CD9B05C0CF99FACF02C00E94EF04CC9B34
:1020900002C08799FACF8FE891E099BD88BD9BBDBA
:1020A0008ABDAC9AAD9AAE9AAF9AD0931E01C093F6
:1020B0001D011093200100931F0181E060E00E9448
:1020C000FF0140911D0150911E0180E090E061E010
:1020D00070E022E030E00E94D70240911F01509151
:1020E000200185E090E061E070E022E030E00E94B5
:1020F000D702409131015091320183E090E060E0DD
:1021000070E025E030E00E94D702AC9AAD9AAE9A1A
:10211000AF9ADF91CF911F910F910895CF92DF92E7
:10212000EF92FF920F931F93CF93DF9381E060E0D4
:102130000E94FF010BE417E0C0E0D0E0EE24FF2492
:10214000CC24DD2421C0F80140815181CE01B701AA
:1021500022E030E00E94D702F80142815381CE0193
:102160000296B70122E030E00E94D7022596CE30D9
:10217000D1052CF0C0E0D0E051E0E52EF12C089420
:10218000C11CD11C0C5F1F4F80913F0190914001F9
:102190008C159D05C4F6DF91CF911F910F91FF9093
:1021A000EF90DF90CF900895EF92FF920F931F93DF
:1021B000CF93DF938FE891E09BBD8ABD99BD88BD29
:1021C000AC9AAD9AAE9AAF9A81E060E00E94FF01AE
:1021D000209131013091320187E0213D38071CF018
:1021E00082E090E002C081E090E09093360180931D
:1021F0003501232B21F410923601109235010E94F3
:102200000D078091290190912A0190932E018093CE
:102210002D0104C00E94EF040E949A048799FACF0E
:1022200080913D0190913E0103970CF0C9C1CE9978
:1022300004C1869902C1CD9900C1CF99FEC0009119
:102240001D0110911E01C0911F01D091200186E453
:1022500090E066E470E044E550E026E430E00E945F
:102260006F0681E060E00E94FF01AC9AAD9AAE9AE1
:10227000AF9A0E94B6010E9427050E94D9050E94CC
:1022800017090E94B30981E060E00E94FF0180E02D
:1022900090E060E070E042E850E00E94CC024091A3
:1022A00037015091380184E090E060E070E022E076
:1022B00030E00E94D70287E090E060E070E047E8FD
:1022C00050E00E94CC024091390150913A018BE0DC
:1022D00090E060E070E022E030E00E94D70280E011
:1022E00090E061E070E04CE850E00E94CC02409148
:1022F0001D0150911E0184E090E061E070E022E059
:1023000030E00E94D70287E090E061E070E040E9B1
:1023100050E00E94CC0240911F01509120018BE0BF
:1023200090E061E070E022E030E00E94D70280910E
:10233000370190913801892B41F0809139019091BA
:102340003A01892B11F00E94F91487E090E09093F4
:102350001E0180931D019093200180931F0182E054
:1023600090E090931C0180931B0184E990E00E940F
:102370005702829917C187E090E067E070E0A801FA
:102380009E010E94010E0E94E00B6BE4E62E67E0C6
:10239000F62E8701C0E0D0E0F80160817181CE01A6
:1023A0000E94C718F80162817381CE0102960E94D3
:1023B000C7180C5F1F4F2496CC33D10569F781E015
:1023C00060E00E94FF0182EA90E00E94570281E0F3
:1023D00090E00E94770010924607109245070E94F5
:1023E0008E10AC9AAD9AAE9AAF9A8299E2C081E013
:1023F00060E00E94FF0181E090E00E947700F70119
:10240000208131812115310521F482819381892B2D
:1024100079F0F70162817381C9010E94E20F84E0C3
:1024200090E0E80EF91E97E8E91697E0F90639F70B
:10243000AC98AD98AE98AF98FBCFCE9B02C0869972
:1024400007C081E090E090932C0180932B0104C0A1
:1024500010922C0110922B010E949B0510922801D2
:1024600010922701AC9AAD9AAE9AAF9A10923001B1
:1024700010922F0110923201109231012091290106
:1024800030912A0180912D0190912E01281B390B4A
:10249000309334012093330180912B0190912C01D2
:1024A00081309105E9F42130310509F053C080E015
:1024B00090E061E070E04FEA50E00E94CC0284E5D9
:1024C00090E064E570E044E550E026E430E00E94EE
:1024D0006F0684E090E060E070E04BEB50E055C0A8
:1024E000892B09F054C021303105C9F480E090E017
:1024F00061E070E040EC50E00E94CC0286E490E0A5
:1025000064E570E044E550E024E530E00E946F06A9
:1025100084E090E060E070E04BEC50E036C0232BAC
:10252000B1F580E090E061E070E040ED50E00E94A5
:10253000CC0286E490E064E570E044E550E026E4F7
:1025400030E00E946F0684E090E060E070E04BEDC8
:1025500050E01BC022303105D1F480E090E061E012
:1025600070E040EE50E00E94CC0284E590E064E52B
:1025700070E044E550E024E530E00E946F0684E01E
:1025800090E060E070E04BEE50E00E94CC0288EEFC
:1025900093E00E94900010923401109233010E9447
:1025A000D9050EC0809BE7CE819BE5CE839BE3CE11
:1025B000E0CE809B1CCF819B1ACF839B18CF15CF79
:1025C000DF91CF911F910F91FF90EF900895EF92BF
:1025D000FF920F931F93CF93DF930E944F0481E0EC
:1025E00060E00E94FF0120E030E046E40EC040833E
:1025F0004183428343830196349680319105B9F734
:102600002F5F3F4F2031310559F0F90166E0EE0FA1
:10261000FF1F6A95E1F7EB5BFC4F80E090E0E7CFAE
:1026200081E060E00E94FF0180EF90E00E9457028D
:1026300080E090E061E070E04FEF50E00E94CC025B
:1026400084E566E446E426E40E946F068399C0C1EF
:1026500010923E0110923D011BC00E94EF0485B311
:10266000807F85BB85B390912201892B85BBCF9953
:1026700002C00E94D4100E944A080E94CE08809195
:102680003101909132010196909332018093310192
:1026900080913D0190913E010397FCF2AC9AAD9A76
:1026A000AE9AAF9A0E941709109238011092370122
:1026B00010923A01109239010E94B30960911F01F2
:1026C00070912001409137015091380120913901DA
:1026D00030913A0180911D0190911E010E94010EDE
:1026E0000E94E00B10924607109245070E948E1040
:1026F000CBE4D7E0288139812115310521F48A8185
:102700009B81892B51F06A817B81C9010E94E20F74
:10271000249687E0C738D80769F700911D0110910A
:102720001E01C0911F01D0912001F80154E0EE0F6D
:10273000FF1F5A95E1F7EC0FFD1FEE0FFF1FEE0F85
:10274000FF1FEB5BFC4F8081843559F4BE016F5F46
:102750007F4FC8010E944006892B19F082E090E06B
:1027600051C0F80134E0EE0FFF1F3A95E1F7EC0F8E
:10277000FD1FEE0FFF1FEE0FFF1FEB5BFC4F818174
:10278000843551F4C8010196BE010E944006892B90
:1027900019F081E090E036C0F80194E0EE0FFF1FE1
:1027A0009A95E1F7EC0FFD1FEE0FFF1FEE0FFF1FD5
:1027B000E95BFC4F8081843559F4BE016150704063
:1027C000C8010E944006892B19F08EEF9FEF1AC0B6
:1027D000F801B4E0EE0FFF1FBA95E1F7EC0FFD1F13
:1027E000EE0FFF1FEE0FFF1FEB5BFC4F8381843565
:1027F00071F4C8010197BE010E944006892B39F08F
:102800008FEF9FEF0E94220F02C00E94EF04CC9B2B
:10281000FCCF879BFACFAC9AAD9AAE9AAF9A109242
:10282000360110923501109232011092310110924E
:102830003C0110923B010CCFCE010E94B418F8016C
:1028400091838083CE0102960E94B418F80193838D
:10285000828324960C5F1F4FCC33D10569F781E04A
:1028600060E00E94FF0140914B0750914C0780E0CF
:1028700090E060E070E021E030E00E94D7024091FB
:102880004D0750914E0781E090E060E070E021E05C
:1028900030E00E94D70240914F075091500783E0EB
:1028A00090E060E070E021E030E00E94D7024091CB
:1028B00051075091520784E090E060E070E021E021
:1028C00030E00E94D702409153075091540786E0B0
:1028D00090E060E070E021E030E00E94D70240919B
:1028E00055075091560787E090E060E070E021E0E6
:1028F00030E00E94D702409157075091580789E075
:1029000090E060E070E021E030E00E94D70240916A
:10291000590750915A078AE090E060E070E021E0AA
:1029200030E00E94D70240915B0750915C078CE039
:1029300090E060E070E021E030E00E94D70240913A
:102940005D0750915E078DE090E060E070E021E06F
:1029500030E00E94D70240915F075091600780E00D
:1029600090E061E070E021E030E00E94D702409109
:1029700061075091620781E090E061E070E021E042
:1029800030E00E94D70282992DC081E060E00E9471
:10299000FF0181E090E00E947700F7012081318102
:1029A0002115310529F482819381892B09F44ECEBA
:1029B000F70162817381C9010E94E20F84E090E017
:1029C000E80EF91E97E8E91697E0F90631F73ECED2
:1029D00080993CCE7BE4E72E77E0F72E8701C0E0BC
:1029E000D0E02ACF809BD1CF819BCFCF839BCDCF0F
:1029F000CACFEF92FF920F931F93CF93DF935FE8BD
:102A0000E52E51E0F52EAC9AAD9AAE9AAF9A609150
:102A10001F017091200140913701509138012091A0
:102A2000390130913A0180911D0190911E010E945F
:102A3000010E0E94E00B10924607109245070E947B
:102A40008E10CBE4D7E0288139812115310521F49E
:102A50008A819B81892B51F06A817B81C9010E9407
:102A6000E20F249687E0C738D80769F700911D0167
:102A700010911E01C0911F01D0912001F80144E086
:102A8000EE0FFF1F4A95E1F7EC0FFD1FEE0FFF1F42
:102A9000EE0FFF1FEB5BFC4F8081843559F4BE01C4
:102AA0006F5F7F4FC8010E944006892B19F082E0BA
:102AB00090E051C0F80124E0EE0FFF1F2A95E1F7E6
:102AC000EC0FFD1FEE0FFF1FEE0FFF1FEB5BFC4F28
:102AD0008181843551F4C8010196BE010E944006EF
:102AE000892B19F081E090E036C0F80184E0EE0F08
:102AF000FF1F8A95E1F7EC0FFD1FEE0FFF1FEE0F92
:102B0000FF1FE95BFC4F8081843559F4BE016150A1
:102B10007040C8010E944006892B19F08EEF9FEF8C
:102B20001AC0F801A4E0EE0FFF1FAA95E1F7EC0F21
:102B3000FD1FEE0FFF1FEE0FFF1FEB5BFC4F8381AE
:102B4000843571F4C8010197BE010E944006892BAB
:102B500039F08FEF9FEF0E94220F02C00E94EF0416
:102B6000CC9BFCCF879BFACFAC9AAD9AAE9AAF9A2A
:102B700010923601109235011092320110923101FB
:102B800010923C0110923B0110923E0110923D01C7
:102B90001BC00E94EF0485B3807F85BB85B39091F5
:102BA0002201892B85BBCF9902C00E94D4100E94BC
:102BB0004A080E94CE08809131019091320101961D
:102BC000909332018093310180913D0190913E01BB
:102BD000892BF9F2FBBCEABCF9BCE8BCAC9AAD9A13
:102BE000AE9AAF9A0E9417091092380110923701DD
:102BF00010923A01109239010E94B3098091370175
:102C000090913801892B09F0FECE80913901909185
:102C10003A01892B09F0F7CEDF91CF911F910F91E7
:102C2000FF90EF90089580E090E00E94AC188093B0
:102C3000870781E090E00E94AC188093880782E0CB
:102C400090E00E94AC188093890783E090E00E9496
:102C5000AC1880938A070895CF93DF9320918B0758
:102C60008091470790E0820F911D959587958093FD
:102C7000870720918C078091480790E0820F911D73
:102C8000959587958093880720918D0780914907B6
:102C900090E0820F911D95958795809389072091EB
:102CA0008E0780914A0790E0820F911D9595879538
:102CB00080938A07C0E0D0E0FE01E957F84FCE01CB
:102CC00060810E94BA182196C430D105A9F7DF911E
:102CD000CF9108955058BB27AA270ED075C166D151
:102CE00030F06BD120F031F49F3F11F41EF45BC142
:102CF0000EF4E095E7FB51C1E92F77D180F3BA17C5
:102D0000620773078407950718F071F49EF58FC169
:102D10000EF4E0950B2EBA2FA02D0B01B9019001F6
:102D20000C01CA01A0011124FF27591B99F0593F3A
:102D300050F4503E68F11A16F040A22F232F342F82
:102D40004427585FF3CF469537952795A795F040D0
:102D50005395C9F77EF41F16BA0B620B730B840BE5
:102D6000BAF09150A1F0FF0FBB1F661F771F881F9D
:102D7000C2F70EC0BA0F621F731F841F48F48795F5
:102D800077956795B795F7959E3F08F0B3CF9395E4
:102D9000880F08F09927EE0F979587950895D9D059
:102DA00008F481E008950CD00FC107D140F0FED0A7
:102DB00030F021F45F3F19F0F0C0511139C1F3C078
:102DC00014D198F39923C9F35523B1F3951B550BEF
:102DD000BB27AA2762177307840738F09F5F5F4FEE
:102DE000220F331F441FAA1FA9F333D00E2E3AF02F
:102DF000E0E830D091505040E695001CCAF729D049
:102E0000FE2F27D0660F771F881FBB1F2617370797
:102E10004807AB07B0E809F0BB0B802DBF01FF27C7
:102E200093585F4F2AF09E3F510568F0B6C000C12D
:102E30005F3FECF3983EDCF3869577956795B79501
:102E4000F7959F5FC9F7880F911D9695879597F91C
:102E50000895E1E0660F771F881FBB1F6217730795
:102E60008407BA0720F0621B730B840BBA0BEE1FAA
:102E700088F7E095089504D06894B111D9C00895F9
:102E8000BCD088F09F5790F0B92F9927B751A0F088
:102E9000D1F0660F771F881F991F1AF0BA95C9F7EE
:102EA00012C0B13081F0C3D0B1E00895C0C0672F27
:102EB000782F8827B85F39F0B93FCCF3869577959E
:102EC0006795B395D9F73EF4909580957095619587
:102ED0007F4F8F4F9F4F0895E89409C097FB3EF4B2
:102EE00090958095709561957F4F8F4F9F4F992357
:102EF000A9F0F92F96E9BB279395F69587957795D5
:102F00006795B795F111F8CFFAF4BB0F11F460FF94
:102F10001BC06F5F7F4F8F4F9F4F16C0882311F0EC
:102F200096E911C0772321F09EE8872F762F05C000
:102F3000662371F096E8862F70E060E02AF09A959B
:102F4000660F771F881FDAF7880F9695879597F990
:102F50000895990F0008550FAA0BE0E8FEEF16162A
:102F60001706E807F907C0F012161306E407F5077D
:102F700098F0621B730B840B950B39F40A2661F0F1
:102F8000232B242B252B21F408950A2609F4A14094
:102F9000A6958FEF811D811D089597F99F6780E8A1
:102FA00070E060E008959FEF80EC089500240A949B
:102FB0001616170618060906089500240A94121614
:102FC0001306140605060895092E0394000C11F447
:102FD000882352F0BB0F40F4BF2B11F460FF04C0F4
:102FE0006F5F7F4F8F4F9F4F089557FD9058440F4D
:102FF000551F59F05F3F71F04795880F97FB991F58
:1030000061F09F3F79F08795089512161306140614
:10301000551FF2CF4695F1DF08C0161617061806A1
:10302000991FF1CF86957105610508940895E8947C
:10303000BB2766277727CB0197F908958ADF08F425
:103040008FEF08950BD0C0CFB1DF28F0B6DF18F0B6
:10305000952309F0A2CFA7CF1124EACFC6DFA0F3B2
:10306000959FD1F3950F50E0551F629FF001729F1D
:10307000BB27F00DB11D639FAA27F00DB11DAA1F3C
:10308000649F6627B00DA11D661F829F2227B00D89
:10309000A11D621F739FB00DA11D621F839FA00D14
:1030A000611D221F749F3327A00D611D231F849F64
:1030B000600D211D822F762F6A2F11249F575040BB
:1030C0008AF0E1F088234AF0EE0FFF1FBB1F661F56
:1030D000771F881F91505040A9F79E3F510570F00F
:1030E0005CCFA6CF5F3FECF3983EDCF386957795F7
:1030F0006795B795F795E7959F5FC1F7FE2B880F0A
:10310000911D9695879597F9089597FB092E0726A7
:103110000AD077FD04D00CD006D000201AF47095A8
:1031200061957F4F0895F6F7909581959F4F08958B
:10313000AA1BBB1B51E107C0AA1FBB1FA617B707DD
:1031400010F0A61BB70B881F991F5A95A9F78095F9
:103150009095BC01CD010895E199FECF9FBB8EBB38
:10316000E09A99278DB30895A8E1B0E042E050E0DD
:103170000C94CE18262FE199FECF9FBB8EBB2DBBA2
:103180000FB6F894E29AE19A0FBE019608950E9454
:10319000BA18272F0C94BB18DC01CB01FC01E19974
:1031A000FECF06C0FFBBEEBBE09A31960DB20D928A
:0C31B00041505040B8F70895F894FFCF4C
:1031BC0046696C6C6961626C650042726F6B65206C
:1031CC0070617468200042726F6B65206275696C67
:1031DC0064006D783A20006D793A2000783A20002E
:1031EC00793A2000507265737320416E79204B65DB
:1031FC00790053746F72656420496E204550007CD1
:10320C002D20446574656374656400545454460001
:10321C0054204465746563746564004654545400CA
:10322C004C204465746563746564004654544600D0
:10323C002B204465746563746564005454545400C5
:10324C00443320666F72206472792072756E00446C
:10325C003020666F72205374737420706174680030
:10326C00FF000000704166664640730200070007CD
:02327C00000050
:00000001FF
