:100000000C942A000C9447000C9447000C94470071
:100010000C9447000C9447000C9447000C94470044
:100020000C9447000C9447000C9447000C94470034
:100030000C9447000C9447000C9447000C94470024
:100040000C9447000C9447000C9447000C94470014
:100050000C94470011241FBECFE5D4E0DEBFCDBF16
:1000600010E0A0E6B0E0E0E1F0E202C005900D9201
:10007000A03FB107D9F713E0A0EFB0E001C01D9297
:10008000AD3AB107E1F70E94F60C0C9406100C94FF
:1000900000008FEF8BBB1ABA88BB17BA15BA84BBA6
:1000A00082BB11BA08958C9A8D9A1EBC1DBC1CBCD3
:1000B0001BBC1ABC19BC18BC81E087BD8FE886BD8B
:1000C00082EA8FBD89E18EBD08951ABA16B880E61E
:1000D00087B987E886B980E888B9089515B8877028
:1000E000806687B9369A3699FECF85B10895AC01FE
:1000F00030E060E971E00CC0FB013197F1F7019746
:10010000D9F72F5F243019F084EC99E0F5CF3F5FE9
:10011000832F90E08417950714F420E0F5CF08951D
:10012000AF92BF92CF92DF92EF92FF920F931F9305
:10013000AA2797FDA095BA2FBC01CD010E94B30E4E
:100140005B016C0120E030E04AE755E40E94670F54
:100150007B018C0120E030E040E85FE30E94140E58
:1001600088231CF461E070E024C0C801B70120E0DE
:100170003FEF4FE757E40E94630F1816B4F4C6012F
:10018000B50120E030E040E251E40E94670F0E9498
:10019000850E80E991E005C0FC013197F1F76150CF
:1001A000704061157105C1F707C0C801B7010E9411
:1001B000850ECB010197F1F71F910F91FF90EF9002
:1001C000DF90CF90BF90AF900895AF92BF92CF9243
:1001D000DF92EF92FF920F931F93AA2797FDA095AE
:1001E000BA2FBC01CD010E94B30E5B016C012BEA5A
:1001F0003AEA4AEA50E40E94670F7B018C0120E052
:1002000030E040E85FE30E94140E882314F461E0BC
:1002100054C0C801B70120E030E04FE753E40E942A
:10022000630F18160CF045C0C601B50120E030E0A0
:100230004AE754E40E94180E5B016C0120E030E0B4
:100240004AE755E40E94670F7B018C0120E030E013
:1002500040E85FE30E94140E88231CF461E070E024
:1002600024C0C801B70120E03FEF4FE757E40E94E8
:10027000630F1816B4F4C601B50120E030E040E287
:1002800051E40E94670F0E94850E80E991E005C04D
:10029000FC013197F1F76150704061157105C1F7AC
:1002A0000EC0C801B7010E94850ECB010197F1F77E
:1002B00006C0C801B7010E94850E6A95F1F71F912B
:1002C0000F91FF90EF90DF90CF90BF90AF90089587
:1002D0000F931F93CF93DF931092F000C0E0D0E014
:1002E00001E010E08C2F0E946E00863460F49801CB
:1002F0000C2E02C0220F331F0A94E2F78091F00007
:10030000822B8093F0002196C430D10559F7DF91FC
:10031000CF911F910F91089580E00E946E0080930D
:10032000970381E00E946E008093980382E00E9410
:100330006E008093990383E00E946E0080939A037D
:10034000089580E00E946E0080939F0381E00E94E8
:100350006E008093A00382E00E946E008093A10350
:1003600083E00E946E008093A20308951F93CF93B1
:10037000DF93C0E0D0E01FEF15BB84E690E00E9461
:10038000900015BA84E690E00E9490002196C53056
:10039000D10591F7DF91CF911F9108959BBD8ABD43
:1003A000089599BD88BD089587B3807F87BBC69A9D
:1003B000C59882E08A95F1F722E035E0C79A822F4E
:1003C0008A95F1F786B38295807F922F9A95F1F7FF
:1003D000C798932F9A95F1F7C79A922F9A95F1F7AC
:1003E00096B3922F9A95F1F7C798932F9A95F1F7B4
:1003F00087FDE4CFC69887B38F6087BB0895282F09
:10040000662311F4C59801C0C59A82E08A95F1F778
:10041000C79A88B3922F92959F70807F982B98BB34
:1004200095E0892F8A95F1F7C798892F8A95F1F77A
:10043000C79A88B32F70807F822B88BB892F8A95BB
:10044000F1F7C7989A95F1F70E94D40108951F9388
:10045000182F8CE291E020E931E0F9013197F1F7B2
:100460000197D9F787B38F6087BBBF9ABD9ABE9AB1
:1004700088B3807F88BBC798C698C59881E08A9565
:10048000F1F7C79AC19A85E0982F9A95F1F7C79826
:100490008A95F1F70E94D401812F8C6060E00E9460
:1004A000FF0188E260E00E94FF011F910895CF9351
:1004B000DF93EC0104C061E00E94FF012196888176
:1004C0008823C9F7DF91CF910895EF92FF920F93A0
:1004D0001F93DF93CF9300D000D00F92CDB7DEB73C
:1004E0009C018B01FE01319685E0DF011D928A950A
:1004F000E9F7FE0135960DC0C9016AE070E00E947F
:10050000CA0F8083C9016AE070E00E94CA0F9B0194
:1005100031972115310581F7BFEF0F3F1B0779F4A4
:1005200020E030E0AE014F5F5F4F02C02F5F3F4FD2
:10053000FA01E20FF31F80818823C1F304C025E094
:1005400030E0201B310B7E010894E11CF11CE20E0F
:10055000F31E890109C0F70181917F01805D61E08F
:100560000E94FF010F5F1F4F05301105A4F30F908C
:100570000F900F900F900F90CF91DF911F910F91DF
:10058000FF90EF900895883230F4611180648068A4
:1005900060E00E94FF0108950F931F938A010E945B
:1005A000C302C8010E9457021F910F910895EF9254
:1005B000FF920F931F938A0179010E94C302C80121
:1005C000B7010E9465021F910F91FF90EF9008956F
:1005D0001AB81BB887E080BD87E689B910BC88E9E6
:1005E0008AB908955D9BFECF8CB90895FC0104C0C3
:1005F0005D9BFECF8CB9319680818823C9F7089521
:100600005D9BFECF8AE08CB95D9BFECF8DE08CB9FF
:1006100008955F9BFECF8CB108958FEF84BB089542
:10062000AC9AAD98AE98AF980895AC98AD9AAE9844
:10063000AF980895AC98AD98AE9AAF980895AC98DD
:10064000AD98AE9AAF980895AC9AAD98AE98AF9821
:100650000895AC98AD98AE98AF9A0895AC9AAD98BD
:10066000AE9AAF980895AC98AD9AAE98AF9A0895A7
:10067000AC98AD9AAE9AAF980895AC9AAD98AE98F2
:10068000AF9A0895AC98AD98AE98AF980895AC9A8B
:10069000AD9AAE9AAF9A089582B38F6082BB81B350
:1006A000807F81BB089520B330E020953095217084
:1006B0003070C901089520B330E036952795209514
:1006C000309521703070C901089520B330E036951F
:1006D0002795369527952095309521703070C90162
:1006E000089520B330E043E0369527954A95E1F729
:1006F0002095309521703070C90108956F927F92D6
:100700008F929F92AF92BF92CF92DF92EF92FF9221
:100710000F931F93AC9AAD98AE9AAF988091F0006A
:10072000863091F1873060F48230B1F0833018F474
:100730008130C1F531C08330A9F0843099F509C00A
:10074000883039F18830A0F08C3049F08E3051F586
:100750000CC081E090E022C08FEF9FEF1FC083E0CC
:1007600090E01CC08DEF9FEF05C084E090E016C0C4
:100770008CEF9FEF9093F2008093F1008091FD0049
:100780009091FE00019771F41092F2001092F10026
:1007900009C086E090E002C08AEF9FEF9093F200DC
:1007A0008093F1006091F1007091F200882777FD4D
:1007B0008095982F0E94B30E5B016C016091A3039A
:1007C0007091A4038091A5039091A603A6019501C1
:1007D0000E94AF0D7B018C016093A9037093AA0363
:1007E0008093AB039093AC03C601B5012091E10067
:1007F0003091E2004091E3005091E4000E94670FC5
:100800003B014C01C801B7012091E5003091E600A1
:100810004091E7005091E8000E94670F9B01AC01F6
:10082000C401B3010E94AF0D7B018C0160930901EB
:1008300070930A0180930B0190930C01A092A30383
:10084000B092A403C092A503D092A6036091DF00EA
:100850007091E00080E090E00E94B10E5B016C01BD
:10086000A80197010E94AF0D0E94800E7BBD6ABD5A
:10087000C601B501A80197010E94B00D0E94800E2B
:1008800079BD68BD1F910F91FF90EF90DF90CF90E1
:10089000BF90AF909F908F907F906F9008950E942F
:1008A00049001ABA16B880E687B987E886B980E8A1
:1008B00088B98FEF84BB82E00E94270282B38F60E9
:1008C00082BB81B3807F81BB0E945300089585E77E
:1008D0008093E90020EF30E082E291E008C03BBD68
:1008E0002ABD99BD88BDAC98AD9AAE9AAF98CD9906
:1008F000F6CF09C03BBD2ABD99BD88BDAC98AD9A65
:10090000AE9AAF9804C029EB30E087ED90E0CE9B23
:1009100002C08699EFCF8FE891E09BBD8ABD99BD5B
:1009200088BDAC9AAD9AAE9AAF9A0895CC9916C08C
:100930008091F5009091F600892BA1F48091F70049
:100940009091F80001969093F8008093F70081E071
:1009500090E09093F6008093F50008951092F600D1
:100960001092F5000895CD9B06C08091FD009091F6
:10097000FE00019779F581E090E09093FE0080936E
:10098000FD00CC9927C0869B14C0CE9B12C0089551
:100990003BBD2ABD39BD28BDAC9AAD98AE9AAF9883
:1009A00080E090E0879909C0AC9AAD9AAE9AAF9A70
:1009B00004C081E090E020EF30E0CC9B05C0909334
:1009C000FE008093FD0008958799E2CF9093FE008A
:1009D0008093FD0008950E946801AC9AAD98AE9A8C
:1009E000AF98CE9B09C0869907C086EE90E09BBD6C
:1009F0008ABD82E291E01AC0869B09C0CE9907C0E9
:100A000082E291E09BBD8ABD86EE90E00FC0869B9E
:100A100005C0CE9B03C00E947E030AC0869908C011
:100A2000CE9906C084E091E09BBD8ABD99BD88BD8A
:100A30008AE090E00E94E50008958CE68093E9004A
:100A400089E091E008C09BBD8ABD99BD88BDAC9886
:100A5000AD9AAE9AAF98CD99F6CF09C09BBD8ABD2D
:100A600099BD88BDAC98AD9AAE9AAF9802C088EC9B
:100A700090E0CE9B05C08699F1CF02C00E94EB04A6
:100A8000CC9BFCCF879BFACF8FE891E09BBD8ABDC2
:100A900099BD88BDAC9AAD9AAE9AAF9A0895CF939E
:100AA000DF9382E78093E900CFEFD0E00AC0DBBD9F
:100AB000CABDD9BDC8BDAC9AAD98AE98AF9A0E94D8
:100AC0009604CF99F4CF0BC0DBBDCABDD9BDC8BD5C
:100AD000AC9AAD98AE98AF9A0E94960402C0C8EC4A
:100AE000D0E0CE9B05C08699EFCF02C00E94EB04F8
:100AF000CC9BFCCF879BFACF8FE891E09BBD8ABD52
:100B000099BD88BDAC9AAD9AAE9AAF9ADF91CF915C
:100B100008958091E9008237D1F48091EA009091A4
:100B2000EB002FEF8F3F920759F12FEF8F3F920786
:100B300009F02CF48E5F9F4F09F051C03DC0813009
:100B4000910509F43FC0029709F049C038C08C36BE
:100B5000D1F48091EA009091EB002FEF8F3F920744
:100B600089F12FEF8F3F920709F024F48E5F9F4F9A
:100B7000B1F525C08130910519F0029781F51CC0AF
:100B800082E090E021C0853751F58091EA00909194
:100B9000EB002FEF8F3F920791F02FEF8F3F9207DF
:100BA00009F024F48E5F9F4FD1F413C0813091057A
:100BB00019F00297A1F406C08FEF9FEF05C081E006
:100BC00090E002C08EEF9FEF9093EB008093EA00DD
:100BD000089582E090E09093EB008093EA000895FE
:100BE000EF92FF920F931F93CF93DF938C017901C4
:100BF0008091EC009091ED002091EE003091EF009B
:100C0000FC01A3E0EE0FFF1FAA95E1F7E80FF91F23
:100C1000E20FF31FDF0123E0AA0FBB1F2A95E1F7C4
:100C2000A35FBE4F8D919C911197892B09F062C0F3
:100C3000EF0193E0CC0FDD1F9A95E1F7C15FDE4F26
:100C400088819981892B09F055C083E0EE0FFF1F41
:100C50008A95E1F7EF5EFE4F80819181892B09F043
:100C600049C016968D919C911797892B09F042C027
:100C70008091EA009091EB002FEF8F3F920781F176
:100C80002FEF8F3F920709F024F48E5F9F4F91F56D
:100C90001CC08130910571F0029761F511961C938B
:100CA0000E9379836883518340831796FC92EE926A
:100CB000169720C0198308837183608317965C930D
:100CC0004E931697ED92FC9215C0118300831796F0
:100CD0007C936E9316974D935C93F982E8820AC0D9
:100CE00017961C930E9316976D937C9359834883A4
:100CF000F182E082DF91CF911F910F91FF90EF90F1
:100D0000089520910701309108018091EA009091A7
:100D1000EB002230310509F079C02FEF8F3F9207A9
:100D200051F14FEF8F3F940709F02CF48E5F9F4FE6
:100D300009F0A2C052C08130910521F0029709F05C
:100D40009BC032C08091EC009091ED000196909391
:100D5000ED008093EC0081E090E060E070E041E025
:100D600050E020E030E00E94F0058091EC0090918E
:100D7000ED0001966BC08091EC009091ED00019721
:100D80009093ED008093EC0081E090E060E070E0F3
:100D900041E050E020E030E00E94F0058091EC005E
:100DA0009091ED00019752C08091EE009091EF007C
:100DB00001969093EF008093EE0081E090E060E078
:100DC00070E041E050E020E030E00E94F0058091CA
:100DD000EE009091EF0001964BC08091EE00909153
:100DE000EF0001979093EF008093EE0081E090E098
:100DF00060E070E041E050E020E030E00E94F0056B
:100E00008091EE009091EF00019732C04FEF8F3F3D
:100E10009407B1F04FEF8F3F940709F024F48E5FF1
:100E20009F4F51F51FC08130910519F0029721F5B0
:100E300012C08091EC009091ED00820F931F06C0CC
:100E40008091EC009091ED00821B930B9093ED004C
:100E50008093EC0011C08091EE009091EF00820F22
:100E6000931F06C08091EE009091EF00821B930BC0
:100E70009093EF008093EE0081E060E00E94FF011C
:100E80004091EC005091ED0084E090E060E070E073
:100E900022E030E00E94D7024091EE005091EF0036
:100EA00088E090E060E070E022E030E00E94D7024D
:100EB00010920801109207010895CF93DF93CD9906
:100EC00020C0C1E0D0E0D093FE00C093FD0080912F
:100ED000FF0090910001815D97405CF081E060E04F
:100EE0000E94FF0182E090E0909308018093070147
:100EF00008C081E060E00E94FF01D0930801C09328
:100F00000701CE9B02C0869917C0CC9915C0AC9A38
:100F1000AD9AAE9AAF9A0E94810681E090E060E0BF
:100F200070E041E050E021E030E00E94F0051092D6
:100F300000011092FF0022C0CC9920C0CE9B1EC0A1
:100F4000869B1CC00E948106109200011092FF0037
:100F50000E941D0580E090E060E070E041E050E01C
:100F600021E030E00E94F005AC9AAD9AAE9AAF9ABB
:100F70000E9489051092FE001092FD000E94B304A9
:100F8000DF91CF910895CE9B35C0869B33C0809171
:100F9000F000833041F08C3031F0843021F0823029
:100FA00011F08630F9F48091FD009091FE00892BBC
:100FB00009F58091FF009091000120910701309187
:100FC0000801815D97402CF0232BA1F482E090E092
:100FD00004C0232B79F481E090E090930801809382
:100FE000070108C081E060E00E94FF0180E690E018
:100FF0000E9457028091F000882371F5CC9B2CC091
:10100000CD9B2AC0CE9B28C0CF9B26C0869B24C0E8
:10101000879B22C08091FD009091FE00892BE1F416
:10102000AC9AAD9AAE9AAF9A0E94810680E090E0A9
:1010300060E070E041E050E020E030E00E94F00528
:101040000E9467040E9489051092FE001092FD0024
:10105000109200011092FF000895CF93DF93DC01FE
:1010600033E0AA0FBB1F3A95E1F7A80FB91FA60FEF
:10107000B71FED0123E0CC0FDD1F2A95E1F7C35F19
:10108000DE4F88819981892B09F5FD0193E0EE0FF0
:10109000FF1F9A95E1F7E15FFE4F80819181892BD7
:1010A000A9F483E0AA0FBB1F8A95E1F7AF5EBE4F9C
:1010B0008D919C91892B51F420E08E819F81892B09
:1010C00009F021E081E0282730E002C020E030E094
:1010D000C901DF91CF9108958F929F92AF92BF92F5
:1010E000CF92DF92EF92FF920F931F93CF93DF93F4
:1010F00071E0E72EF12C79C0C701B6010E942D08DE
:10110000892B09F460C081E060E00E94FF01C40106
:10111000B6010E942D08892B09F055C0C501B60102
:101120000E942D08892B09F04EC0B6016150704015
:10113000C7010E942D08892B09F045C0B6016F5FD9
:101140007F4FC7010E942D08892BE9F581E060E0FF
:101150000E94FF018EE690E00E94570280ED97E02A
:101160000E949000C25BDF4F88819981CE54D040AD
:101170008130910519F49B838A8302C01B821A82F5
:10118000C654D04088819981CA5BDF4F8130910578
:1011900019F49F838E8302C01F821E828C859D85D9
:1011A0008130910519F49983888302C019821882CD
:1011B000F801808191818130910519F49D838C83A0
:1011C00002C01D821C820894C11CD11C065F1F4FE7
:1011D0002896F8E0CF16D10409F08ECF0894E11CD0
:1011E000F11C88E0E816F104E1F0870163E0000FEC
:1011F000111F6A95E1F70E0D1F1D53E0000F111F1F
:101200005A95E1F70B5E1E4FE80141E0C42ED12C48
:1012100047010894811C911C57010894A108B1084A
:101220006BCFDF91CF911F910F91FF90EF90DF90E7
:10123000CF90BF90AF909F908F9008956F927F92C4
:101240008F929F92AF92BF92CF92DF92EF92FF92D6
:101250000F931F93CF93DF9300E010E0E8E46E2E2E
:10126000712C60C0C801BE010E942D08892B09F0B5
:101270004BC0F70180819181019751F46E01089470
:10128000C11CD11CC801B6010E942D08892BF9F49C
:10129000F70182819381019759F4C501BE010E9433
:1012A0002D08892B29F0B092A803A092A70327C08C
:1012B000F70184819581019799F46E010894C10822
:1012C000D108C801B6010E942D08892B49F010935E
:1012D000A8030093A703D0929603C092950338C049
:1012E000F70186819781019779F4C401BE010E94BC
:1012F0002D08892B49F09092A8038092A703D093E0
:101300009603C093950324C0219688E090E0E80EF0
:10131000F91EC930D10509F0A5CF0F5F1F4F093065
:101320001105B1F0069D7001079DF00C169DF00CA3
:101330001124EDE0F1E0EE0EFF1EC0E0D0E0480128
:1013400008948108910858010894A11CB11C8ACF07
:10135000DF91CF911F910F91FF90EF90DF90CF9091
:10136000BF90AF909F908F907F906F900895CF9295
:10137000DF92EF92FF920F931F93CF93DF93CF995A
:101380002CC3AC9AAD9AAE9AAF9A81E060E00E940D
:10139000FF018091FF0090910001815D97401CF05A
:1013A00082E090E002C081E090E090930801809399
:1013B00007010E9481068091F7009091F8009093B8
:1013C000FC008093FB0004C00E94EB040E94960482
:1013D0008799FACFCE9938C2869936C2CD9934C250
:1013E000CF9932C281E060E00E94FF01AC9AAD9AD1
:1013F000AE9AAF9A0E946C080E941E090E94B60124
:1014000081E060E00E94FF0180E090E060E070E039
:1014100048E750E00E94CC024091A7035091A803F6
:1014200084E090E060E070E022E030E00E94D702CB
:1014300087E090E060E070E04DE750E00E94CC0271
:1014400040919503509196038BE090E060E070E04E
:1014500022E030E00E94D70280E090E061E070E09E
:1014600042E850E00E94CC028299B0C281E060E084
:101470000E94FF0181E090E00E94770081E990E006
:101480000E945702C5E0D0E055E0C52ED12C8399CB
:1014900076C081E060E00E94FF018FE990E00E9449
:1014A000570281E090E00E94770081E060E00E94B6
:1014B000FF010894C108D1088AEA90E00E9457020F
:1014C0008E0143E0000F111F4A95E1F70C0F1D1F1D
:1014D0000C0D1D1D33E0000F111F3A95E1F72DE0B3
:1014E000E22E21E0F22EE00EF11EF7014081518143
:1014F00082E090E060E070E021E030E00E94D702FE
:10150000F801E15FFE4F4081518184E090E060E0AE
:1015100070E021E030E00E94D7020F5E1E4FF8011C
:101520004081518186E090E060E070E021E030E0B1
:101530000E94D702F7014681578188E090E060E081
:1015400070E021E030E00E94D7028AE090E060E0A5
:1015500070E04CEA50E00E94CC0280E090E061E054
:1015600070E0AE0121E030E00E94D70282E090E01E
:1015700061E070E0A60121E030E00E94D70282998C
:1015800074C081E060E00E94FF018EEA90E00E945A
:10159000570281E090E00E94770081E060E00E94C5
:1015A000FF0121978AEA90E00E9457028E01B3E082
:1015B000000F111FBA95E1F70C0F1D1F0C0D1D1D1B
:1015C000A3E0000F111FAA95E1F7FDE0EF2EF1E077
:1015D000FF2EE00EF11EF7014081518182E090E084
:1015E00060E070E021E030E00E94D702F801E15FA6
:1015F000FE4F4081518184E090E060E070E021E0A6
:1016000030E00E94D7020F5E1E4FF80140815181E9
:1016100086E090E060E070E021E030E00E94D702D8
:10162000F7014681578188E090E060E070E021E0BA
:1016300030E00E94D7028AE090E060E070E04CEA7F
:1016400050E00E94CC0280E090E061E070E0AE01EA
:1016500021E030E00E94D70282E090E061E070E09B
:10166000A60121E030E00E94D702819974C081E098
:1016700060E00E94FF0189EB90E00E94570281E048
:1016800090E00E94770081E060E00E94FF012196D7
:101690008AEA90E00E9457028E0163E0000F111F5A
:1016A0006A95E1F70C0F1D1F0C0D1D1D53E0000F77
:1016B000111F5A95E1F74DE0E42E41E0F42EE00EC3
:1016C000F11EF7014081518182E090E060E070E01E
:1016D00021E030E00E94D702F801E15FFE4F408137
:1016E000518184E090E060E070E021E030E00E9411
:1016F000D7020F5E1E4FF8014081518186E090E0D5
:1017000060E070E021E030E00E94D702F7014681FE
:10171000578188E090E060E070E021E030E00E94D6
:10172000D7028AE090E060E070E04CEA50E00E946E
:10173000CC0280E090E061E070E0AE0121E030E0BA
:101740000E94D70282E090E061E070E0A60121E013
:1017500030E00E94D70280999ACE81E060E00E943A
:10176000FF0184EC90E00E94570281E090E00E942B
:10177000770081E060E00E94FF010894C11CD11C49
:101780008AEA90E00E9457028E0193E0000F111F39
:101790009A95E1F70C0F1D1F0C0D1D1D83E0000F26
:1017A000111F8A95E1F7BDE0EB2EB1E0FB2EE00EB4
:1017B000F11EF7014081518182E090E060E070E02D
:1017C00021E030E00E94D702F801E15FFE4F408146
:1017D000518184E090E060E070E021E030E00E9420
:1017E000D7020F5E1E4FF8014081518186E090E0E4
:1017F00060E070E021E030E00E94D702F70146810E
:10180000578188E090E060E070E021E030E00E94E5
:10181000D7028AE090E060E070E04CEA50E00E947D
:10182000CC0280E090E061E070E0AE0121E030E0C9
:101830000E94D70282E090E061E070E0A60121E022
:1018400030E00E94D70223CECE9B02C0869907C00B
:1018500081E090E09093FA008093F90004C0109228
:10186000FA001092F9000E944F051092F6001092B3
:10187000F500AC9AAD9AAE9AAF9A1092FE00109213
:10188000FD00109200011092FF002091F7003091AE
:10189000F8008091FB009091FC00281B390B3093DD
:1018A0000401209303018091F9009091FA008130A6
:1018B0009105A9F42130310509F054C081E090E090
:1018C00061E070E041E050E020E030E00E94F0058F
:1018D00080E090E061E070E04FEC50E02AC0892B9E
:1018E00009F06DC02130310589F480E090E061E0BD
:1018F00070E041E050E021E030E00E94F00580E03F
:1019000090E061E070E041ED50E03FC0232B09F032
:1019100056C080E090E061E070E041E050E020E0FF
:1019200030E00E94F00580E090E061E070E041ED81
:1019300050E00E94CC0282E090E061E070E04FEC69
:1019400050E00E94CC0284E090E061E070E04FEC57
:1019500050E00E94CC0286E090E061E070E041ED52
:1019600050E02BC02230310551F581E090E061E07C
:1019700070E041E050E021E030E00E94F00580E0BE
:1019800090E061E070E04FEC50E00E94CC0282E019
:1019900090E061E070E04FEC50E00E94CC0284E007
:1019A00090E061E070E04FEC50E00E94CC0286E0F5
:1019B00090E061E070E04FEC50E00E94CC021092A9
:1019C0000401109203010E94890507C0809B4ECD3F
:1019D000819B4CCD839B4ACD47CDDF91CF911F9109
:1019E0000F91FF90EF90DF90CF9008950E944F04E9
:1019F00081E060E00E94FF0183ED90E00E945702C9
:101A000020E030E048E450E012C0118210821382DE
:101A100012821582148217821682019638968930B6
:101A2000910599F72F5F3F4F2930310561F0249FD1
:101A3000F001259FF00D349FF00D1124E35FFE4F60
:101A400080E090E0E2CF81E060E00E94FF0181E968
:101A500090E00E94570281E090E060E070E040E09A
:101A600050E020E030E00E94F00582991AC00E9408
:101A7000EB0485B3807F85BB85B39091F000892B03
:101A800085BB0E94B7090E945D070E94C307809131
:101A9000FF00909100010196909300018093FF0058
:101AA000E6CF809BE4CF819BE2CF839BE0CFDDCF6D
:101AB00080E090E00E94F10F80939B0381E090E032
:101AC0000E94F10F80939C0382E090E00E94F10F4E
:101AD00080939D0383E090E00E94F10F80939E032A
:101AE0000895CF93DF9320919F038091970390E017
:101AF000820F911D9595879580939B032091A0035C
:101B00008091980390E0820F911D95958795809321
:101B10009C032091A1038091990390E0820F911D75
:101B20009595879580939D032091A20380919A03B8
:101B300090E0820F911D9595879580939E03C0E05C
:101B4000D0E0FE01E556FC4FCE0160810E94F90F06
:101B50002196C430D105A9F7DF91CF91089550584F
:101B6000BB27AA270ED075C166D130F06BD120F00B
:101B700031F49F3F11F41EF45BC10EF4E095E7FBD6
:101B800051C1E92F77D180F3BA1762077307840731
:101B9000950718F071F49EF58FC10EF4E0950B2EA9
:101BA000BA2FA02D0B01B90190010C01CA01A001AF
:101BB0001124FF27591B99F0593F50F4503E68F10A
:101BC0001A16F040A22F232F342F4427585FF3CF4B
:101BD000469537952795A795F0405395C9F77EF41C
:101BE0001F16BA0B620B730B840BBAF09150A1F065
:101BF000FF0FBB1F661F771F881FC2F70EC0BA0FEB
:101C0000621F731F841F48F4879577956795B79572
:101C1000F7959E3F08F0B3CF9395880F08F099276A
:101C2000EE0F979587950895D9D008F481E008952F
:101C30000CD00FC107D140F0FED030F021F45F3F4F
:101C400019F0F0C0511139C1F3C014D198F39923A0
:101C5000C9F35523B1F3951B550BBB27AA27621770
:101C60007307840738F09F5F5F4F220F331F441FB5
:101C7000AA1FA9F333D00E2E3AF0E0E830D09150ED
:101C80005040E695001CCAF729D0FE2F27D0660FDA
:101C9000771F881FBB1F261737074807AB07B0E819
:101CA00009F0BB0B802DBF01FF2793585F4F2AF02F
:101CB0009E3F510568F0B6C000C15F3FECF3983E0F
:101CC000DCF3869577956795B795F7959F5FC9F78C
:101CD000880F911D9695879597F90895E1E0660F15
:101CE000771F881FBB1F621773078407BA0720F08E
:101CF000621B730B840BBA0BEE1F88F7E0950895F7
:101D000004D06894B111D9C00895BCD088F09F5711
:101D100090F0B92F9927B751A0F0D1F0660F771F37
:101D2000881F991F1AF0BA95C9F712C0B13081F017
:101D3000C3D0B1E00895C0C0672F782F8827B85F5F
:101D400039F0B93FCCF3869577956795B395D9F778
:101D50003EF490958095709561957F4F8F4F9F4F82
:101D60000895E89409C097FB3EF49095809570958E
:101D700061957F4F8F4F9F4F9923A9F0F92F96E9D7
:101D8000BB279395F695879577956795B795F1114C
:101D9000F8CFFAF4BB0F11F460FF1BC06F5F7F4FE9
:101DA0008F4F9F4F16C0882311F096E911C07723FB
:101DB00021F09EE8872F762F05C0662371F096E804
:101DC000862F70E060E02AF09A95660F771F881FD3
:101DD000DAF7880F9695879597F90895990F000877
:101DE000550FAA0BE0E8FEEF16161706E807F907ED
:101DF000C0F012161306E407F50798F0621B730B88
:101E0000840B950B39F40A2661F0232B242B252B08
:101E100021F408950A2609F4A140A6958FEF811DAB
:101E2000811D089597F99F6780E870E060E008954C
:101E30009FEF80EC089500240A94161617061806E2
:101E40000906089500240A941216130614060506BE
:101E50000895092E0394000C11F4882352F0BB0F4F
:101E600040F4BF2B11F460FF04C06F5F7F4F8F4FB2
:101E70009F4F089557FD9058440F551F59F05F3FED
:101E800071F04795880F97FB991F61F09F3F79F09C
:101E900087950895121613061406551FF2CF46951E
:101EA000F1DF08C0161617061806991FF1CF8695A0
:101EB0007105610508940895E894BB276627772784
:101EC000CB0197F908958ADF08F48FEF08950BD0BE
:101ED000C0CFB1DF28F0B6DF18F0952309F0A2CF0C
:101EE000A7CF1124EACFC6DFA0F3959FD1F3950FBA
:101EF00050E0551F629FF001729FBB27F00DB11D8E
:101F0000639FAA27F00DB11DAA1F649F6627B00D1D
:101F1000A11D661F829F2227B00DA11D621F739F06
:101F2000B00DA11D621F839FA00D611D221F749F14
:101F30003327A00D611D231F849F600D211D822F5B
:101F4000762F6A2F11249F5750408AF0E1F08823A2
:101F50004AF0EE0FFF1FBB1F661F771F881F9150AF
:101F60005040A9F79E3F510570F05CCFA6CF5F3F70
:101F7000ECF3983EDCF3869577956795B795F795E2
:101F8000E7959F5FC1F7FE2B880F911D969587956A
:101F900097F9089597FB092E07260AD077FD04D0FC
:101FA0000CD006D000201AF4709561957F4F0895EB
:101FB000F6F7909581959F4F0895AA1BBB1B51E1A1
:101FC00007C0AA1FBB1FA617B70710F0A61BB70BA9
:101FD000881F991F5A95A9F780959095BC01CD014E
:101FE0000895E199FECF9FBB8EBBE09A99278DB3F0
:101FF0000895262FE199FECF9FBB8EBB2DBB0FB658
:10200000F894E29AE19A0FBE01960895F894FFCFF2
:102010004552524F5220467220536E7372004669E9
:102020006C6C6961626C65006D783A20006D793A7C
:10203000200050726573732061204B65792D2D3E11
:1020400000507265737320416E79204B65790044AE
:10205000332050726573736564005B005D00443229
:10206000205072657373656400443120507265734B
:102070007365640044302050726573736564003189
:102080000030004C434420576F726B696E67000943
:1020900001000070416666464073020005000500BD
:00000001FF
